:100000000C9463000C948B000C948B000C948B006C
:100010000C948B000C948B000C948B000C948B0034
:100020000C948B000C948B000C948B000C94A10707
:100030000C948B000C948B000C948B000C948B0014
:100040000C9445030C948B000C948C0A0C94660A57
:100050000C948B000C948B000C948B000C948B00F4
:100060000C9462080C948B00000000002400270010
:100070002A0000000000250028002B0000000008D6
:10008000000201000003040700000000000000005F
:1000900000000000230026002900040404040404D6
:1000A0000404020202020202030303030303010227
:1000B00004081020408001020408102001020408F6
:1000C00010203111A90E11241FBECFEFD8E0DEBFE2
:1000D000CDBF11E0A0E0B1E0E2E2FCE202C0059099
:1000E0000D92A434B107D9F725E0A4E4B1E001C032
:1000F0001D92AB36B207E1F710E0C2E6D0E004C0D3
:100100002197FE010E940214C136D107C9F70E944F
:10011000AF0E0C9404160C940000FC01918D228DFE
:10012000892F90E0805C9F4F821B91098F739927E4
:10013000089580E090E0892B29F00E94ED0981115B
:100140000C94000008958EBD0DB407FEFDCF0895F8
:100150008FEF8EBD0DB407FEFDCF8EB508950F93C2
:100160001F93CF93DF938B012FB7F89480918D016C
:1001700090918E01A0918F01B09190012FBFEC0161
:100180000E94A8008F3F91F02FB7F89480918D01C5
:1001900090918E01A0918F01B09190012FBF8C1B87
:1001A0009D0B0817190760F780E001C081E0DF911F
:1001B000CF911F910F91089585ED8093BC008091A0
:1001C000BC0084FDFCCF1092DE01089540916401D3
:1001D000262F30E0240F311D21323105DCF420912F
:1001E000DE012430C9F4FC0180E090E0861758F469
:1001F000309164012191DC01AC5BBE4FA30FB11DB6
:100200002C930196F3CF80916401680F6093640191
:1002100080E0089581E0089582E0089508950895AA
:100220000895E091E0018091DF01E81730F4F0E0FB
:10023000EF51FE4F808190E008958FEF9FEF08957A
:100240009091E0018091DF01981750F4E92FF0E0E0
:10025000EF51FE4F208130E09F5F9093E00102C09C
:100260002FEF3FEFC90108958091DF0190E02091C9
:10027000E001821B91090895CF92DF92EF92FF92E5
:100280000F931F93CF93DF937C01CB018A012091C1
:100290009501222389F0EB016B01C40ED51ECC150C
:1002A000DD0569F06991D701ED91FC910190F08134
:1002B000E02DC7010995F3CF642F0E94E600C80125
:1002C000DF91CF911F910F91FF90EF90DF90CF9032
:1002D0000895CF93DF931F92CDB7DEB76983209146
:1002E00095012223D1F02091B701203240F021E086
:1002F00030E0FC013383228380E090E015C08091E0
:100300009601E82FF0E0E956FE4F998190838F5FC8
:10031000809396018093B70105C061E0CE010196FC
:100320000E94E60081E090E00F90DF91CF91089568
:10033000FC01848583FF0DC084A195A1A6A1B7A16E
:10034000448D558D668D778D841B950BA60BB70B51
:1003500003C080E090E0DC01811520E89207A10550
:10036000B10520F08FEF9FE7A0E0B0E00895089579
:1003700080E090E008950C960C949C0BCF93DF9353
:100380001F92CDB7DEB7698341E050E0BE016F5FD9
:100390007F4F0C960E949C0B0F90DF91CF91089598
:1003A0008F929F92AF92BF92CF92DF92EF92FF9285
:1003B0000F931F93CF93DF931F92CDB7DEB78C01BE
:1003C000FC01848C958CA68CB78CC08CD18CE28C73
:1003D000F38CBE016F5F7F4F0C960E94BE0A01979F
:1003E00019F4898190E002C08FEF9FEF8F3FFFEFFC
:1003F0009F0749F0F801848E958EA68EB78EC08E29
:10040000D18EE28EF38E0F90DF91CF911F910F91DD
:10041000FF90EF90DF90CF90BF90AF909F908F9024
:100420000895CF93DF931F92CDB7DEB7BE016F5F04
:100430007F4F0C960E94BE0A019719F4898190E0C3
:1004400002C08FEF9FEF0F90DF91CF910895FC01D5
:10045000848DDF01A80FB11DA35ABF4F2C91848D4D
:1004600090E001968F739927848FA689B7892C9382
:10047000A089B1898C91837080648C93938D848DD5
:10048000981306C00288F389E02D80818F7D8083D8
:10049000089590E0FC01E458FF4F2491FC01E255DF
:1004A000FF4F3491FC01E656FF4FE491EE2309F42F
:1004B0003CC0222339F1233091F038F42130A9F0E7
:1004C000223001F584B58F7D12C0273091F028309D
:1004D000A1F02430B9F4809180008F7D03C0809119
:1004E00080008F77809380000DC084B58F7784BDA6
:1004F00009C08091B0008F7703C08091B0008F7DDC
:100500008093B000F0E0EE0FFF1FEE58FF4FA59173
:10051000B4919FB7F894611104C08C913095382341
:1005200002C0EC913E2B3C939FBF0895CF93DF9385
:10053000FC012381222361F0EC010180F281E02D96
:1005400061E082810E9449028FEF0E94A3001B821A
:10055000DF91CF910895FF920F931F93CF93DF9375
:1005600000D000D0CDB7DEB78C01F62E29833A83B8
:100570004B835C83DC0113968C911397811113C01C
:100580001196ED91FC911297908181819CBD8DBD5A
:100590001196ED91FC91129760E082810E944902D0
:1005A00081E0F8018383FF2029F06CE271E0C8014B
:1005B0000E94AF008F2D80640E94A3008C810E9456
:1005C000A3008B810E94A3008A810E94A3008981DD
:1005D0000E94A300FF2011F087E801C085E90E9476
:1005E000A3000E94A8008BE0F82E0E94A800D8016A
:1005F00014968C9387FF03C0FA94F110F6CF0F90F6
:100600000F900F900F90DF91CF911F910F91FF905E
:100610000895CF93DF9390E0FC01E255FF4F2491C2
:10062000FC01E656FF4F8491882361F190E0880F2A
:10063000991FFC01E859FF4FC591D491FC01EE5878
:10064000FF4FA591B491611109C09FB7F8948881BB
:10065000209582238883EC912E230BC0623061F4B5
:100660009FB7F8948881322F309583238883EC914B
:100670002E2B2C939FBF06C08FB7F894E8812E2BAA
:1006800028838FBFDF91CF9108951F920F920FB6ED
:100690000F9211242F933F938F939F93AF93BF9308
:1006A00080918D0190918E01A0918F01B091900168
:1006B00030918C0123E0230F2D3720F40196A11DEA
:1006C000B11D05C026E8230F0296A11DB11D209380
:1006D0008C0180938D0190938E01A0938F01B09334
:1006E00090018091880190918901A0918A01B09137
:1006F0008B010196A11DB11D809388019093890102
:10070000A0938A01B0938B01BF91AF919F918F917C
:100710003F912F910F900FBE0F901F9018950F9340
:100720001F93CF93DF93EC0189018D81833039F0E2
:1007300089E0440F551F661F771F8A95D1F79A01EC
:10074000AB0168E1CE010E94AB02882311F082E385
:1007500030C08EEF0E94A300F80180818EBD8181A0
:1007600032961E5F0DB407FEFDCF8EBDE017F10778
:1007700011F08191F7CF0DB407FEFDCF8FEF0E94EE
:10078000A3008FEF0E94A3000E94A8008C838F71AA
:10079000853031F087E58883CE010E9496020AC039
:1007A00060ED77E0CE010E94AF00182F811107C0E5
:1007B0008AE58883CE010E94960210E012C020E0F4
:1007C00030E0A9016DE0CE010E94AB02811104C0AE
:1007D0000E94A800882311F089E2EBCFCE010E948D
:1007E0009602812FDF91CF911F910F910895EF9283
:1007F000FF920F931F93CF93DF93EC0179018D81CB
:10080000833039F089E0440F551F661F771F8A95A2
:10081000D1F79A01AB0161E1CE010E94AB028823BE
:1008200019F080E3888349C08FB7F89400918D0157
:1008300010918E0120918F01309190018FBF0E9405
:10084000A8008C838F3F91F42FB7F89480918D018D
:1008500090918E01A0918F01B09190012FBF801BCC
:10086000910B893E934058F385E503C08E3F31F0EC
:1008700080E58883CE010E9496021FC08FEF8EBD57
:10088000F701D701A150BE4F9FEF0DB407FEFDCF7A
:100890008EB59EBD8193AE17BF07B9F70DB407FEA5
:1008A000FDCF8EB58C931C820E94A8000E94A800E8
:1008B000CE010E94960281E004C0CE010E94960201
:1008C00080E0DF91CF911F910F91FF90EF900895FD
:1008D000EF92FF921F93CF93DF93FC01208120FFC3
:1008E00032C0EC017C01F7E0EF0EF11C4B815C8122
:1008F0006D817E81E981FA819701808191810E94D9
:100900008F03182F811102C010E01EC0888181FD65
:1009100004C088818E7F888317C0E981FA814B816A
:100920005C816D817E8184859585A685B785480F1C
:10093000591F6A1F7B1F9701808191810E948F033D
:100940008111E7CFE1CF11E0812FDF91CF911F918E
:10095000FF90EF900895CF92DF92EF92FF921F9356
:10096000CF93DF93EC016A017B01122F8B819C8175
:10097000AD81BE8184179507A607B707F1F0CE01B8
:100980000E946804811103C080E090E01CC012FF47
:1009900006C01882CB82DC82ED82FE820EC0E98125
:1009A000FA819E01295F3F4FB701A60180819181A5
:1009B0000E94F7038111EDCFE7CF13708881182BC8
:1009C0001883CE010796DF91CF911F91FF90EF9092
:1009D000DF90CF9008958F929F92AF92BF92CF9267
:1009E000DF92EF92FF920F931F9342305105610502
:1009F000710510F480E055C0FC01C08CD18CE28CF4
:100A0000F38CC416D506E606F706A0F34801590193
:100A10006A017B018581803239F584899589A689AF
:100A2000B78917E076956795579547951A95D1F749
:100A3000480F591F6A1F7B1F23E0CF0180960E9439
:100A4000AB040097B9F2E894C7F8DD24EE24FF2444
:100A5000CC0CDD1CCC0CDD1CFC01EC0DFD1D8082E2
:100A60009182A282B3821CC0803121F644895589CB
:100A7000668977894D0D511D611D711D23E0CF01E0
:100A800080960E94AB04009709F4B4CFDD24EE24D5
:100A9000FF24CC0CDD1CFC01EC0DFD1D918280823D
:100AA00081E01F910F91FF90EF90DF90CF90BF906A
:100AB000AF909F908F900895CF92DF92EF92FF9228
:100AC0000F931F93CF93DF9342305105610571055A
:100AD00010F48FEF68C0FC01C08CD18CE28CF38CD9
:100AE000C416D506E606F706A0F389016A017B0164
:100AF000EC018581803241F584899589A689B78981
:100B0000E7E07695679557954795EA95D1F7480FB1
:100B1000591F6A1F7B1F22E0CE0180960E94AB0402
:100B20000097B9F2E894C7F8DD24EE24FF24CC0C3A
:100B3000DD1CCC0CDD1CFC01EC0DFD1D80819181C8
:100B4000A281B381BF701EC0803119F644895589D6
:100B5000668977894D0D511D611D711D22E0CF0100
:100B600080960E94AB04009709F4B3CFDD24EE24F5
:100B7000FF24CC0CDD1CFC01EC0DFD1D808191815E
:100B8000A0E0B0E0488D598D6A8D7B8D48175907DC
:100B90006A077B0738F0F80180839183A283B383CF
:100BA00081E001C080E0DF91CF911F910F91FF9014
:100BB000EF90DF90CF9008953F924F925F926F92A7
:100BC0007F928F929F92AF92BF92CF92DF92EF92DD
:100BD000FF920F931F93CF93DF9300D000D0CDB738
:100BE000DEB75C012A013B014901FC01C084D184CC
:100BF000E284F384C416D506E606F706C0F46A015B
:100C00007B0110E0FFEFCF1ADF0AEF0AFF0AF501C0
:100C1000808D918DA28DB38D8C159D05AE05BF0580
:100C200040F4111132C0C084D184E284F38411E015
:100C3000E9CF4C145D046E047F0439F19E012F5FEF
:100C40003F4FB701A601C5010E945C0587FD1DC08D
:100C50008823C1F289819A81AB81BC81892B8A2B3F
:100C60008B2B81F6112329F0F501C086D186E2860F
:100C7000F3860FEF1FEF2FEF3FE0B701A601C5018D
:100C80000E94EB04382E811102C0312C15C0411492
:100C900051046104710431F4F401C082D182E28212
:100CA000F3820AC097018601B301A201C5010E9427
:100CB000EB048111F1CFE9CF832D0F900F900F90AE
:100CC0000F90DF91CF911F910F91FF90EF90DF90E8
:100CD000CF90BF90AF909F908F907F906F905F90DC
:100CE0004F903F900895CF93DF93EC018A8182FF6C
:100CF00037C04C895D896E897F898E819F8121E013
:100D000080960E94AB04009729F4898181608983D1
:100D100080E02DC0EC81FD81EF70FF2725E0EE0F14
:100D2000FF1F2A95E1F7E80FF91F309771F38081D3
:100D3000853E59F3888183FF08C0888D998DAA8DDF
:100D4000BB8D848F958FA68FB78F8C8D9D8DAE8D2B
:100D5000BF8D938F828FB58BA48B8A818B7F8A8383
:100D60008E819F8180960E946804882371F2DF91B2
:100D7000CF910895FC012485222319F00C960C9440
:100D800073060895CF92DF92EF92FF92CF93DF9395
:100D9000EC01603282E078070CF03DC077FD06C0C0
:100DA000653B71052CF064EB70E002C060E070E020
:100DB000898128E830E06901C81AD10887FDD394F9
:100DC000CC0CDD1CCC0CDD1C0D2C000CEE08FF083F
:100DD0008A8128E532E0281B310987FD3395220FEF
:100DE000331F220F331FC901330FAA0BBB0B9C010A
:100DF000AD012C193D094E095F09DB010E9450131A
:100E000024EB30E040E050E00E942613C20ED31ED7
:100E1000E41EF51EB60138813C3080F5298188E852
:100E200090E0821B910927FD9395880F991F880FE9
:100E3000991F6817790784F08A8148E552E0481BBA
:100E4000510987FD5395440F551F440F551FCB0182
:100E5000461757070CF4CA010297880F991F4FB71E
:100E6000F894232F30E0F901EE0FFF1F2E0F3F1FE4
:100E7000F901E654FD4F928381834FBFDF91CF91FB
:100E8000FF90EF90DF90CF9008951F93CF93DF9363
:100E9000EC01162F88818C3008F04EC061E0812F64
:100EA0000E9409038881E82FF0E09F01220F331F81
:100EB000E20FF31FE654FD4F1F739081907C192BB6
:100EC000108319821A826CE00E94F6139CE0899FBD
:100ED000B001112440E050E09B01240F351FF901BF
:100EE000EE0FFF1F2E0F3F1FF901E654FD4F9081BB
:100EF00096FD16C04F5F5F4F4C30510569F7811169
:100F00000FC01092800082E08093810010928500D3
:100F100010928400B19A80916F00826080936F007C
:100F2000E881F0E0CF01880F991FE80FF91FE65420
:100F3000FD4F8081806480838881DF91CF911F91F4
:100F400008951F920F920FB60F9211242F933F9383
:100F50004F935F936F937F938F939F93AF93BF93C1
:100F6000EF93FF938091870187FF05C01092850062
:100F7000109284001BC020918701022E000C330BBD
:100F80008091DE0290E02817390784F48091870170
:100F9000082E000C990BFC01EE0FFF1F8E0F9F1FF8
:100FA000FC01E654FD4F808186FD15C080918701CC
:100FB0008F5F8093870120918701022E000C330BF5
:100FC0008091DE0290E028173907C4F480918701F0
:100FD0008C3064F113C080918701082E000C990BAE
:100FE000FC01EE0FFF1F8E0F9F1FFC01E654FD4F0B
:100FF000808160E08F730E944902D8CF8091840085
:1010000090918500049680349C4918F480E49CE912
:1010100005C080918400909185000496909389008A
:10102000809388008FEF809387013BC020918400DC
:101030003091850080918701082E000C990BFC01EE
:10104000EE0FFF1F8E0F9F1FFC01E654FD4F8181A5
:101050009281820F931F90938900809388008091E2
:101060008701082E000C990BFC01EE0FFF1F8E0F5D
:101070009F1FFC01E654FD4F808186FF12C08091C6
:101080008701082E000C990BFC01EE0FFF1F8E0F3D
:101090009F1FFC01E654FD4F808161E08F730E9429
:1010A0004902FF91EF91BF91AF919F918F917F91F5
:1010B0006F915F914F913F912F910F900FBE0F90C5
:1010C0001F9018951F920F920FB60F9211242F9315
:1010D0003F934F935F936F937F938F939F93AF93C0
:1010E000BF93EF93FF938091B900887F803609F416
:1010F0009CC068F5883209F45BC090F4803109F433
:1011000054C038F4882309F4F6C0883009F44DC07F
:10111000F6C0883109F44CC0803209F45DC0EFC0DC
:10112000803409F468C048F4803309F455C088332A
:1011300009F0E5C08093DC01D8C0803509F44FC0C8
:10114000883509F45DC0883409F0D9C0D6C0883923
:1011500009F4C7C0A8F4883709F467C038F48836A2
:1011600009F463C0803709F460C0C9C0883809F445
:10117000B8C0803909F45FC0803809F0C0C05BC0D6
:10118000803B09F486C038F4803A09F466C0883A96
:1011900009F47FC0B4C0803C09F4A7C0883C09F4BE
:1011A000A4C0883B09F48AC0AAC08091D90110C0AC
:1011B0009091DB018091DA01981770F5E091DB01E5
:1011C00081E08E0F8093DB01F0E0E854FE4F8081D8
:1011D0008093BB0085EC86C08093DC018EC0E091DB
:1011E000DB0181E08E0F8093DB018091BB00F0E09A
:1011F000E854FE4F80839091DB018091DA016EC04C
:10120000E091DB0181E08E0F8093DB018091BB00D8
:10121000F0E0E854FE4F80838091DD0181116DC0C4
:1012200081E08093D80184EA61C083E08093DE018D
:1012300010928601CFCF80918601803208F051C094
:10124000E091860181E08E0F809386018091BB0042
:10125000F0E0EA59FE4F8083BDCF85EC8093BC005F
:101260001092DE0180918601803230F4E091860197
:10127000F0E0EA59FE4F10826091860170E0E09143
:101280009101F091920186E691E009951092860114
:1012900036C084E08093DE011092650110926401F3
:1012A000E0919301F091940109958091640181117D
:1012B00005C081E08093640110924401E0916501D2
:1012C00081E08E0F80936501F0E0EC5BFE4F808142
:1012D0008093BB009091650180916401981708F498
:1012E00079CF85E88093BC000AC085EC8093BC0070
:1012F0001092DE0104C01092DC010E94DC00FF911C
:10130000EF91BF91AF919F918F917F916F915F917D
:101310004F913F912F910F900FBE0F901F901895F6
:10132000CF92DF92EF92FF920F931F93CF93DF93B1
:101330006C017A018B01C0E0D0E0CE15DF0581F0B1
:10134000D8016D918D01D601ED91FC910190F08154
:10135000E02DC6010995892B11F02196EECF7E0173
:10136000C701DF91CF911F910F91FF90EF90DF9018
:10137000CF900895FC01538D448D252F30E0842FAC
:1013800090E0821B930B541710F0CF9608950197AD
:101390000895FC01918D828D981761F0828DDF0197
:1013A000A80FB11D5D968C91928D9F5F9F73928F58
:1013B00090E008958FEF9FEF0895FC01918D828D4D
:1013C000981731F0828DE80FF11D858D90E008951A
:1013D0008FEF9FEF08950E94EF1581E192E00E9448
:1013E0008D0021E0892B09F420E0822F0895EF92EF
:1013F000FF920F931F93CF93DF93EC0181E0888FCF
:101400009B8D8C8D981305C0E889F989808185FDB5
:1014100026C0F62E0B8D10E00F5F1F4F0F731127A4
:10142000E02E8C8DE8120CC00FB607FCFACFE889CD
:10143000F989808185FFF5CFCE010E942702F1CF87
:101440008B8DFE01E80FF11DE35AFF4FF0829FB72D
:10145000F8940B8FEA89FB89808180620AC09FB76C
:10146000F894EE89FF896083E889F9898081837027
:10147000806480839FBF81E090E0DF91CF911F91D6
:101480000F91FF90EF900895CF93DF93EC01888D3B
:101490008823C9F0EA89FB89808185FD05C0A88978
:1014A000B9898C9186FD0FC00FB607FCF5CF8081FE
:1014B00085FFF2CFA889B9898C9185FFEDCFCE0148
:1014C0000E942702E7CFDF91CF9108951F920F92DC
:1014D0000FB60F9211242F933F934F935F936F9307
:1014E0007F938F939F93AF93BF93EF93FF9381E18C
:1014F00092E00E942702FF91EF91BF91AF919F91DF
:101500008F917F916F915F914F913F912F910F90AC
:101510000FBE0F901F9018951F920F920FB60F924B
:1015200011242F938F939F93EF93FF93E0912102C8
:10153000F09122028081E0912702F091280282FD41
:1015400012C0908180912A028F5F8F7320912B02AD
:10155000821751F0E0912A02F0E0EF5EFD4F958F87
:1015600080932A0201C08081FF91EF919F918F911A
:101570002F910F900FBE0F901F901895DF92EF9252
:10158000FF920F931F93CF93DF93EC018B01288180
:101590002223E9F08A8180FF1AC01FC0D380D422A1
:1015A000E114F10409F078C0D11076C0892B8A2BA0
:1015B0008B2B09F456C04C855D856E857F859E0119
:1015C000245F3F4FCF010E945C0587FF5AC089818D
:1015D000826089838FEF9FEFA7C023FF14C0888D9F
:1015E000998DAA8DBB8D488959896A897B89841B0D
:1015F000950BA60BB70B82309105A105B105A0F4A0
:10160000009791F468C025FF0FC0EE81FF818681AD
:10161000978145E0880F991F4A95E1F748895989D4
:101620008417950709F45AC088899989AA89BB89C2
:101630007C0131E0F322EE81FF81AC01BD0139E094
:1016400076956795579547953A95D1F725FFA6CF9B
:10165000848D958DA68DB78D480F591F6A1F7B1FEE
:1016600046C026FF05C0848D958DA68DB78D04C01C
:101670008C8D9D8DAE8DBF8D8C879D87AE87BF87EE
:101680000BC0811109C08881807709F4A0CF21E0C7
:1016900030E081E090E026C0EE81FF814C855D85E1
:1016A0006E857F854250510961097109048004C02B
:1016B000440F551F661F771F0A94D2F780899189BE
:1016C000A289B389480F591F6A1F7B1F4D0D511DF9
:1016D000611D711D0CC020E030E004C020E030E04E
:1016E00080E090E0A901481B590BCA011DC08E8102
:1016F0009F8120E080960E94AB04009709F467CF99
:10170000FC01EE0DFF1D8081F80180838889998995
:10171000AA89BB890196A11DB11D888B998BAA8BC3
:10172000BB8B21E030E0DCCFDF91CF911F910F9197
:10173000FF90EF90DF9008952F923F924F925F922B
:101740006F927F928F929F92AF92BF92CF92DF92D1
:10175000EF92FF920F931F93CF93DF93CDB7DEB736
:1017600029970FB6F894DEBF0FBECDBF9C838B8345
:101770001B015A834983DC01BC91BD83B3FF67C061
:10178000FC01828181FF63C06AC0AB81BC81169677
:10179000ED91FC911797848190E009968A019B0155
:1017A0000150110921093109082E04C036952795E9
:1017B000179507950A94D2F775016401B1E0CB1A29
:1017C000D108E108F10804C0F694E794D794C794CF
:1017D0008A95D2F7C016D106E206F30608F066C075
:1017E0008D8186FD02C0EB81FC81848D958DA68D57
:1017F000B78DEB81FC8184879587A687B7870B819E
:101800001C81045F1F4FC114D104E104F10409F4E9
:1018100057C0AB81BC811C964D915D916D917C91BF
:101820001F97980116968D919C9117970E945C05C1
:10183000B1E0CB1AD108E108F108181624F3AB8106
:10184000BC811C964D925D926D927C921F97EB81AC
:10185000FC818181816081838FEF9FEFA8C183FF2D
:1018600035C0AB81BC811C964D905D906D907C9095
:101870001F9758968D909D90AD90BC905B97509619
:101880004D915D916D917C91539784169506A606B6
:10189000B706E1F081149104A104B10409F075CFF9
:1018A000FD0114861586168617860AC0452B462B21
:1018B000472B09F495CFC01AD10AE20AF30A9FCF49
:1018C000EB81FC81808A918AA28AB38A89819A817C
:1018D000AC0160E070E0EB81FC8180899189A28994
:1018E000B38980959095A095B09584179507A60724
:1018F000B70708F4ACCFC980DA80412C82E0582EBB
:101900003F01FCE06F0E711CEB81FC8100891189A5
:1019100022893389C114D10409F403C186819781D6
:10192000B901A80129E076956795579547952A95BD
:10193000D1F7DC011396FC90F4221170F11054C021
:101940000115110509F050C04485558566857785D8
:101950004115510561057105C1F093010E945C05B7
:1019600087FD75CF811102C1EB81FC81828184608A
:101970008283448555856685778593018681978125
:101980000E94DC058111F2C062CFAB81BC815C9604
:101990004D915D916D917C915F9741155105610568
:1019A0007105D1F412962C911297246012962C9303
:1019B000930140E050E0BA010E94DC05882309F45D
:1019C00046CFEB81FC8184859585A685B785848F7C
:1019D000958FA68FB78F08C0AB81BC811C964D93A5
:1019E0005D936D937C931F97AB81BC811696ED91AF
:1019F000FC9117971C964D915D916D917C911F976D
:101A00004250510961097109048004C0440F551FF7
:101A1000661F771F0A94D2F780899189A289B389BA
:101A2000480F591F6A1F7B1F4F0D511D611D711DEE
:101A30000115110521F4C114B2E0DB06E8F5C2017D
:101A4000801B910B76018C159D0508F47C01011516
:101A50001105A9F4AB81BC8150968D909D90AD90FD
:101A6000BC90539758968D919D910D90BC91A02D4F
:101A700088169906AA06BB0610F025E001C021E0F1
:101A8000CF0180960E94AB04009709F4E0CEA70135
:101A9000B101800F911F0E94F4150E0D1F1D01153D
:101AA000124061F5EB81FC818681978180960E94CE
:101AB0006804811123C0CBCE83A194A1A5A1B6A1B6
:101AC00084179507A607B70741F410A28FEF9FEF81
:101AD000DC0183A394A3A5A3B6A3AB81BC81169616
:101AE000ED91FC9117979101808191810E948F0364
:101AF000882309F4ACCEE12C92E0F92EEB81FC8135
:101B000080899189A289B3898E0D9F1DA11DB11D68
:101B1000808B918BA28BB38B2E0C3F1CCE18DF08D1
:101B2000F3CEEB81FC81808D918DA28DB38D8017DA
:101B30009107A207B30738F4008F118F228F338FDC
:101B4000828184608283EB81FC81828187FD03C076
:101B500089819A812CC0AB81BC818C918823C1F38F
:101B6000CD010E9473068111F3CF71CEAB81BC8190
:101B70001696ED91FC9117971C964D915D916D9184
:101B80007C911F974250510961097109048004C07A
:101B9000440F551F661F771F0A94D2F780899189D9
:101BA000A289B389480F591F6A1F7B1F44CF29960A
:101BB0000FB6F894DEBF0FBECDBFDF91CF911F915E
:101BC0000F91FF90EF90DF90CF90BF90AF909F90DC
:101BD0008F907F906F905F904F903F902F900895DF
:101BE000009769F0FC0101900020E9F73197AF01FF
:101BF000481B590BBC0181E192E00C94900980E0F4
:101C000090E008958F929F92AF92BF920F931F938F
:101C1000CF93DF93CDB7DEB7A1970FB6F894DEBFB1
:101C20000FBECDBF19A2423008F44AE08E010F5D0D
:101C30001F4F842E912CA12CB12CA50194010E9440
:101C40008F13E62FB901CA0101501109EA3014F4CB
:101C5000E05D01C0E95CD801EC93232B242B252BFC
:101C600061F7C8010E94F00DA1960FB6F894DEBF8F
:101C70000FBECDBFDF91CF911F910F91BF90AF905D
:101C80009F908F900895CF92DF92EF92FF92CF9323
:101C9000DF936B017C016DE281E192E00E94F70924
:101CA000EC0166277727CB016C197D098E099F0906
:101CB0004AE00E94020E8C0F9D1FDF91CF91FF9092
:101CC000EF90DF90CF900895CF92DF92EF92FF9246
:101CD0000F931F93E82FF92F05C001501109210917
:101CE000310961F1908196239417B9F305C0015031
:101CF00011092109310911F1908196239413F7CF2D
:101D0000C12CD12CE12CF12C0AC08FEFC81AD80AB3
:101D1000E80AF80A0C151D052E053F0579F08081AB
:101D20008623841791F36C2D7D2D8E2D9F2D1F9171
:101D30000F91FF90EF90DF90CF90089560E070E0FA
:101D400080E090E01F910F91FF90EF90DF90CF9097
:101D500008958091DF029091E0020C94A014789491
:101D600084B5826084BD84B5816084BD85B58260A0
:101D700085BD85B5816085BD80916E008160809351
:101D80006E001092810080918100826080938100BA
:101D900080918100816080938100809180008160CA
:101DA000809380008091B10084608093B100809125
:101DB000B00081608093B00080917A00846080934D
:101DC0007A0080917A00826080937A0080917A0014
:101DD000816080937A0080917A00806880937A0095
:101DE0001092C100E0912102F091220282E08083F2
:101DF000E0911D02F0911E021082E0911F02F0910D
:101E000020028FEC808310922902E0912502F0914C
:101E1000260286E08083E0912302F09124028081F3
:101E200080618083E0912302F091240280818860A8
:101E30008083E0912302F091240280818068808376
:101E4000E0912302F091240280818F7D80831092A3
:101E5000E0011092DF01109296011092B7011092EA
:101E6000DE0181E08093DD011092D80161E082E122
:101E70000E94490261E083E10E9449028091B90019
:101E80008E7F8093B9008091B9008D7F8093B900D7
:101E900088E48093B80085E48093BC008EE091E0F4
:101EA00090939401809393018FE091E0909392013D
:101EB0008093910161E08EE00E94090361E08FE070
:101EC0000E94090360E08EE00E94490260E08FE01A
:101ED0000E94490266E070E088EE92E00E944507A9
:101EE00069E070E085EE92E00E94450760E083E0E3
:101EF0000E94090351EB452E50E0552E6DE9862EC8
:101F000060E0962EFF24F39472E0272EEE24EA94EC
:101F1000E5EE7E2EF5EC6F2EA4E03A2EF2016491F0
:101F2000F4018491E82FF0E0EE0FFF1FE057FF4F20
:101F30008591949100E412E42FE030E0462F0E9456
:101F4000640E611571058105910539F0DC01CB0145
:101F50000196A11DB11DBF7003C080E090E0DC01BF
:101F6000C1E08D3D95400CF4C0E0C09310026C2F91
:101F70008EE00E9449026C2F8FE00E944902F0928D
:101F8000950120E620930102109296011092B7016C
:101F900061E08EEA92E00E9469019091B70191326E
:101FA00008F040C08091DE018111FCCF2092DE015B
:101FB000F092DD01E092DC011092DB019093DA01F6
:101FC000E7E9F1E0A8EBB1E0981721F021912D931A
:101FD0008F5FFACF1092D9018091D901806C8093E4
:101FE000D9018091D801813069F41092D801809193
:101FF000D9018093BB008091BC0083FDF8CF609233
:10200000BC0002C07092BC008091DE018230E1F31E
:102010008091DC018F3F31F08091DC01803211F042
:102020008091DC01109296011092B70110929501F7
:102030008091DE018111FCCFF092DE01F092DD0192
:10204000E092DC011092DB013092DA01F092D901CA
:102050008091D901806C8093D9018091D801813021
:1020600069F41092D8018091D9018093BB008091CE
:10207000BC0083FDF8CF6092BC0002C07092BC002F
:102080008091DE018130E1F38091DB01853018F42D
:102090009091DB0101C095E0E8EBF1E0A1EEB1E049
:1020A00080E0891721F021912D938F5FFACF109254
:1020B000E0018093DF018EEA92E00E9420018EEA27
:1020C00092E00E942001C82F8EEA92E00E94200137
:1020D000BC2EA12C8A0D9B1D9093030280930202BB
:1020E0008EEA92E00E9420019C012D57310927338E
:1020F000310510F4865691099093070280930602E9
:10210000C0910602D0910702CC54D109D0930702A6
:10211000C09306028EEA92E00E9420018038910569
:1021200014F08F5F910990930502809304028091CF
:102130000402909105020F97909305028093040288
:10214000BE01DD0F880B990B97FF03C00E94430E61
:1021500003C04AE00E94020E8EE391E00E94F00D5F
:102160006091040270910502072E000C880B990BF8
:1021700097FF03C00E94430E03C04AE00E94020E74
:1021800080E491E00E94F00D20910402309105025C
:1021900031952195310940910602509107025195E0
:1021A000419551096BEF6403E001659FD00D112447
:1021B000D0930B02C0930A0262038001639F100D4B
:1021C00011241093090200930802D7FD2196D5959A
:1021D000C795C80117FD019695958795BE01681BA7
:1021E000790B072E000C880B990B0E942D1226E606
:1021F00036E646E65FE30E9468120E94C0136B0158
:10220000EAE5CE0ED11CD0920F02C0920E0217FF4B
:1022100002C00F5F1F4F15950795C00FD11FBE015C
:10222000DD0F880B990B0E942D1226E636E646E656
:102230005FE30E9468120E94C013EB01C65ADF4F91
:10224000D0930D02C0930C02B60188EE92E00E947A
:10225000C206BE0185EE92E00E94C2060E9499006D
:102260005DCE109214021092130288EE93E0A0E06B
:10227000B0E08093150290931602A0931702B093DA
:1022800018022CE031E0309312022093110225EC69
:1022900030E030931E0220931D0224EC30E0309396
:1022A000200220931F0220EC30E030932202209382
:1022B000210221EC30E0309324022093230222EC0F
:1022C00030E0309326022093250226EC30E0309354
:1022D00028022093270210922A0210922B021092B9
:1022E0002C0210922D021092B1021092B002809333
:1022F000B2029093B302A093B402B093B5028EE100
:1023000091E09093AF028093AE028091DE028C3018
:10231000A0F491E0980F9093DE028093E80290E0A1
:10232000FC01EE0FFF1F8E0F9F1FFC01E654FD4FB7
:1023300088EB9BE09283818303C08FEF8093E80258
:102340008091DE028C30A0F491E0980F9093DE0231
:102350008093E50290E0FC01EE0FFF1F8E0F9F1FA0
:10236000FC01E654FD4F88EB9BE09283818303C020
:102370008FEF8093E50210921C0310923E0510929D
:102380003F0584E680935E051092630580E58093A7
:102390006405109265051092F7021092F8021092EF
:1023A000EE021092ED0288EE93E0A0E0B0E08093A0
:1023B000EF029093F002A093F102B093F20280E357
:1023C00091E09093EC028093EB021092E002109265
:1023D000DF021092E2021092E1021092E4021092E7
:1023E000E30261E070E080E090E00E942915009730
:1023F00089F09093E0028093DF021092E202109243
:10240000E1022091E3023091E402232BC1F4FC01AC
:10241000108215C08091DF029091E002009711F0C8
:102420000E94A0141092E0021092DF021092E402C7
:102430001092E3021092E2021092E10208951092CB
:10244000E4021092E30262E471E08091DF02909175
:10245000E0020C94FD15E89409C097FB3EF49095BA
:102460008095709561957F4F8F4F9F4F9923A9F06D
:10247000F92F96E9BB279395F695879577956795FC
:10248000B795F111F8CFFAF4BB0F11F460FF1BC040
:102490006F5F7F4F8F4F9F4F16C0882311F096E9D3
:1024A00011C0772321F09EE8872F762F05C0662381
:1024B00071F096E8862F70E060E02AF09A95660F3A
:1024C000771F881FDAF7880F9695879597F90895F3
:1024D0000E947B120C94EC120E94DE1238F00E94D3
:1024E000E51220F0952311F00C94D5120C94DB1218
:1024F00011240C9420130E94FD1270F3959FC1F3D8
:10250000950F50E0551F629FF001729FBB27F00DA1
:10251000B11D639FAA27F00DB11DAA1F649F6627F6
:10252000B00DA11D661F829F2227B00DA11D621F45
:10253000739FB00DA11D621F839FA00D611D221FFF
:10254000749F3327A00D611D231F849F600D211DE3
:10255000822F762F6A2F11249F5750409AF0F1F066
:1025600088234AF0EE0FFF1FBB1F661F771F881FCF
:1025700091505040A9F79E3F510580F00C94D51220
:102580000C9420135F3FE4F3983ED4F3869577953F
:102590006795B795F795E7959F5FC1F7FE2B880F75
:1025A000911D9695879597F9089597F99F6780E80B
:1025B00070E060E008959FEF80EC089500240A9495
:1025C0001616170618060906089500240A9412160E
:1025D0001306140605060895092E0394000C11F441
:1025E000882352F0BB0F40F4BF2B11F460FF04C0EE
:1025F0006F5F7F4F8F4F9F4F089557FD9058440F47
:10260000551F59F05F3F71F04795880F97FB991F51
:1026100061F09F3F79F0879508951216130614060E
:10262000551FF2CF4695F1DF08C01616170618069B
:10263000991FF1CF86957105610508940895E89476
:10264000BB2766277727CB0197F90895052E97FBBF
:102650001EF400940E943D1357FD07D00E948F1373
:1026600007FC03D04EF40C943D13509540953095E3
:1026700021953F4F4F4F5F4F0895909580957095EE
:1026800061957F4F8F4F9F4F08950E94B113A59F73
:10269000900DB49F900DA49F800D911D112408955D
:1026A000B7FF0C9445130E944513821B930B0895AA
:1026B0002F923F924F925F926F927F928F929F9252
:1026C000AF92BF92CF92DF92EF92FF920F931F9340
:1026D000CF93DF93CDB7DEB7CA1BDB0B0FB6F894F1
:1026E000DEBF0FBECDBF09942A88398848885F8431
:1026F0006E847D848C849B84AA84B984C884DF80A2
:10270000EE80FD800C811B81AA81B981CE0FD11D85
:102710000FB6F894DEBF0FBECDBFED010895A1E264
:102720001A2EAA1BBB1BFD010DC0AA1FBB1FEE1F4B
:10273000FF1FA217B307E407F50720F0A21BB30B96
:10274000E40BF50B661F771F881F991F1A9469F712
:1027500060957095809590959B01AC01BD01CF016E
:102760000895A29FB001B39FC001A39F700D811D6A
:102770001124911DB29F700D811D1124911D08958A
:102780000E94C7136894B1110C94201308950E94FD
:10279000051388F09F5798F0B92F9927B751B0F0DB
:1027A000E1F0660F771F881F991F1AF0BA95C9F7D5
:1027B00014C0B13091F00E941F13B1E008950C9441
:1027C0001F13672F782F8827B85F39F0B93FCCF3F4
:1027D000869577956795B395D9F73EF49095809552
:1027E000709561957F4F8F4F9F4F0895991B79E0AA
:1027F00004C0991F961708F0961B881F7A95C9F791
:1028000080950895EE0FFF1F0590F491E02D099437
:102810000F931F93CF93DF938230910510F482E0E2
:1028200090E0E0916905F0916A0520E030E0A0E0D9
:10283000B0E0309719F1408151810281138148172E
:102840005907C8F08417950769F4109731F012966C
:102850000C93129713961C9327C00093690510934D
:102860006A0522C02115310519F04217530718F4E3
:102870009A01BD01EF01DF01F801DBCF2115310520
:10288000F9F0281B390B2430310580F48A819B81B3
:102890006115710521F0FB019383828304C090933D
:1028A0006A0580936905FE01329644C0FE01E20F7D
:1028B000F31F8193919322503109398328833AC0C1
:1028C0002091670530916805232B41F42091020186
:1028D0003091030130936805209367052091000132
:1028E000309101012115310541F42DB73EB74091DA
:1028F000040150910501241B350BE0916705F0910F
:102900006805E217F307A0F42E1B3F0B28173907C1
:1029100078F0AC014E5F5F4F2417350748F04E0F3B
:102920005F1F50936805409367058193919302C0A0
:10293000E0E0F0E0CF01DF91CF911F910F9108957A
:10294000CF93DF93009709F481C0FC013297138283
:102950001282A0916905B0916A05109781F42081D7
:102960003181820F931F20916705309168052817E8
:10297000390751F5F0936805E093670567C0ED01ED
:1029800020E030E0CE17DF0740F44A815B819E01F2
:1029900041155105F1F0EA01F5CFD383C28340819F
:1029A0005181840F951FC817D90759F488819981DF
:1029B000840F951F0296918380838A819B819383E4
:1029C00082832115310529F4F0936A05E0936905A6
:1029D0003DC0E901FB83EA8349915991C40FD51F9A
:1029E000EC17FD0761F480819181840F951F029699
:1029F000E90199838883828193819B838A83E0E0C4
:102A0000F0E012968D919C911397009719F0FD01BB
:102A1000DC01F7CF8D919C9111979D012E5F3F4F67
:102A2000820F931F20916705309168052817390799
:102A300069F4309729F410926A051092690502C072
:102A400013821282B0936805A0936705DF91CF913E
:102A50000895A0E0B0E0EFE2F5E10C945C13EC0126
:102A6000009721F4CB010E940814B4C0FC01E60FCA
:102A7000F71F9C0122503109E217F30708F4A8C0A0
:102A8000D9010D911C91119706171707B0F0053069
:102A9000110508F49BC0C80104978617970708F42E
:102AA00095C002501109061B170B019311936D93EA
:102AB0007C93CF010E94A01489C05B01A01AB10AC7
:102AC0004C01800E911EA0916905B0916A05612CA0
:102AD000712CE12CF12C109709F446C08D919C913A
:102AE0001197A815B905B1F56C0142E0C40ED11CCF
:102AF000CA14DB0478F14C018A189B08640142E097
:102B0000C40ED11C1296BC9012971396AC91B5E0EE
:102B1000CB16D10440F0B282A38391828082D90186
:102B20006D937C9309C00E5F1F4F800F911FF901B9
:102B300091838083EB2DFA2FE114F10431F0D7015A
:102B40001396FC93EE93129741C0F0936A05E093BD
:102B500069053CC06816790608F43C017D011296AF
:102B60000D90BC91A02DB7CF80916705909168051D
:102B700088169906E1F466167706C8F4809100017C
:102B800090910101009741F48DB79EB740910401E7
:102B900050910501841B950BE817F907C8F4F093D1
:102BA0006805E0936705F901718360830FC0CB016D
:102BB0000E9408147C01009759F0A801BE010E94F0
:102BC000F415CE010E94A014C70104C0CE0102C0BA
:102BD00080E090E0CDB7DEB7EEE00C94781381E0B2
:102BE00090E0F8940C940416FB01DC0102C0019003
:102BF0000D9241505040D8F70895FB01DC0101903F
:102C00000D920020E1F7089510E0C2E6D0E004C084
:102C1000FE010E9402142196C336D107C9F7F89429
:022C2000FFCFE4
:102C220000006B058000000000000000F709900919
:102C3200BA09440A8D00C909DD09000000006901D2
:102C42003C01B80110013401200111010000000013
:102C5200BE01BB01B801BA0698011102D0013B00C6
:042C62000D0A000057
:00000001FF
