:100000000C9462000C948A000C948A000C948A0070
:100010000C948A000C948A000C948A000C948A0038
:100020000C948A000C948A000C948A000C948A0028
:100030000C948A000C948A000C948A000C948A0018
:100040000C94E9020C948A000C94B9010C948A0077
:100050000C948A000C948A000C948A000C948A00F8
:100060000C948A000C948A000000000024002700F1
:100070002A0000000000250028002B0000000000DE
:1000800023002600290004040404040404040202DA
:100090000202020203030303030301020408102007
:1000A0004080010204081020010204081020000012
:1000B0000007000201000003040600000000000029
:1000C00000009A0211241FBECFEFD4E0DEBFCDBFE7
:1000D00011E0A0E0B1E0EAE8F9E002C005900D927D
:1000E000A431B107D9F711E0A4E1B1E001C01D923C
:1000F000AA3BB107E1F710E0C4ECD0E004C02297BE
:10010000FE010E94BF04C23CD107C9F70E94B4019E
:100110000C94C3040C9400008CE991E040E452E498
:100120006FE070E00E94F6018091C00082608093D1
:10013000C0008CE991E060E071E00E94D10289E0AA
:1001400063E070E00E9493038AE06FE770E00E9432
:1001500093038BE06AEF70E00E9493038CE060E011
:100160000E94EC038CE991E00E945F028F3FD1F383
:10017000282F277020930C01992787FD909573E015
:10018000959587957A95E1F7982F977090930D0143
:1001900080917A00887F892B80937A00923008F0D2
:1001A0004BC0206620937C0080917A00806480930D
:1001B0007A00E2E9F0E0E491F0E0EE0FFF1FE4588E
:1001C000FF4FA591B491E6EAF0E0E491F0E0809170
:1001D000150190E0807E907095958795209117018C
:1001E000282B2093C60080917A0086FDFCCF2091B9
:1001F00079002093150180917A00806480937A00C1
:100200008C9190E08E239F2343E0880F991F4A959D
:10021000E1F722952F70282B2093170180917A0007
:1002200086FDFCCF809179008093150180917A0042
:10023000806480937A00CBCF923099F5206620932A
:100240007C0080917A00806480937A00E2E9F0E09B
:10025000E491F0E0EE0FFF1FE458FF4FA591B49139
:10026000E6EAF0E0E491F0E08C9190E08E239F23A9
:1002700023E0880F991F2A95E1F720911501269513
:10028000282B2093C60080917A0086FDFCCF8091B8
:1002900079008093150180917A00806480937A00C0
:1002A000E3CF206420937C0080917A008064809367
:1002B0007A00E2E9F0E0E491F0E0EE0FFF1FE4588D
:1002C000FF4FA591B491E6EAF0E0649150911601D8
:1002D000909117019295990F907E852F869586951E
:1002E0008695892B80688093C60080917A0086FD70
:1002F000FCCF209178002093140140917900409325
:10030000150180917A00806480937A0030E04295F4
:10031000440F407EC90173E0959587957A95E1F782
:10032000482B40684093C6008C912770307094E051
:10033000220F331F9A95E1F75770522B8623582BC3
:100340005093C60080917A0086FDFCCF80917800A2
:1003500080931601809179008093170180917A0033
:10036000806480937A00B2CF0E9459030E948C006F
:10037000FFCF1F920F920FB60F9211242F933F932E
:100380004F935F936F937F938F939F93AF93BF939D
:10039000EF93FF934091C600E0919801F09199018D
:1003A000CF01019660E870E00E9459049C018091A1
:1003B0009A0190919B012817390739F0E85EFE4FAA
:1003C00040833093990120939801FF91EF91BF9161
:1003D000AF919F918F917F916F915F914F913F91DD
:1003E0002F910F900FBE0F901F901895AF92BF9254
:1003F000CF92DF92EF92FF920F931F93CF93DF93F1
:100400006C017A018B01DC011496AD90BC901597BC
:10041000CB01BA0122E030E040E050E00E948E04BF
:10042000205C3D4B404F5F4FCA01B901A8019701C5
:100430000E948E04C901DA010197A109B109292F8F
:100440003A2F4B2F552747FD5A950196A11DB11DF7
:10045000E5012883E601EE81FF8181508083EA85F2
:10046000FB85208141E050E0CA010E8402C0880F64
:10047000991F0A94E2F7282B2083EA85FB852081C7
:10048000CA010F8402C0880F991F0A94E2F7282B33
:100490002083EA85FB858081088802C0440F551FB0
:1004A0000A94E2F7842B8083DF91CF911F910F9103
:1004B000FF90EF90DF90CF90BF90AF900895CF93D3
:1004C000DF93DC011296ED91FC911397EF01CE576B
:1004D000DF4F48815981E058FF4F80819181E0587A
:1004E000F0408417950719F42FEF3FEF0CC0E40F8D
:1004F000F51F2081CA01019660E870E00E9459044E
:100500009983888330E0C901DF91CF910895FC0180
:10051000A085B18521898C9190E0022E02C095952D
:1005200087950A94E2F780FFF6CF0484F585E02DE5
:100530006083089582E191E090939D0180939C01F6
:1005400088E191E090939F0180939E0185EC90E07B
:100550009093A1018093A00184EC90E09093A3017B
:100560008093A20180EC90E09093A5018093A40178
:1005700081EC90E09093A7018093A60186EC90E037
:100580009093A9018093A80184E08093AA0183E05D
:100590008093AB0187E08093AC0185E08093AD014F
:1005A00008950F931F93CF93DF938C01EB0109C044
:1005B0002196D801ED91FC910190F081E02DC801C8
:1005C000099568816623A1F7DF91CF911F910F9163
:1005D00008951F920F920FB60F9211242F938F93AD
:1005E0009F93AF93BF938091AE019091AF01A09183
:1005F000B001B091B1010196A11DB11D8093AE0172
:100600009093AF01A093B001B093B1018091B2017A
:100610009091B301A091B401B091B5018050904C7C
:10062000AF4FBF4F8093B2019093B301A093B40139
:10063000B093B50127C08091B2019091B301A09110
:10064000B401B091B50180589E43A040B040809362
:10065000B2019093B301A093B401B093B50180911E
:10066000B6019091B701A091B801B091B90101967E
:10067000A11DB11D8093B6019093B701A093B8015D
:10068000B093B9018091B2019091B301A091B401EE
:10069000B091B50181589E43A040B04060F6BF9133
:1006A000AF919F918F912F910F900FBE0F901F9040
:1006B0001895789484B5826084BD84B5816084BDCA
:1006C00085B5826085BD85B5816085BDEEE6F0E0CB
:1006D000808181608083E1E8F0E0808182608083B6
:1006E000808181608083E0E8F0E0808181608083A8
:1006F000E1EBF0E0808184608083E0EBF0E08081DA
:1007000081608083EAE7F0E080818460808380817B
:100710008260808380818160808380818068808323
:100720001092C10008951F93CF93DF93182FEB0110
:1007300061E00E94EC03E12FF0E0E255FF4F84916D
:10074000833051F480918000806880938000D09342
:100750008900C09388003CC0843051F480918000AF
:10076000806280938000D0938B00C0938A0030C059
:10077000813039F4209729F184B5806884BDC7BDE4
:1007800027C0823039F42097E1F084B5806284BDBF
:10079000C8BD1EC0863041F48091B000806880934F
:1007A000B000C093B30014C0873041F48091B00012
:1007B00080628093B000C093B4000AC0C038D105F5
:1007C0001CF4812F60E002C0812F61E00E940C04C4
:1007D000DF91CF911F910895282F30E0C9018656EF
:1007E0009F4FFC0194912A573F4FF9018491882330
:1007F00091F0E82FF0E0EE0FFF1FE859FF4FA591B1
:10080000B491662329F48C91909589238C93089553
:100810008C91892B8C930895482F50E0CA01825502
:100820009F4FFC012491CA0186569F4FFC01949171
:100830004A575F4FFA0134913323D1F1222331F12A
:10084000233021F4809180008F7705C0243031F46B
:10085000809180008F7D8093800018C0213019F432
:1008600084B58F7704C0223021F484B58F7D84BD98
:100870000DC0263021F48091B0008F7705C027305D
:1008800029F48091B0008F7D8093B000E32FF0E0D9
:10089000EE0FFF1FEE58FF4FA591B491662329F488
:1008A0008C91909589238C9308958C91892B8C93AE
:1008B000089597FB092E07260AD077FD04D049D06A
:1008C00006D000201AF4709561957F4F0895F6F7D1
:1008D000909581959F4F0895A1E21A2EAA1BBB1BEC
:1008E000FD010DC0AA1FBB1FEE1FFF1FA217B307FC
:1008F000E407F50720F0A21BB30BE40BF50B661F12
:10090000771F881F991F1A9469F7609570958095D5
:1009100090959B01AC01BD01CF01089597FB092E75
:1009200005260ED057FD04D0D7DF0AD0001C38F4BE
:1009300050954095309521953F4F4F4F5F4F08950B
:10094000F6F790958095709561957F4F8F4F9F4FEB
:100950000895AA1BBB1B51E107C0AA1FBB1FA61706
:10096000B70710F0A61BB70B881F991F5A95A9F758
:1009700080959095BC01CD010895EE0FFF1F059065
:0A098000F491E02D0994F894FFCFE4
:10098A0048656C6C6F20576F726C6400010400003C
:04099A0000008702D0
:00000001FF
