:100000000C9463000C948B000C948B000C948B006C
:100010000C948B000C948B000C948B000C948B0034
:100020000C948B000C948B000C948B000C948B0024
:100030000C948B000C948B000C948B000C948B0014
:100040000C948A050C948B000C9410020C944202C0
:100050000C948B000C948B000C948B000C948B00F4
:100060000C948B000C948B0000000008000201002F
:100070000003040700000000000000000102040863
:100080001020408001020408102001020408102002
:10009000040404040404040402020202020203032E
:1000A00003030303000000002300260029000000D2
:1000B0000000250028002B0000000000240027007D
:1000C0002A00C500720211241FBECFEFD8E0DEBFA8
:1000D000CDBF11E0A0E0B1E0E6E9F0E102C005909B
:1000E0000D92A031B107D9F721E0A0E1B1E001C044
:1000F0001D92AA3DB207E1F710E0C6ECD0E004C0C3
:100100002297FE010E944508C23CD107C9F70E9410
:10011000B6000C9449080C940000089526E040E8CD
:1001200055E260E070E084E391E00E94AE0161E09E
:100130008DE00C948F0661E08DE00E94C80664E6B5
:1001400070E080E090E00E94030660E08DE00E9495
:10015000C8066AE080E191E00E94E504AB01BC01C1
:100160002AE030E084E391E00C94B1030E942B0676
:100170000E948D000E948E00C8EFD0E00E949B007C
:100180002097E1F30E94F800F9CF42E064E080E1BB
:1001900091E00C94C303FC01818D228D90E0805C82
:1001A0009F4F821B91098F7399270895FC01918DB0
:1001B000828D981731F0828DE80FF11D858D90E0CA
:1001C00008958FEF9FEF0895FC01918D828D981710
:1001D00061F0828DDF01A80FB11D5D968C91928D2B
:1001E0009F5F9F73928F90E008958FEF9FEF089528
:1001F00088E692E0892B49F080E090E0892B29F095
:100200000E94680281110C9400000895FC01848D05
:10021000DF01A80FB11DA35ABF4F2C91848D90E030
:1002200001968F739927848FA689B7892C93A0890B
:10023000B1898C9180648C93938D848D981306C0C2
:100240000288F389E02D80818F7D80830895CF938C
:10025000DF93EC01888D8823C9F0EA89FB898081CE
:1002600085FD05C0A889B9898C9186FD0FC00FB6A0
:1002700007FCF5CF808185FFF2CFA889B9898C91E1
:1002800085FFEDCFCE010E940601E7CFDF91CF9130
:100290000895CF92DF92FF920F931F93CF93DF9336
:1002A0001F92CDB7DEB76C01DC015B969C915B972A
:1002B0005C968C915C97981307C05096ED91FC91D9
:1002C0005197808185FD32C0F601038D10E00F5FEC
:1002D0001F4F0F731127F02EF601848DF81211C0F5
:1002E0000FB607FCF9CFD6015096ED91FC915197CE
:1002F000808185FFF1CFC60169830E940601698173
:10030000EBCF838DE80FF11DE35AFF4F6083D601D9
:100310005B960C935B975296ED91FC91539780817D
:100320008062808381E058968C930DC0D6015696EA
:10033000ED91FC91579760835096ED91FC91519708
:1003400080818064808381E090E00F90DF91CF9185
:100350001F910F91FF90DF90CF900895BF92CF92A1
:10036000DF92EF92FF92CF93DF93EC016A017B0162
:10037000B22EE889F98982E08083411581EE580721
:1003800061057105A1F060E079E08DE390E0A701DF
:1003900096010E94210821503109410951095695C1
:1003A000479537952795211580E1380798F0E8891A
:1003B000F989108260E874E88EE190E0A701960167
:1003C0000E9421082150310941095109569547954C
:1003D00037952795EC85FD853083EE85FF85208355
:1003E000188EEC89FD89B082EA89FB898081806161
:1003F0008083EA89FB89808188608083EA89FB8920
:10040000808180688083EA89FB8980818F7D8083F9
:10041000DF91CF91FF90EF90DF90CF90BF90089544
:100420001F920F920FB60F9211242F938F939F93C9
:10043000EF93FF93E0914401F09145018081E091B9
:100440004A01F0914B0182FD12C0908180914D01D3
:100450008F5F8F7320914E01821751F0E0914D0113
:10046000F0E0EC5CFE4F958F80934D0101C08081E0
:10047000FF91EF919F918F912F910F900FBE0F9051
:100480001F9018951F920F920FB60F9211242F9361
:100490003F934F935F936F937F938F939F93AF930C
:1004A000BF93EF93FF9384E391E00E940601FF91D5
:1004B000EF91BF91AF919F918F917F916F915F91DC
:1004C0004F913F912F910F900FBE0F901F90189555
:1004D00084E391E00E94CB0021E0892B09F420E025
:1004E000822F0895109237011092360188EE93E022
:1004F000A0E0B0E08093380190933901A0933A01D5
:10050000B0933B0184E091E09093350180933401F6
:1005100085EC90E0909341018093400184EC90E061
:10052000909343018093420180EC90E090934501C9
:100530008093440181EC90E09093470180934601C1
:1005400082EC90E0909349018093480186EC90E022
:1005500090934B0180934A0110924D0110924E01ED
:1005600010924F01109250010895CF92DF92EF92B6
:10057000FF920F931F93CF93DF936C017A01EB01EE
:10058000E60EF71E00E010E0CE15DF0561F0699180
:10059000D601ED91FC910190F081E02DC601099505
:1005A000080F191FF1CFC801DF91CF911F910F9153
:1005B000FF90EF90DF90CF9008956115710581F065
:1005C000DB010D900020E9F7AD0141505109461BB8
:1005D000570BDC01ED91FC910280F381E02D099431
:1005E00080E090E00895DC01ED91FC910190F081B4
:1005F000E02D09940F931F93CF93DF93EC016DE0EF
:100600000E94F3028C016AE0CE010E94F302800F87
:10061000911FDF91CF911F910F9108958F929F921B
:10062000AF92BF92CF92DF92EF92FF920F931F9300
:10063000CF93DF93CDB7DEB7A1970FB6F894DEBFA7
:100640000FBECDBF7C01C42EE52FCB01D22E19A247
:1006500021E02D1510F02AE0D22E8E010F5D1F4FE4
:100660008D2C912CA12CB12C6C2D7E2FA5019401E9
:100670000E9421088C2DD29E80191124015011094D
:100680008A3014F4805D01C0895CF80180832115F3
:1006900031054105510521F0C22EE32FCA01E4CFF7
:1006A000B801C7010E94DD02A1960FB6F894DEBF23
:1006B0000FBECDBFDF91CF911F910F91FF90EF90B3
:1006C000DF90CF90BF90AF909F908F900895CF9282
:1006D000DF92EF92FF920F931F93CF93DF93EC0182
:1006E0006A017B012115310579F4E881F9810190D6
:1006F000F081E02D642FDF91CF911F910F91FF903A
:10070000EF90DF90CF9009942A303105E9F477FF1C
:100710001AC06DE20E94F3028C0144275527BA01EA
:100720004C195D096E097F092AE0CE010E940E0373
:10073000800F911FDF91CF911F910F91FF90EF904C
:10074000DF90CF9008952AE0B701A601CE01DF9196
:10075000CF911F910F91FF90EF90DF90CF900C946D
:100760000E030F931F93CF93DF93EC010E94670357
:100770008C01CE010E94FA02800F911FDF91CF9170
:100780001F910F9108950F931F93CF93DF93EC0167
:1007900081E090E09983888386E391E09F838E8354
:1007A00000EE15E729E030E0088719872A873B87A4
:1007B00000E21EE420E030E00C871D872E873F8793
:1007C000643120F08FEF9FEF99838883443120F0CC
:1007D0008FEF9FEF99838883262F30E0F901E4584B
:1007E000FF4FE491E88FF901E057FF4F249130E08B
:1007F000220F331FF901E854FF4F659174917A8FEE
:10080000698F22553F4FF901259134913C8F2B8FF1
:10081000842F90E0FC01E458FF4FE491ED8FFC0140
:10082000E057FF4F849190E0880F991FFC01E85436
:10083000FF4F259134913F8F2E8FFC01EC55FF4FD8
:100840002591349139A328A382559F4FFC018591AE
:1008500094919BA38AA3F894E98DFA8D8081988D59
:10086000892B808378944FEF5FEF6FEF7FE04A83AF
:100870005B836C837D830E94D405688B798B8A8B24
:100880009B8BDF91CF911F910F9108950F931F9331
:10089000FC01F894A38DB48D9C91808D8095892363
:1008A0008C93A68DB78D9C91858D809589238C9393
:1008B000A2A1B3A19C91858D809589238C93A68D4F
:1008C000B78D8C91958D892B8C93A68DB78D9C912E
:1008D000858D809589238C93A38DB48D8C91908D7B
:1008E000892B8C937894A0A1B1A1958D8C918923AB
:1008F00044895589668977890085118522853385E4
:10090000811106C0401751076207730708F440C001
:100910000417150726073707C0F1F894A2A1B3A161
:100920008C91958D892B8C93A68DB78D8C91958DFF
:10093000892B8C93A68DB78D9C91858D809589236D
:100940008C93A2A1B3A19C91858D809589238C93D2
:10095000A38DB48D9C91808D809589238C93789400
:10096000A0A1B1A1958D8C9189234489558966896F
:1009700077890085118522853385882391F040177A
:10098000510762077307A8F00CC08EEF9FEF1AC0E3
:100990004F5F5F4F6F4F7F4F448B558B668B778BCD
:1009A000A5CF401751076207730778F781E090E001
:1009B00009C04F5F5F4F6F4F7F4F448B558B668BE6
:1009C000778BD1CF1F910F910895CF92DF92EF9245
:1009D000FF920F931F93CF93DF931F92CDB7DEB794
:1009E0008C01FC01148A158A168A178A662341F045
:1009F0008081918197FF08C06FEF7FEFCB0180C0AE
:100A000060E070E0CB017CC0F12CC80169830E94DA
:100A10004604698197FD5EC0F394F612F6CF0E94FA
:100A2000D405F801C088D188E288F3886C197D0963
:100A30008E099F09C484D584E684F784C616D70638
:100A4000E806F90648F5C488D588E688F788628103
:100A5000738184819581C616D706E806F90629F0C8
:100A6000C61AD70AE80AF90A03C0C12CD12C7601AC
:100A70000E9430072DEC3CEC4CEC5DE30E94BE077D
:100A80000E94FF06AB01662757FD6095762FC416BE
:100A9000D506E606F70618F1F80184899589A68936
:100AA000B789C280D380E480F5808C159D05AE05A2
:100AB000BF0520F482839383A483B583F801C280A9
:100AC000D380E480F580BC01CD016C197D098E09CD
:100AD0009F0916C06EEF7FEF8FEF9FEF11C04FEFB2
:100AE0005FEF6FEF7FE0F801428353836483758388
:100AF0000E94D405F801608B718B828B938BCCCFD5
:100B00000F90DF91CF911F910F91FF90EF90DF90A9
:100B1000CF9008951F920F920FB60F9211242F932A
:100B20003F938F939F93AF93BF938091D201909106
:100B3000D301A091D401B091D5013091D10123E02E
:100B4000230F2D3720F40196A11DB11D05C026E805
:100B5000230F0296A11DB11D2093D1018093D201D4
:100B60009093D301A093D401B093D5018091D60185
:100B70009091D701A091D801B091D9010196A11D02
:100B8000B11D8093D6019093D701A093D801B09363
:100B9000D901BF91AF919F918F913F912F910F906C
:100BA0000FBE0F901F9018952FB7F8946091D20147
:100BB0007091D3018091D4019091D5012FBF0895F8
:100BC0003FB7F8948091D6019091D701A091D801B8
:100BD000B091D90126B5A89B05C02F3F19F0019609
:100BE000A11DB11D3FBF6627782F892F9A2F620F55
:100BF000711D811D911D42E0660F771F881F991F8F
:100C00004A95D1F70895CF92DF92EF92FF92CF935A
:100C1000DF936B017C010E94E005EB01C114D1045C
:100C2000E104F10489F00E94FE060E94E0056C1BBD
:100C30007D0B683E734090F381E0C81AD108E1084B
:100C4000F108C851DC4FEACFDF91CF91FF90EF90D0
:100C5000DF90CF900895789484B5826084BD84B588
:100C6000816084BD85B5826085BD85B5816085BDA7
:100C7000EEE6F0E0808181608083E1E8F0E01082C0
:100C8000808182608083808181608083E0E8F0E001
:100C9000808181608083E1EBF0E0808184608083EB
:100CA000E0EBF0E0808181608083EAE7F0E0808122
:100CB0008460808380818260808380818160808382
:100CC0008081806880831092C1000895833081F014
:100CD00028F4813099F08230A1F008958730A9F08E
:100CE0008830B9F08430D1F4809180008F7D03C0CA
:100CF000809180008F7780938000089584B58F77EE
:100D000002C084B58F7D84BD08958091B0008F7737
:100D100003C08091B0008F7D8093B0000895CF9381
:100D2000DF9390E0FC01E458FF4F2491FC01E05771
:100D3000FF4F8491882349F190E0880F991FFC01AF
:100D4000E854FF4FA591B49182559F4FFC01C59186
:100D5000D4919FB7611108C0F8948C91209582239B
:100D60008C93888182230AC0623051F4F8948C916C
:100D7000322F309583238C938881822B888304C003
:100D8000F8948C91822B8C939FBFDF91CF91089523
:100D90000F931F93CF93DF931F92CDB7DEB7282F0A
:100DA00030E0F901E859FF4F8491F901E458FF4F11
:100DB0001491F901E057FF4F04910023C9F08823F3
:100DC00021F069830E9466066981E02FF0E0EE0F52
:100DD000FF1FE255FF4FA591B4919FB7F8948C91F6
:100DE000611103C01095812301C0812B8C939FBF9B
:100DF0000F90DF91CF911F910F910895089504D026
:100E00006894B111B5C0089598D088F09F5790F0BC
:100E1000B92F9927B751A0F0D1F0660F771F881F1F
:100E2000991F1AF0BA95C9F712C0B13081F09FD05E
:100E3000B1E008959CC0672F782F8827B85F39F0FC
:100E4000B93FCCF3869577956795B395D9F73EF47E
:100E500090958095709561957F4F8F4F9F4F089526
:100E6000E89409C097FB3EF4909580957095619544
:100E70007F4F8F4F9F4F9923A9F0F92F96E9BB27FA
:100E80009395F695879577956795B795F111F8CF76
:100E9000FAF4BB0F11F460FF1BC06F5F7F4F8F4FE1
:100EA0009F4F16C0882311F096E911C0772321F0D7
:100EB0009EE8872F762F05C0662371F096E8862F6F
:100EC00070E060E02AF09A95660F771F881FDAF7C6
:100ED000880F9695879597F9089597F99F6780E809
:100EE00070E060E008959FEF80EC089500240A947C
:100EF0001616170618060906089500240A941216F5
:100F00001306140605060895092E0394000C11F427
:100F1000882352F0BB0F40F4BF2B11F460FF04C0D4
:100F20006F5F7F4F8F4F9F4F089557FD9058440F2D
:100F3000551F59F05F3F71F04795880F97FB991F38
:100F400061F09F3F79F087950895121613061406F5
:100F5000551FF2CF4695F1DF08C016161706180682
:100F6000991FF1CF86957105610508940895E8945D
:100F7000BB2766277727CB0197F908950BD0C4CFFD
:100F8000B5DF28F0BADF18F0952309F0A6CFABCF74
:100F90001124EECFCADFA0F3959FD1F3950F50E057
:100FA000551F629FF001729FBB27F00DB11D639F1B
:100FB000AA27F00DB11DAA1F649F6627B00DA11DC1
:100FC000661F829F2227B00DA11D621F739FB00D67
:100FD000A11D621F839FA00D611D221F749F3327D7
:100FE000A00D611D231F849F600D211D822F762F70
:100FF0006A2F11249F5750408AF0E1F088234AF06D
:10100000EE0FFF1FBB1F661F771F881F91505040B8
:10101000A9F79E3F510570F060CFAACF5F3FECF378
:10102000983EDCF3869577956795B795F795E795A4
:101030009F5FC1F7FE2B880F911D9695879597F9B5
:101040000895A1E21A2EAA1BBB1BFD010DC0AA1F09
:10105000BB1FEE1FFF1FA217B307E407F50720F021
:10106000A21BB30BE40BF50B661F771F881F991F9C
:101070001A9469F760957095809590959B01AC01E5
:10108000BD01CF010895EE0FFF1F0590F491E02DF3
:061090000994F894FFCF63
:10109600000000004901B502CB00E400D60027019C
:00000001FF
