:100000000C9462000C948A000C948A000C948A0070
:100010000C948A000C948A000C948A000C948A0038
:100020000C948A000C948A000C948A000C948A0028
:100030000C948A000C948A000C948A000C948A0018
:100040000C94B7020C948A000C9485020C945F0205
:100050000C948A000C948A000C948A000C948A00F8
:100060000C948A000C948A000000000024002700F1
:100070002A0000000000250028002B0000000008D6
:10008000000201000003040700000000000000005F
:1000900000000000230026002900040404040404D6
:1000A0000404020202020202030303030303010227
:1000B00004081020408001020408102001020408F6
:1000C0001020010311241FBECFEFD8E0DEBFCDBF4B
:1000D00011E0A0E0B1E0E2EEFCE002C005900D927C
:1000E000A433B107D9F722E0A4E3B1E001C01D9227
:1000F000A230B207E1F710E0C2E6D0E004C02197D9
:10010000FE010E946406C136D107C9F70E940904A6
:100110000C946F060C940000CF92DF92EF92FF9246
:100120000F931F93CF93DF936C017A018B01C0E093
:10013000D0E0CE15DF0581F0D8016D918D01D6019B
:10014000ED91FC910190F081E02DC6010995892B7C
:1001500011F02196EECF7E01C701DF91CF911F9163
:100160000F91FF90EF90DF90CF900895089580E079
:1001700090E00895FC01538D448D252F30E0842FAD
:1001800090E0821B930B541710F0CF9608950197BF
:100190000895FC01918D828D981761F0828DDF01A9
:1001A000A80FB11D5D968C91928D9F5F9F73928F6A
:1001B00090E008958FEF9FEF0895FC01918D828D5F
:1001C000981731F0828DE80FF11D858D90E008952C
:1001D0008FEF9FEF0895FC01918D228D892F90E084
:1001E000805C9F4F821B91098F73992708958DE33F
:1001F00091E00E94EB0021E0892B09F420E0822F9E
:100200000895FC01848DDF01A80FB11DA35ABF4FD3
:100210002C91848D90E001968F739927848FA68905
:10022000B7892C93A089B1898C91837080648C9359
:10023000938D848D981306C00288F389E02D808108
:100240008F7D80830895EF92FF920F931F93CF933A
:10025000DF93EC0181E0888F9B8D8C8D981305C016
:10026000E889F989808185FD26C0F62E0B8D10E086
:100270000F5F1F4F0F731127E02E8C8DE8120CC0FB
:100280000FB607FCFACFE889F989808185FFF5CFA1
:10029000CE010E940101F1CF8B8DFE01E80FF11D0F
:1002A000E35AFF4FF0829FB7F8940B8FEA89FB89DE
:1002B000808180620AC09FB7F894EE89FF896083CD
:1002C000E889F98980818370806480839FBF81E0A1
:1002D00090E0DF91CF911F910F91FF90EF900895E3
:1002E000CF93DF93EC01888D8823C9F0EA89FB89DD
:1002F000808185FD05C0A889B9898C9186FD0FC0D4
:100300000FB607FCF5CF808185FFF2CFA889B989A8
:100310008C9185FFEDCFCE010E940101E7CFDF91E7
:10032000CF91089580E090E0892B29F00E94F7009A
:1003300081110C9400000895CF93DF9390E0FC01AD
:10034000E255FF4F2491FC01E656FF4F849188232C
:1003500061F190E0880F991FFC01E859FF4FC591AA
:10036000D491FC01EE58FF4FA591B491611109C0E1
:100370009FB7F8948881209582238883EC912E235F
:100380000BC0623061F49FB7F8948881322F3095AA
:1003900083238883EC912E2B2C939FBF06C08FB7AD
:1003A000F894E8812E2B28838FBFDF91CF91089599
:1003B000009769F0FC0101900020E9F73197AF0147
:1003C000481B590BBC018DE391E00C948C0080E03C
:1003D00090E008958F929F92AF92BF92CF92DF925A
:1003E000EF92FF920F931F93CF93DF93CDB7DEB7BA
:1003F000A1970FB6F894DEBF0FBECDBF6B017C0195
:1004000097FF2BC06DE28DE391E00E9423018C01E8
:1004100022273327A9012C193D094E095F0919A28A
:10042000CE0181967C019AE0892E912CA12CB12CD1
:10043000CA01B901A50194010E942C06605DF70173
:1004400062937F01211531054105510589F7CF01DF
:100450000E94D801800F911F1DC09B01AC0119A201
:100460008E010F5D1F4F8AE0C82ED12CE12CF12C9C
:10047000CA01B901A70196010E942C06605DF8012E
:1004800062938F01211531054105510589F7CF018F
:100490000E94D801A1960FB6F894DEBF0FBECDBF63
:1004A000DF91CF911F910F91FF90EF90DF90CF9050
:1004B000BF90AF909F908F9008950E946A061F9200
:1004C0000F920FB60F9211242F933F934F935F9388
:1004D0006F937F938F939F93AF93BF93EF93FF930C
:1004E0008DE391E00E940101FF91EF91BF91AF91E7
:1004F0009F918F917F916F915F914F913F912F913C
:100500000F900FBE0F901F9018951F920F920FB66D
:100510000F9211242F938F939F93EF93FF93E0916A
:100520004D01F0914E018081E0915301F091540111
:1005300082FD12C09081809156018F5F8F73209150
:100540005701821751F0E0915601F0E0E35CFE4F55
:10055000958F8093560101C08081FF91EF919F910B
:100560008F912F910F900FBE0F901F9018951F9293
:100570000F920FB60F9211242F933F938F939F9357
:10058000AF93BF938091DA019091DB01A091DC01E0
:10059000B091DD013091380123E0230F2D3720F495
:1005A0000196A11DB11D05C026E8230F0296A11DCD
:1005B000B11D209338018093DA019093DB01A09361
:1005C000DC01B093DD018091340190913501A0915F
:1005D0003601B09137010196A11DB11D8093340100
:1005E00090933501A0933601B0933701BF91AF913D
:1005F0009F918F913F912F910F900FBE0F901F9061
:1006000018951092400110923F0188EE93E0A0E00F
:10061000B0E08093410190934201A0934301B093D5
:10062000440186E091E090933E0180933D0185EC8A
:1006300090E090934A018093490184EC90E090937C
:100640004C0180934B0180EC90E090934E0180939D
:100650004D0181EC90E09093500180934F0182EC2A
:1006600090E0909352018093510186EC90E090933A
:100670005401809353011092560110925701109229
:1006800058011092590183E090E09093FD0180930E
:10069000FC0186E090E09093FF018093FE0189E0E9
:1006A00090E0909301028093000281E090E09093AB
:1006B000DF018093DE0186E391E09093E501809372
:1006C000E40180EE95E7A9E0B0E08093E601909325
:1006D000E701A093E801B093E90180E29EE4A0E085
:1006E000B0E08093EA019093EB01A093EC01B0930A
:1006F000ED0161E084E00E949C0160E087E00E94DF
:100700009C01E0E8F0E08491E2EBF0E09491EEE906
:10071000F0E0E491EE23B9F1882339F1833091F0D0
:1007200038F48130A9F0823001F584B58F7D12C094
:10073000873091F08830A1F08430B9F48091800046
:100740008F7D03C0809180008F77809380000DC0E3
:1007500084B58F7784BD09C08091B0008F7703C0C6
:100760008091B0008F7D8093B000F0E0EE0FFF1F0E
:10077000EE58FF4FA591B4912FB7F8948C919095B6
:1007800098239C932FBFE2EBF0E0E491E093F60115
:10079000EEE9F0E0E491F0E0EE0FFF1FE057FF4FCD
:1007A000859194919093F8018093F701E5EBF0E047
:1007B000E491E093F901E1EAF0E0E491F0E0EE0F7A
:1007C000FF1FE057FF4F859194919093FB01809319
:1007D000FA018FEF9FEFAFEFBFE08093E0019093BE
:1007E000E101A093E201B093E3012FB7F894809167
:1007F000DA019091DB01A091DC01B091DD012FBF06
:100800008093EE019093EF01A093F001B093F1017A
:100810000895789484B5826084BD84B5816084BD78
:1008200085B5826085BD85B5816085BD80916E008E
:10083000816080936E0010928100809181008260BF
:1008400080938100809181008160809381008091FC
:1008500080008160809380008091B10084608093EB
:10086000B1008091B00081608093B00080917A00E7
:10087000846080937A0080917A00826080937A000D
:1008800080917A00816080937A0080917A008068FC
:1008900080937A001092C100E0914D01F0914E01D9
:1008A00082E08083E0914901F0914A011082E09159
:1008B0004B01F0914C018FEC808310925501E09137
:1008C0005101F091520186E08083E0914F01F09157
:1008D0005001808180618083E0914F01F09150014F
:1008E000808188608083E0914F01F0915001808188
:1008F00080688083E0914F01F091500180818F7D6D
:10090000808361E08DE00E949C0161E082E00E94B2
:100910009C01CCEFD1E002E012E08881229661E0F8
:100920000E949C010C171D07C1F710E4CC24CA9447
:1009300083E0D82EE12CF12CC3E2D0E010937C00B0
:1009400080917A00806480937A0080917A0086FD9D
:10095000FCCFA091780080917900B0E0B82BB093E3
:100960003C01A0933B012CEB34E30E945D06A70100
:1009700096010E940D06DA01C90184529A4FAF4FC9
:10098000BF4F90930101809300011092F2011092E9
:10099000F3011092F4011092F5018091DE01909123
:1009A000DF0197FD80C024E6F894E091F701F09113
:1009B000F80192818091F601809589238283E091EC
:1009C000FA01F091FB0191818091F90180958923D1
:1009D0008183E091FA01F091FB0192818091F9010C
:1009E000809589238283E091FA01F091FB01918146
:1009F0008091F901892B8183E091FA01F091FB014B
:100A000092818091F901809589238283CE0101979B
:100A1000F1F7E091FA01F091FB0191818091F901E8
:100A2000809589238183E091FA01F091FB01928105
:100A30008091F901809589238283E091F701F091FB
:100A4000F80192818091F601892B82837894E0915C
:100A5000FA01F091FB010091F9014091E6015091FA
:100A6000E7016091E8017091E901308130238091C4
:100A7000F2019091F301A091F401B091F5013111CF
:100A800053C084179507A607B70708F04DC0019615
:100A9000A11DB11D8093F2019093F301A093F40185
:100AA000B093F501E2CF2FEF8FEF422F582F5093E5
:100AB0003A014093390184E191E00E94D8016091AC
:100AC0003B0170913C01072E000C880B990B0E9492
:100AD000EA018AE191E00E94D8018CE191E00E9454
:100AE000D8016091000170910101072E000C880B64
:100AF000990B0E94EA018AE191E00E94D80188E204
:100B000091E00E94D8016091390170913A01072E5D
:100B1000000C880B990B0E94EA0181E391E00E948E
:100B2000D8010E9492010ACF481759076A077B072C
:100B300008F46BC0F894E091FA01F091FB01928106
:100B40008091F901892B8283E091FA01F091FB01F8
:100B500091818091F901892B8183E091FA01F091D3
:100B6000FB0192818091F901892B8283E091FA0146
:100B7000F091FB0191818091F90180958923818316
:100B8000E091FA01F091FB0192818091F901809549
:100B900089238283E091F701F091F801928180919D
:100BA000F6018095892382837894E091FA01F0918F
:100BB000FB010091F9014091E6015091E70160913C
:100BC000E8017091E901308130238091F201909128
:100BD000F301A091F401B091F501332389F084175A
:100BE0009507A607B70760F40196A11DB11D809374
:100BF000F2019093F301A093F401B093F501E3CFD8
:100C000084179507A607B70710F02EEF4DCF215098
:100C100009F0CACE282F892F48CF052E97FB1EF446
:100C200000940E94240657FD07D00E942C0607FC62
:100C300003D04EF40C9424065095409530952195A0
:100C40003F4F4F4F5F4F08959095809570956195F8
:100C50007F4F8F4F9F4F0895A1E21A2EAA1BBB1BF7
:100C6000FD010DC0AA1FBB1FEE1FFF1FA217B30778
:100C7000E407F50720F0A21BB30BE40BF50B661F8E
:100C8000771F881F991F1A9469F760957095809552
:100C900090959B01AC01BD01CF010895A29FB001C9
:100CA000B39FC001A39F700D811D1124911DB29FA0
:100CB000700D811D1124911D08950E944E06B7FFED
:100CC0000895821B930B0895EE0FFF1F0590F4917A
:100CD000E02D099481E090E0F8940C946F06F8946C
:020CE000FFCF44
:100CE200C8190000000023018C00BA007001EB005B
:100CF200C900DD00506F743A200009005468726523
:100D020073686F6C643A200053656E736F723A2099
:040D1200000D0A00C6
:00000001FF
