:100000000C9462000C948A000C948A000C948A0070
:100010000C948A000C948A000C948A000C948A0038
:100020000C948A000C948A000C948A000C948A0028
:100030000C948A000C948A000C948A000C948A0018
:100040000C946F030C948A000C943D030C941703DA
:100050000C948A000C948A000C948A000C948A00F8
:100060000C948A000C948A000000000024002700F1
:100070002A0000000000250028002B0000000008D6
:10008000000201000003040700000000000000005F
:1000900000000000230026002900040404040404D6
:1000A0000404020202020202030303030303010227
:1000B00004081020408001020408102001020408F6
:1000C0001020B90311241FBECFEFD8E0DEBFCDBF93
:1000D00011E0A0E0B1E0EAEEF1E102C005900D927E
:1000E000A434B107D9F722E0A4E4B1E001C01D9225
:1000F000AB32B207E1F710E0C2E6D0E004C02197CE
:10010000FE010E94E808C136D107C9F70E944C04DD
:100110000C94F3080C940000CF92DF92EF92FF92C0
:100120000F931F93CF93DF936C017A018B01C0E093
:10013000D0E0CE15DF0581F0D8016D918D01D6019B
:10014000ED91FC910190F081E02DC6010995892B7C
:1001500011F02196EECF7E01C701DF91CF911F9163
:100160000F91FF90EF90DF90CF900895089580E079
:1001700090E00895FC01538D448D252F30E0842FAD
:1001800090E0821B930B541710F0CF9608950197BF
:100190000895FC01918D828D981761F0828DDF01A9
:1001A000A80FB11D5D968C91928D9F5F9F73928F6A
:1001B00090E008958FEF9FEF0895FC01918D828D5F
:1001C000981731F0828DE80FF11D858D90E008952C
:1001D0008FEF9FEF0895FC01918D228D892F90E084
:1001E000805C9F4F821B91098F73992708958AE63F
:1001F00091E00E94EB0021E0892B09F420E0822F9E
:100200000895FC01848DDF01A80FB11DA35ABF4FD3
:100210002C91848D90E001968F739927848FA68905
:10022000B7892C93A089B1898C91837080648C9359
:10023000938D848D981306C00288F389E02D808108
:100240008F7D80830895EF92FF920F931F93CF933A
:10025000DF93EC0181E0888F9B8D8C8D981305C016
:10026000E889F989808185FD26C0F62E0B8D10E086
:100270000F5F1F4F0F731127E02E8C8DE8120CC0FB
:100280000FB607FCFACFE889F989808185FFF5CFA1
:10029000CE010E940101F1CF8B8DFE01E80FF11D0F
:1002A000E35AFF4FF0829FB7F8940B8FEA89FB89DE
:1002B000808180620AC09FB7F894EE89FF896083CD
:1002C000E889F98980818370806480839FBF81E0A1
:1002D00090E0DF91CF911F910F91FF90EF900895E3
:1002E000CF93DF93EC01888D8823C9F0EA89FB89DD
:1002F000808185FD05C0A889B9898C9186FD0FC0D4
:100300000FB607FCF5CF808185FFF2CFA889B989A8
:100310008C9185FFEDCFCE010E940101E7CFDF91E7
:10032000CF91089580E090E0892B29F00E94F7009A
:1003300081110C940000089590E0FC01E458FF4FF7
:100340002491FC01E255FF4F3491FC01E656FF4F2A
:10035000E491EE2309F43CC0222339F1233091F0DB
:1003600038F42130A9F0223001F584B58F7D12C018
:10037000273091F02830A1F02430B9F4809180002A
:100380008F7D03C0809180008F77809380000DC0A7
:1003900084B58F7784BD09C08091B0008F7703C08A
:1003A0008091B0008F7D8093B000F0E0EE0FFF1FD2
:1003B000EE58FF4FA591B4919FB7F894611104C016
:1003C0008C913095382302C0EC913E2B3C939FBF1B
:1003D0000895CF93DF9390E0FC01E255FF4F249105
:1003E000FC01E656FF4F8491882361F190E0880F6D
:1003F000991FFC01E859FF4FC591D491FC01EE58BB
:10040000FF4FA591B491611109C09FB7F8948881FD
:10041000209582238883EC912E230BC0623061F4F7
:100420009FB7F8948881322F309583238883EC918D
:100430002E2B2C939FBF06C08FB7F894E8812E2BEC
:1004400028838FBFDF91CF9108951F93CF93DF93C0
:10045000182FEB0161E00E94E901209711F460E0A0
:1004600004C0CF3FD10539F461E0812FDF91CF91F6
:100470001F910C949C01E12FF0E0E458FF4FE491B0
:10048000E330F9F048F4E130B9F0E230A1F584B599
:10049000806284BDC8BD34C0E730E9F0E83019F1AE
:1004A000E43049F580918000806280938000D09391
:1004B0008B00C0938A0024C084B5806884BDC7BD0A
:1004C0001FC080918000806880938000D093890055
:1004D000C093880015C08091B00080688093B00000
:1004E000C093B3000DC08091B00080628093B000D3
:1004F000C093B40005C0C038D1050CF0B5CFAFCF64
:10050000DF91CF911F9108952FB7F8946091490121
:1005100070914A0180914B0190914C012FBF089539
:10052000009769F0FC0101900020E9F73197AF01D5
:10053000481B590BBC018AE691E00C948C0080E0CA
:1005400090E008958F929F92AF92BF92CF92DF92E8
:10055000EF92FF920F931F93CF93DF93CDB7DEB748
:10056000A1970FB6F894DEBF0FBECDBF6B017C0123
:1005700097FF2BC06DE28AE691E00E9423018C0177
:1005800022273327A9012C193D094E095F0919A219
:10059000CE0181967C019AE0892E912CA12CB12C60
:1005A000CA01B901A50194010E94B008605DF7017C
:1005B00062937F01211531054105510589F7CF016E
:1005C0000E949002800F911F1DC09B01AC0119A2D7
:1005D0008E010F5D1F4F8AE0C82ED12CE12CF12C2B
:1005E000CA01B901A70196010E94B008605DF80137
:1005F00062938F01211531054105510589F7CF011E
:100600000E949002A1960FB6F894DEBF0FBECDBF38
:10061000DF91CF911F910F91FF90EF90DF90CF90DE
:10062000BF90AF909F908F9008950E94EE081F9208
:100630000F920FB60F9211242F933F934F935F9316
:100640006F937F938F939F93AF93BF93EF93FF939A
:100650008AE691E00E940101FF91EF91BF91AF9175
:100660009F918F917F916F915F914F913F912F91CA
:100670000F900FBE0F901F9018951F920F920FB6FC
:100680000F9211242F938F939F93EF93FF93E091F9
:100690007A01F0917B018081E0918001F0918101EC
:1006A00082FD12C09081809183018F5F8F732091B2
:1006B0008401821751F0E0918301F0E0E659FE4F8A
:1006C000958F8093830101C08081FF91EF919F916D
:1006D0008F912F910F900FBE0F901F9018951F9222
:1006E0000F920FB60F9211242F933F938F939F93E6
:1006F000AF93BF938091490190914A01A0914B0122
:10070000B0914C013091480123E0230F2D3720F4A4
:100710000196A11DB11D05C026E8230F0296A11D5B
:10072000B11D209348018093490190934A01A09301
:100730004B01B0934C018091440190914501A091EF
:100740004601B09147010196A11DB11D809344015E
:1007500090934501A0934601B0934701BF91AF919B
:100760009F918F913F912F910F900FBE0F901F90EF
:100770001895CF93DF93EAE6F1E01382128288EEB8
:1007800093E0A0E0B0E084839583A683B7838CE0F8
:1007900091E09183808385EC90E09587848784EC59
:1007A00090E09787868780EC90E0918B808B81EC3E
:1007B00090E0938B828B82EC90E0958B848B86EC1F
:1007C00090E0978B868B118E128E138E148EE5E23D
:1007D000F2E083E090E09183808386E090E0938371
:1007E000828389E090E095838483C7E0D2E081E052
:1007F00090E09983888386E391E09F838E8380EEE7
:1008000095E7A9E0B0E088879987AA87BB8780E24F
:100810009EE4A0E0B0E08C879D87AE87BF8761E053
:1008200084E00E94E90160E087E00E94E90160E065
:1008300084E00E949C01E2EBF0E0E491E88FEEE9B5
:10084000F0E0E491F0E0EE0FFF1FE057FF4F8591DD
:1008500094919A8F898FE5EBF0E0E491EB8FE1EAD8
:10086000F0E0E491F0E0EE0FFF1FE057FF4F8591BD
:1008700094919D8F8C8F8FEF9FEFAFEFBFE08A83B6
:100880009B83AC83BD830E948402688B798B8A8BA7
:100890009B8BDF91CF910895789484B5826084BD5D
:1008A00084B5816084BD85B5826085BD85B5816074
:1008B00085BD80916E00816080936E0010928100F2
:1008C00080918100826080938100809181008160AD
:1008D000809381008091800081608093800080916E
:1008E000B10084608093B1008091B00081608093FA
:1008F000B00080917A00846080937A0080917A00C1
:10090000826080937A0080917A00816080937A007F
:1009100080917A00806880937A001092C100E09103
:100920007A01F0917B0182E08083E0917601F09181
:1009300077011082E0917801F09179018FEC80834A
:1009400010928201E0917E01F0917F0186E0808328
:10095000E0917C01F0917D01808180618083E09154
:100960007C01F0917D01808188608083E0917C0131
:10097000F0917D01808180688083E0917C01F0911D
:100980007D0180818F7D808361E08DE00E94E9019F
:1009900061E082E00E94E90161E08DE00E949C013B
:1009A00060E082E00E949C015BE2252E52E0352E41
:1009B000C5E2D2E08881229661E00E94E9012C160E
:1009C0003D06C1F70E948402609351017093520169
:1009D00080935301909354010E94840260934D01CF
:1009E00070934E0180934F019093500144244A9498
:1009F00033E0532E612C712C46E0842E912CA12CD7
:100A0000B12CCFEFD0E020E420937C0080917A00DD
:100A1000806480937A0080917A0086FDFCCF0091FB
:100A200078008091790010E0182B10935D010093FD
:100A30005C01C80102978C3F934010F060E001C058
:100A400061E08DE00E949C012CEB34E3D8010E9410
:100A5000E108A30192010E947E08DA01C9018452D3
:100A60009A4FAF4FBF4F90930301809302012055DF
:100A70003B4F309301012093000110921B02109212
:100A80001C0210921D0210921E028091070290918A
:100A9000080297FD81C024E6F894E0912002F091CD
:100AA0002102928180911F02809589238283E091A7
:100AB0002302F09124029181809122028095892362
:100AC0008183E0912302F09124029281809122029D
:100AD000809589238283E0912302F0912402918101
:100AE00080912202892B8183E0912302F0912402DC
:100AF00092818091220280958923828383E290E013
:100B00000197F1F7E0912302F09124029181809105
:100B10002202809589238183E0912302F0912402AF
:100B2000928180912202809589238283E091200224
:100B3000F0912102928180911F02892B8283789407
:100B4000E0912302F09124023091220240910F02A1
:100B500050911002609111027091120210811323C2
:100B600080911B0290911C02A0911D02B0911E0267
:100B7000111165C184179507A607B70708F05FC173
:100B80000196A11DB11D80931B0290931C02A0939E
:100B90001D02B0931E02E2CF8FEF9FEFDC01809326
:100BA000660190936701A0936801B0936901209159
:100BB000020130910301A901330F660B770B48172F
:100BC00059076A077B072CF520916501211121C087
:100BD00081E08093650105E212E0F80180810E5FFB
:100BE0001F4F60E00E949C0120163106B1F7609112
:100BF000640181E068276093640182E00E949C01A7
:100C00008AE191E00E94900284E291E00E949002C9
:100C100028C02091000130910101A901330F660B1A
:100C2000770B84179507A607B707DCF48091650159
:100C30008823B9F0109265010EE511E025E2E22E5D
:100C400022E0F22EF801619171918F01F70180810C
:100C5000F2E0EF0EF11C0E94250221E0043612079B
:100C600089F720915E0130915F018091560190914A
:100C70005701409155012817390731F5209160013E
:100C800030916101809158019091590128173907DD
:100C9000D9F4209162013091630180915A019091C1
:100CA0005B012817390781F441110EC00E948402AC
:100CB00060935101709352018093530190935401BA
:100CC00081E0809355012DC0442359F10E94840294
:100CD0000091510110915201209153013091540122
:100CE000DC01CB01801B910BA20BB30B8938934124
:100CF000A105B10508F01DC114C0633071050CF0E9
:100D00004FC16115710509F036C1D0935701C093E9
:100D10005601109259011092580110925B011092E5
:100D20005A010E94840200914D0110914E012091C0
:100D30004F0130915001DC01CB01801B910BA20BC4
:100D4000B30B85369105A105B105C8F587E291E0A1
:100D50000E94900260915C0170915D01072E000C71
:100D6000880B990B0E94A2028DE291E00E949002F2
:100D70008FE291E00E949002609102017091030164
:100D8000072E000C880B990B0E94A2028DE291E0C5
:100D90000E9490028BE391E00E94900260916601B4
:100DA0007091670180916801909169010E94A2028F
:100DB00084E291E00E9490020E94920124CE0E945F
:100DC000840260934D0170934E0180934F01909384
:100DD00050010EE511E086E5C82E81E0D82E95E29F
:100DE000E92E92E0F92EF80180819181F60121919E
:100DF00031916F012817390714F4019704C0821745
:100E0000930724F40196F801918380838091650112
:100E1000811104C0F8016081718102C060E070E05E
:100E2000F70180810E9425020E5F1F4FF2E0EF0E56
:100E3000F11C84E691E080179107A9F687CF481747
:100E400059076A077B0708F46FC0F894E091230202
:100E5000F0912402928180912202892B8283E09179
:100E60002302F0912402918180912202892B8183B7
:100E7000E0912302F0912402928180912202892B39
:100E80008283E0912302F0912402918180912202D9
:100E9000809589238183E0912302F091240292813D
:100EA00080912202809589238283E0912002F09133
:100EB0002102928180911F028095892382837894F8
:100EC000E0912302F09124023091220240910F021E
:100ED000509110026091110270911202108113233F
:100EE00080911B0290911C02A0911D02B0911E02E4
:100EF000112389F084179507A607B70760F40196B8
:100F0000A11DB11D80931B0290931C02A0931D0292
:100F1000B0931E02E3CF84179507A607B70720F406
:100F2000215009F0B9CD3BCE8EEF9FEFAFEFBFEF71
:100F300036CE109255010E942708A50194010E9407
:100F40007E086230710509F0D8CE109257011092D8
:100F5000560108C06530710509F0E3CED093570102
:100F6000C09356011092590110925801D0935B0121
:100F7000C0935A01D6CE6130710509F0D2CE1092DD
:100F800057011092560107C0643071051CF7D093C9
:100F90005701C0935601D0935901C0935801BDCE5B
:100FA0006430710589F71092570110925601D09361
:100FB0005901C0935801DACF8F929F92AF92BF929E
:100FC000CF92DF92EF92FF92CF93DF93EC01688193
:100FD00079818A819B81611571058105910521F4D3
:100FE00064E279ED8BE597E02DE133EF41E050E0ED
:100FF0000E947E0849015A019B01AC01A7EAB1E4B5
:101000000E949D086B017C01ACEEB4EFA501940138
:101010000E94AB08DC01CB018C0D9D1DAE1DBF1DD8
:10102000B7FF03C00197A109B04888839983AA83B9
:10103000BB83BC01CD019F77DF91CF91FF90EF90F3
:10104000DF90CF90BF90AF909F908F9008958F9238
:101050009F92AF92BF92CF92DF92EF92FF926091F8
:1010600004017091050180910601909107016115BD
:1010700071058105910521F464E279ED8BE597E036
:101080002DE133EF41E050E00E947E0849015A0112
:101090009B01AC01A7EAB1E40E949D086B017C01B1
:1010A000ACEEB4EFA50194010E94AB08DC01CB01CA
:1010B0008C0D9D1DAE1DBF1DB7FF03C00197A1097B
:1010C000B0488093040190930501A0930601B0936A
:1010D0000701BC01CD019F77FF90EF90DF90CF908B
:1010E000BF90AF909F908F9008956093040170938C
:1010F000050180930601909307010895052E97FB43
:101100001EF400940E94950857FD07D00E94B00875
:1011100007FC03D04EF40C949508509540953095FB
:1011200021953F4F4F4F5F4F089590958095709553
:1011300061957F4F8F4F9F4F08950E94D208A59FC2
:10114000900DB49F900DA49F800D911D11240895C2
:10115000B7FF0C949D080E949D08821B930B089575
:10116000A1E21A2EAA1BBB1BFD010DC0AA1FBB1FAB
:10117000EE1FFF1FA217B307E407F50720F0A21B1D
:10118000B30BE40BF50B661F771F881F991F1A948A
:1011900069F760957095809590959B01AC01BD01B4
:1011A000CF010895A29FB001B39FC001A39F700D0E
:1011B000811D1124911DB29F700D811D1124911D5F
:1011C00008950E94D208B7FF0895821B930B0895DB
:1011D000EE0FFF1F0590F491E02D099481E090E05F
:0A11E000F8940C94F308F894FFCF84
:1011EA009C18C819010000000000000023018C00AF
:1011FA00BA007001EB00C900DD0054524947474567
:10120A00524544000D0A00506F743A2000090054F8
:10121A0068726573686F6C643A200053656E736F09
:04122A00723A2000F4
:00000001FF
