:100000000C9462000C948A000C948A000C948A0070
:100010000C948A000C948A000C948A000C948A0038
:100020000C948A000C948A000C948A000C948A0028
:100030000C948A000C948A000C948A000C948A0018
:100040000C94B7020C948A000C9485020C945F0205
:100050000C948A000C948A000C948A000C948A00F8
:100060000C948A000C948A000000000024002700F1
:100070002A0000000000250028002B0000000008D6
:10008000000201000003040700000000000000005F
:1000900000000000230026002900040404040404D6
:1000A0000404020202020202030303030303010227
:1000B00004081020408001020408102001020408F6
:1000C0001020010311241FBECFEFD8E0DEBFCDBF4B
:1000D00011E0A0E0B1E0ECE3FCE002C005900D927D
:1000E000A233B107D9F722E0A2E3B1E001C01D922B
:1000F000A030B207E1F710E0C2E6D0E004C02197DB
:10010000FE010E941106C136D107C9F70E940904F9
:100110000C941C060C940000CF92DF92EF92FF9299
:100120000F931F93CF93DF936C017A018B01C0E093
:10013000D0E0CE15DF0581F0D8016D918D01D6019B
:10014000ED91FC910190F081E02DC6010995892B7C
:1001500011F02196EECF7E01C701DF91CF911F9163
:100160000F91FF90EF90DF90CF900895089580E079
:1001700090E00895FC01538D448D252F30E0842FAD
:1001800090E0821B930B541710F0CF9608950197BF
:100190000895FC01918D828D981761F0828DDF01A9
:1001A000A80FB11D5D968C91928D9F5F9F73928F6A
:1001B00090E008958FEF9FEF0895FC01918D828D5F
:1001C000981731F0828DE80FF11D858D90E008952C
:1001D0008FEF9FEF0895FC01918D228D892F90E084
:1001E000805C9F4F821B91098F73992708958BE341
:1001F00091E00E94EB0021E0892B09F420E0822F9E
:100200000895FC01848DDF01A80FB11DA35ABF4FD3
:100210002C91848D90E001968F739927848FA68905
:10022000B7892C93A089B1898C91837080648C9359
:10023000938D848D981306C00288F389E02D808108
:100240008F7D80830895EF92FF920F931F93CF933A
:10025000DF93EC0181E0888F9B8D8C8D981305C016
:10026000E889F989808185FD26C0F62E0B8D10E086
:100270000F5F1F4F0F731127E02E8C8DE8120CC0FB
:100280000FB607FCFACFE889F989808185FFF5CFA1
:10029000CE010E940101F1CF8B8DFE01E80FF11D0F
:1002A000E35AFF4FF0829FB7F8940B8FEA89FB89DE
:1002B000808180620AC09FB7F894EE89FF896083CD
:1002C000E889F98980818370806480839FBF81E0A1
:1002D00090E0DF91CF911F910F91FF90EF900895E3
:1002E000CF93DF93EC01888D8823C9F0EA89FB89DD
:1002F000808185FD05C0A889B9898C9186FD0FC0D4
:100300000FB607FCF5CF808185FFF2CFA889B989A8
:100310008C9185FFEDCFCE010E940101E7CFDF91E7
:10032000CF91089580E090E0892B29F00E94F7009A
:1003300081110C9400000895CF93DF9390E0FC01AD
:10034000E255FF4F2491FC01E656FF4F849188232C
:1003500061F190E0880F991FFC01E859FF4FC591AA
:10036000D491FC01EE58FF4FA591B491611109C0E1
:100370009FB7F8948881209582238883EC912E235F
:100380000BC0623061F49FB7F8948881322F3095AA
:1003900083238883EC912E2B2C939FBF06C08FB7AD
:1003A000F894E8812E2B28838FBFDF91CF91089599
:1003B000009769F0FC0101900020E9F73197AF0147
:1003C000481B590BBC018BE391E00C948C0080E03E
:1003D00090E008958F929F92AF92BF92CF92DF925A
:1003E000EF92FF920F931F93CF93DF93CDB7DEB7BA
:1003F000A1970FB6F894DEBF0FBECDBF6B017C0195
:1004000097FF2BC06DE28BE391E00E9423018C01EA
:1004100022273327A9012C193D094E095F0919A28A
:10042000CE0181967C019AE0892E912CA12CB12CD1
:10043000CA01B901A50194010E94EF05605DF701B1
:1004400062937F01211531054105510589F7CF01DF
:100450000E94D801800F911F1DC09B01AC0119A201
:100460008E010F5D1F4F8AE0C82ED12CE12CF12C9C
:10047000CA01B901A70196010E94EF05605DF8016C
:1004800062938F01211531054105510589F7CF018F
:100490000E94D801A1960FB6F894DEBF0FBECDBF63
:1004A000DF91CF911F910F91FF90EF90DF90CF9050
:1004B000BF90AF909F908F9008950E9417061F9253
:1004C0000F920FB60F9211242F933F934F935F9388
:1004D0006F937F938F939F93AF93BF93EF93FF930C
:1004E0008BE391E00E940101FF91EF91BF91AF91E9
:1004F0009F918F917F916F915F914F913F912F913C
:100500000F900FBE0F901F9018951F920F920FB66D
:100510000F9211242F938F939F93EF93FF93E0916A
:100520004B01F0914C018081E0915101F091520119
:1005300082FD12C09081809154018F5F8F73209152
:100540005501821751F0E0915401F0E0E55CFE4F57
:10055000958F8093540101C08081FF91EF919F910D
:100560008F912F910F900FBE0F901F9018951F9293
:100570000F920FB60F9211242F933F938F939F9357
:10058000AF93BF938091D8019091D901A091DA01E6
:10059000B091DB013091360123E0230F2D3720F499
:1005A0000196A11DB11D05C026E8230F0296A11DCD
:1005B000B11D209336018093D8019093D901A09367
:1005C000DA01B093DB018091320190913301A09167
:1005D0003401B09135010196A11DB11D8093320106
:1005E00090933301A0933401B0933501BF91AF9143
:1005F0009F918F913F912F910F900FBE0F901F9061
:10060000189510923E0110923D0188EE93E0A0E013
:10061000B0E080933F0190934001A0934101B093DB
:10062000420184E091E090933C0180933B0185EC92
:1006300090E0909348018093470184EC90E0909380
:100640004A018093490180EC90E090934C018093A3
:100650004B0181EC90E090934E0180934D0182EC30
:1006600090E09093500180934F0186EC90E090933E
:100670005201809351011092540110925501109231
:1006800056011092570183E090E09093FB01809314
:10069000FA0186E090E09093FD018093FC0189E0EF
:1006A00090E09093FF018093FE0181E090E09093B1
:1006B000DD018093DC0186E391E09093E301809378
:1006C000E20180EE95E7A9E0B0E08093E401909329
:1006D000E501A093E601B093E70180E29EE4A0E08B
:1006E000B0E08093E8019093E901A093EA01B09310
:1006F000EB0161E084E00E949C0160E087E00E94E1
:100700009C01E0E8F0E08491E2EBF0E09491EEE906
:10071000F0E0E491EE23B9F1882339F1833091F0D0
:1007200038F48130A9F0823001F584B58F7D12C094
:10073000873091F08830A1F08430B9F48091800046
:100740008F7D03C0809180008F77809380000DC0E3
:1007500084B58F7784BD09C08091B0008F7703C0C6
:100760008091B0008F7D8093B000F0E0EE0FFF1F0E
:10077000EE58FF4FA591B4912FB7F8948C919095B6
:1007800098239C932FBFE2EBF0E0E491E093F40117
:10079000EEE9F0E0E491F0E0EE0FFF1FE057FF4FCD
:1007A000859194919093F6018093F501E5EBF0E04B
:1007B000E491E093F701E1EAF0E0E491F0E0EE0F7C
:1007C000FF1FE057FF4F859194919093F90180931B
:1007D000F8018FEF9FEFAFEFBFE08093DE019093C2
:1007E000DF01A093E001B093E1012FB7F89480916D
:1007F000D8019091D901A091DA01B091DB012FBF0E
:100800008093EC019093ED01A093EE01B093EF0182
:100810000895789484B5826084BD84B5816084BD78
:1008200085B5826085BD85B5816085BD80916E008E
:10083000816080936E0010928100809181008260BF
:1008400080938100809181008160809381008091FC
:1008500080008160809380008091B10084608093EB
:10086000B1008091B00081608093B00080917A00E7
:10087000846080937A0080917A00826080937A000D
:1008800080917A00816080937A0080917A008068FC
:1008900080937A001092C100E0914B01F0914C01DD
:1008A00082E08083E0914701F09148011082E0915D
:1008B0004901F0914A018FEC808310925301E0913D
:1008C0004F01F091500186E08083E0914D01F0915D
:1008D0004E01808180618083E0914D01F0914E0155
:1008E000808188608083E0914D01F0914E0180818C
:1008F00080688083E0914D01F0914E0180818F7D71
:10090000808361E08DE00E949C0161E082E00E94B2
:100910009C01CAEFD1E08881229661E00E949C018F
:1009200082E0C030D807B9F710E4C3E2D0E01093FA
:100930007C0080917A00806480937A0080917A00B4
:1009400086FDFCCF809178002091790090E0922B79
:1009500090933A01809339011092F0011092F101C5
:100960001092F2011092F3018091DC019091DD016F
:1009700097FD80C024E6F894E091F501F091F6012E
:1009800092818091F401809589238283E091F8011E
:10099000F091F90191818091F701809589238183FC
:1009A000E091F801F091F90192818091F701809531
:1009B00089238283E091F801F091F901918180917E
:1009C000F701892B8183E091F801F091F90192817F
:1009D0008091F701809589238283CE010197F1F7F9
:1009E000E091F801F091F90191818091F7018095F2
:1009F00089238183E091F801F091F901928180913E
:100A0000F701809589238283E091F501F091F60149
:100A100092818091F401892B82837894E091F8018E
:100A2000F091F9010091F7014091E4015091E50145
:100A30006091E6017091E701308130238091F001EF
:100A40009091F101A091F201B091F30131114EC0EA
:100A500084179507A607B70708F048C00196A11D9F
:100A6000B11D8093F0019093F101A093F201B09336
:100A7000F301E2CF2FEF8FEF422F582F5093380121
:100A80004093370182E191E00E94D80160913901E1
:100A900070913A01072E000C880B990B0E94EA0115
:100AA00088E191E00E94D8018AE191E00E94D8019A
:100AB00060E070E0CB010E94EA0188E191E00E94D1
:100AC000D80186E291E00E94D801609137017091CF
:100AD0003801072E000C880B990B0E94EA018FE267
:100AE00091E00E94D8010E94920121CF4817590736
:100AF0006A077B0708F46BC0F894E091F801F09165
:100B0000F90192818091F701892B8283E091F801AC
:100B1000F091F90191818091F701892B8183E09116
:100B2000F801F091F90192818091F701892B82837C
:100B3000E091F801F091F90191818091F7018095A0
:100B400089238183E091F801F091F90192818091EC
:100B5000F701809589238283E091F501F091F601F8
:100B600092818091F4018095892382837894E09129
:100B7000F801F091F9010091F7014091E4015091E1
:100B8000E5016091E6017091E701308130238091A9
:100B9000F0019091F101A091F201B091F3013323A2
:100BA00089F084179507A607B70760F40196A11D81
:100BB000B11D8093F0019093F101A093F201B093E5
:100BC000F301E3CF84179507A607B70710F02EEFC0
:100BD00052CF215009F0CFCE282F892F4DCFA1E23F
:100BE0001A2EAA1BBB1BFD010DC0AA1FBB1FEE1FA7
:100BF000FF1FA217B307E407F50720F0A21BB30BF2
:100C0000E40BF50B661F771F881F991F1A9469F76D
:100C100060957095809590959B01AC01BD01CF01C9
:100C20000895EE0FFF1F0590F491E02D099481E0E7
:0C0C300090E0F8940C941C06F894FFCFA0
:100C3C000000000023018C00BA007001EB00C90019
:100C4C00DD00506F743A20000900546872657368B7
:100C5C006F6C643A200053656E736F723A20000D0E
:020C6C000A007C
:00000001FF
