:100000000C9463000C948B000C948B000C948B006C
:100010000C948B000C948B000C948B000C948B0034
:100020000C948B000C948B000C948B000C948B0024
:100030000C948B000C948B000C948B000C948B0014
:100040000C9489030C948B000C9437040C94690471
:100050000C948B000C948B000C948B000C948B00F4
:100060000C948B000C948B0000000008000201002F
:100070000003040700000000000000000102040863
:100080001020408001020408102001020408102002
:10009000040404040404040402020202020203032E
:1000A00003030303000000002300260029000000D2
:1000B0000000250028002B0000000000240027007D
:1000C0002A00E902990411241FBECFEFD8E0DEBF59
:1000D000CDBF11E0A0E0B1E0E2E0FAE102C005909E
:1000E0000D92A834B107D9F722E0A8E4B1E001C02D
:1000F0001D92AC36B207E1F710E0C6ECD0E004C0C8
:100100002297FE010E94FB0CC23CD107C9F70E9456
:10011000DD040C94390B0C94000008950F931F9389
:10012000CF93DF930E94D3030091A7011091A80100
:100130002091A9013091AA01601B710B820B930BD6
:10014000633071058105910508F466C0E0916C018A
:10015000F0E0EE0FFF1FEB5EFE4F60E080810E943B
:10016000530380916C018F5F863019F080936C018E
:1001700002C010926C010E94D3030091A301109160
:10018000A4012091A5013091A601601B710B820B87
:10019000930B653F71408105910530F0809104011A
:1001A00091E089278093040180916C0190E0FC012B
:1001B000E359FE4F2081880F991FFC01EB5EFE4F33
:1001C000222351F06091040180810E945303C5E015
:1001D000D1E000E010E002C061E0F6CF8881229615
:1001E00090916C01F80128E0929FE00DF11D11241F
:1001F000ED58FE4F60810E9453030F5F1F4F083080
:10020000110561F70E94D3036093A7017093A801C1
:100210008093A9019093AA01DF91CF911F910F9133
:100220000895CF92DF92EF92FF920E94D3036B0169
:100230007C0165E088E491E00E946C0A672B682BE2
:10024000692B89F00E948E0065E088E491E00E94AD
:100250006C0A672B682B692BA9F70E94D303CB018B
:100260008C199D0902C080E090E0FF90EF90DF9034
:10027000CF9008952F923F924F925F926F927F920C
:100280008F929F92AF92BF92CF92DF92EF92FF92A6
:100290000F931F93CF93DF93CDB7DEB72D970FB694
:1002A000F894DEBF0FBECDBF0E94D3032B013C01EB
:1002B000809125010E941A041C01198210E00E94FD
:1002C0008E006981262F30E0220F331FA9014F5F76
:1002D0005F4FEDE6F1E080E090E08217930719F0C0
:1002E0008417950719F461E0608301C010820196BC
:1002F00031968630910589F7809125010E941A0474
:1003000091012B5F3F4F281739070CF414C18091DE
:1003100025010E941A049101255031098217930783
:100320000CF409C1112309F4BCC08981813009F49E
:100330007AC0F0F1823009F0B3C00E9422099D8397
:100340008C830E941A094C010E9412099B838A83A4
:10035000809125010E941A04BC01882777FD8095B1
:10036000982F1F921F921F922BE32F93A12CB12C39
:100370006501EE24EA9413E0F12E00E010E020E0A5
:1003800030E0A9010E943106AB01BC0148875987C2
:100390006A877B870E9402096C010E94FA08EC8040
:1003A000FD8084012A813B8148855985B60172C050
:1003B0000E9422099D878C870E941A094C010E9485
:1003C00012099B838A830E940A099D838C830E9461
:1003D00002099F838E83809125010E941A04BC012B
:1003E000882777FD8095982F1F921F921F92E7E133
:1003F000EF93A12CB12C6501EE24EA9413E0F12EC9
:1004000000E010E020E030E0A9010E943106DC01AC
:10041000CB01EC84FD8484012A813B814C815D8188
:100420006E817F8137C00E9422094C010E941A0907
:100430009F838E830E9412099B838A830E940A09EC
:100440009D838C83809125010E941A04BC0188271A
:1004500077FD8095982F1F921F921F92FBE3FF93C9
:10046000A12CB12C6501EE24EA9413E0F12E00E0FA
:1004700010E020E030E0A9010E9431065B016C0130
:100480000E94FA0874010E811F812A813B814C81F0
:100490005D81B5010E9426090F900F900F900F907B
:1004A00011E00E94D3034B015C0184189508A60853
:1004B000B7080E941101892BA9F169816F5F6983D7
:1004C000809125010E941A041C010E94D3032B0174
:1004D0003C018981833029F510926D0110926E01E3
:1004E00010926F01109270011092710110927201BE
:1004F0002D960FB6F894DEBF0FBECDBFDF91CF9122
:100500001F910F91FF90EF90DF90CF90BF90AF9031
:100510009F908F907F906F905F904F903F902F9023
:10052000089510E0E1E18E16E7E29E06A104B10411
:1005300008F4C5CED1CF0E94D3032B013C01F5CEE8
:10054000EF92FF920F931F93CF93DF9326E040E843
:1005500055E260E070E084EB91E00E94CF05C5E1D8
:10056000D1E08E0161E088810E941A03229661E049
:10057000F80180810E945303F1E0C132DF0789F75F
:10058000C5E0D1E08E0161E088810E941A032296C5
:1005900060E0F80180810E945303F1E0C531DF077C
:1005A00089F7BFEDEB2EB7E0FB2E01E010E020E075
:1005B00030E040E050E060E070E080E090E00E94D9
:1005C0002609DF91CF911F910F91FF90EF900C942E
:1005D0003A01409121016091230188E491E00C945B
:1005E0004A09833081F028F4813099F08230A1F0FB
:1005F00008958730A9F08830B9F08430D1F4809123
:1006000080008F7D03C0809180008F778093800071
:10061000089584B58F7702C084B58F7D84BD089519
:100620008091B0008F7703C08091B0008F7D809360
:10063000B0000895CF93DF9390E0FC01E458FF4FA2
:100640002491FC01E057FF4F8491882349F190E009
:10065000880F991FFC01E854FF4FA591B491825572
:100660009F4FFC01C591D4919FB7611108C0F894C8
:100670008C91209582238C93888182230AC06230DA
:1006800051F4F8948C91322F309583238C93888188
:10069000822B888304C0F8948C91822B8C939FBF0B
:1006A000DF91CF9108950F931F93CF93DF931F9204
:1006B000CDB7DEB7282F30E0F901E859FF4F84911C
:1006C000F901E458FF4F1491F901E057FF4F0491ED
:1006D0000023C9F0882321F069830E94F102698117
:1006E000E02FF0E0EE0FFF1FE255FF4FA591B49110
:1006F0009FB7F8948C91611103C01095812301C0BC
:10070000812B8C939FBF0F90DF91CF911F910F9101
:1007100008951F920F920FB60F9211242F933F93BB
:100720008F939F93AF93BF938091AC019091AD0154
:10073000A091AE01B091AF013091AB0123E0230F46
:100740002D3720F40196A11DB11D05C026E8230F09
:100750000296A11DB11D2093AB018093AC01909333
:10076000AD01A093AE01B093AF018091B001909123
:10077000B101A091B201B091B3010196A11DB11DCB
:100780008093B0019093B101A093B201B093B301F3
:10079000BF91AF919F918F913F912F910F900FBE7D
:1007A0000F901F9018952FB7F8946091AC0170913D
:1007B000AD018091AE019091AF012FBF0895789463
:1007C00084B5826084BD84B5816084BD85B5826056
:1007D00085BD85B5816085BDEEE6F0E080818160F4
:1007E0008083E1E8F0E010828081826080838081F4
:1007F00081608083E0E8F0E0808181608083E1EBCC
:10080000F0E0808184608083E0EBF0E080818160B3
:100810008083EAE7F0E08081846080838081826069
:100820008083808181608083808180688083109252
:10083000C10008958E3008F08E50877020912701F6
:1008400090E4299F90011124822B80937C00809159
:100850007A00806480937A0080917A0086FDFCCFD4
:10086000809178002091790090E0922B08951F925A
:100870000F920FB60F9211242F938F939F93EF93A4
:10088000FF93E091C401F091C5018081E091CA011C
:10089000F091CB0182FD12C090818091CD018F5FDC
:1008A0008F732091CE01821751F0E091CD01F0E0DD
:1008B000EC54FE4F958F8093CD0101C08081FF9154
:1008C000EF919F918F912F910F900FBE0F901F90DE
:1008D00018951F920F920FB60F9211242F933F93EA
:1008E0004F935F936F937F938F939F93AF93BF9338
:1008F000EF93FF9384EB91E00E942705FF91EF9126
:10090000BF91AF919F918F917F916F915F914F9127
:100910003F912F910F900FBE0F901F90189584EB71
:1009200091E00E94EC0421E0892B09F420E0822F61
:1009300008951092B7011092B60188EE93E0A0E0FE
:10094000B0E08093B8019093B901A093BA01B0933D
:10095000BB0180E391E09093B5018093B40185ECF5
:1009600090E09093C1018093C00184EC90E090935B
:10097000C3018093C20180EC90E09093C501809305
:10098000C40181EC90E09093C7018093C60182EC92
:1009900090E09093C9018093C80186EC90E0909319
:1009A000CB018093CA011092CD011092CE0110921A
:1009B000CF011092D001089508950E94DF030E9494
:1009C000DC040E94A002C9E1D5E00E948D002097BE
:1009D000E1F30E941905F9CFFC01818D228D90E091
:1009E000805C9F4F821B91098F7399270895FC01AA
:1009F000918D828D981731F0828DE80FF11D858DD4
:100A000090E008958FEF9FEF0895FC01918D828D06
:100A1000981761F0828DDF01A80FB11D5D968C9152
:100A2000928D9F5F9F73928F90E008958FEF9FEF5D
:100A300008958FE894E0892B49F080E090E0892BBD
:100A400029F00E948F0481110C9400000895FC018C
:100A5000848DDF01A80FB11DA35ABF4F2C91848D47
:100A600090E001968F739927848FA689B7892C937C
:100A7000A089B1898C9180648C93938D848D981317
:100A800006C00288F389E02D80818F7D80830895E0
:100A9000CF93DF93EC01888D8823C9F0EA89FB8925
:100AA000808185FD05C0A889B9898C9186FD0FC01C
:100AB0000FB607FCF5CF808185FFF2CFA889B989F1
:100AC0008C9185FFEDCFCE010E942705E7CFDF9106
:100AD000CF910895CF92DF92FF920F931F93CF9300
:100AE000DF931F92CDB7DEB76C01DC015B969C9162
:100AF0005B975C968C915C97981307C05096ED912C
:100B0000FC915197808185FD32C0F601038D10E084
:100B10000F5F1F4F0F731127F02EF601848DF8120F
:100B200011C00FB607FCF9CFD6015096ED91FC919C
:100B30005197808185FFF1CFC60169830E94270507
:100B40006981EBCF838DE80FF11DE35AFF4F60837E
:100B5000D6015B960C935B975296ED91FC9153975F
:100B600080818062808381E058968C930DC0D6018D
:100B70005696ED91FC91579760835096ED91FC91BC
:100B8000519780818064808381E090E00F90DF91B5
:100B9000CF911F910F91FF90DF90CF900895BF925A
:100BA000CF92DF92EF92FF92CF93DF93EC016A0135
:100BB0007B01B22EE889F98982E08083411581EEBC
:100BC000580761057105A1F060E079E08DE390E0E0
:100BD000A70196010E94820C215031094109510957
:100BE0005695479537952795211580E1380798F058
:100BF000E889F989108260E874E88EE190E0A70145
:100C000096010E94820C21503109410951095695E3
:100C1000479537952795EC85FD853083EE85FF85D3
:100C20002083188EEC89FD89B082EA89FB89808156
:100C300080618083EA89FB89808188608083EA897A
:100C4000FB89808180688083EA89FB8980818F7D30
:100C50008083DF91CF91FF90EF90DF90CF90BF9096
:100C600008954F925F926F927F92AF92BF92CF9210
:100C7000DF92EF92FF920F931F93CF93DF93CDB745
:100C8000DEB729013A01621B730B840B950B29898E
:100C90003A894B895C892A193B094C095D09298BE2
:100CA0003A8B4B8B5C8B9B01AC0169897A898B8970
:100CB0009C890E945E0CE418F50806091709A80132
:100CC00097010E94A40C2A0D3B1D4C1D5D1DCA01FD
:100CD000B901DF91CF911F910F91FF90EF90DF90BD
:100CE000CF90BF90AF907F906F905F904F9008959E
:100CF0006F927F928F929F92AF92BF92CF92DF922C
:100D0000EF92FF920F931F93CF93DF93EA012CE3AF
:100D1000C22ED12CE12CF12CA70196010E94820C4D
:100D20006883CA01B901A70196010E94820C6983F8
:100D3000CA01B90128E130E040E050E00E94820C95
:100D400049015A016A83CA01B9016C5F7F4F8F4F15
:100D50009F4F27E030E040E050E00E94820C6F5F40
:100D60006B8300E010E0980140E054E6652E712CA2
:100D700060E9C62EDD24D394E42FF0E0EE54F84F62
:100D80007F0183E0E822FF24E114F10489F4CF011C
:100D9000B3010E946E0C892B29F08EE691E0A0E051
:100DA000B0E00AC0CF01B6010E946E0C892BA9F3F6
:100DB0008DE691E0A0E0B0E0080F191F2A1F3B1F4D
:100DC000D901C801AA27BB2788169906AA06BB061F
:100DD00010F04F5FD1CF4E83E114F10499F4CF01AD
:100DE00064E670E00E946E0C892B29F08EE691E09B
:100DF000A0E0B0E00BC0CF0160E971E00E946E0C92
:100E0000892BA1F38DE691E0A0E0B0E0081B190B5F
:100E10002A0B3B0B801A910AA20AB30ACF0164E69F
:100E200070E00E946E0C9C01CF0160E971E00E94AD
:100E30006E0CECE3F1E0A0E0A13059F4E114F10410
:100E400051F42115310511F04DE106C00097E1F391
:100E500002C0408101C04CE150E060E070E08416C7
:100E60009506A606B70640F0841A950AA60AB70AA0
:100E7000AF5F3196AC3001F7AF5FAD8383948C8266
:100E8000DF91CF911F910F91FF90EF90DF90CF9066
:100E9000BF90AF909F908F907F906F900895CF926A
:100EA000DF92EF92FF926B017C0180916102909141
:100EB0006202A0916302B0916402C816D906EA06E4
:100EC000FB0671F045E652E0C701B6010E947806C4
:100ED000C0926102D0926202E0926302F0926402D8
:100EE000FF90EF90DF90CF9008950E944F07809180
:100EF0006B0290E08E54984F08956F927F928F927C
:100F00009F92AF92BF92CF92DF92EF92FF920F9398
:100F10001F93CF93DF93FC01C680AC2DB0E020E897
:100F200033E341EE51E00E94D20C4B015C0122EB15
:100F300037E06D01C4E6D0E000E911E0C901825B51
:100F400097408C159D05DCF4C90183709927892B86
:100F500099F4C901BE010E946E0C892B31F4C901BC
:100F6000B8010E946E0C892B39F480E8880E81E567
:100F7000981E81E0A81EB11C2F5F3F4FDFCF658018
:100F8000712C8EE4C81A88EFD80AC60164E670E0B6
:100F90000E946E0C8C01C60160E971E00E946E0C2B
:100FA0007C01C1E0D0E083E0C822DD24C615D7056E
:100FB0002CF5C230D10589F4C114D10471F40115A6
:100FC000110519F4E114F10441F480E8880E8BE373
:100FD000981E86E2A81EB11C0FC0DE01A55CBE4FA4
:100FE000AC91B0E020E831E541E050E00E94D20C45
:100FF000860E971EA81EB91E2196D8CF4181228148
:1010000030E0A0E1BEE00E94C30C6B017C01242F04
:1010100030E0ACE3B0E00E94C30CC60ED71EE81E61
:10102000F91E8081C80ED11CE11CF11CA481B0E026
:10103000119720E831E541E050E00E94DD0CC60E3A
:10104000D71EE81EF91EC80CD91CEA1CFB1CC701E0
:10105000B601DF91CF911F910F91FF90EF90DF903C
:10106000CF90BF90AF909F908F907F906F9008959A
:101070000F931F9360935D0270935E0280935F02F3
:1010800090936002009128011091290120912A017A
:1010900030912B01060F171F281F391F009355028F
:1010A00010935602209357023093580282E090E04A
:1010B00090935402809353020E94D3036093590289
:1010C00070935A0280935B0290935C021F910F9180
:1010D0000895CF92DF92EF92FF920F931F930E9499
:1010E000D303C0905902D0905A02E0905B02F09076
:1010F0005C026C197D098E099F0900915D021091B7
:101100005E0220915F0230916002683E734081056B
:101110009105D8F00F5F1F4F2F4F3F4F00935D0297
:1011200010935E0220935F023093600248EEC40E7B
:1011300043E0D41EE11CF11CC0925902D0925A0225
:10114000E0925B02F0925C02CACF809155029091CE
:101150005602A0915702B0915802081719072A07A2
:101160003B07C8F1E0915102F0915202309799F19A
:101170000995611571058105910519F00E943808DE
:101180002AC08091280190912901A0912A01B09153
:101190002B0140915D0250915E0260915F0270915F
:1011A0006002840F951FA61FB71F8093550290936E
:1011B0005602A0935702B093580281E090E020912C
:1011C000530230915402232B11F480E090E090936D
:1011D00054028093530260915D0270915E0280918F
:1011E0005F02909160021F910F91FF90EF90DF904E
:1011F000CF9008950E9469080E944F07809167026E
:1012000090E008950E9469080E944F07809166024D
:1012100090E008950E9469080E944F07809165023E
:1012200090E008950E9469080E944F07809169022A
:1012300090E008950E9469080E944F0780916A0219
:1012400090E008950E9469080C947507EF92FF9250
:101250000F9394E6E916F1042CF092EBE91A97E06B
:10126000F90A03C09EE1E90EF11CE0926B020093C3
:101270006A0220936902809367026093660240933A
:10128000650285E692E00E947D070F91FF90EF9046
:101290000C9438080F931F93CF93DF93EC0181E0F8
:1012A00090E09983888386E391E09F838E8300EEAC
:1012B00015E729E030E0088719872A873B8700E295
:1012C0001EE420E030E00C871D872E873F876431C5
:1012D00020F08FEF9FEF99838883443120F08FEFC8
:1012E0009FEF99838883262F30E0F901E458FF4F60
:1012F000E491E88FF901E057FF4F249130E0220F8D
:10130000331FF901E854FF4F659174917A8F698F0B
:1013100022553F4FF901259134913C8F2B8F842F1B
:1013200090E0FC01E458FF4FE491ED8FFC01E057A1
:10133000FF4F849190E0880F991FFC01E854FF4F04
:10134000259134913F8F2E8FFC01EC55FF4F259155
:10135000349139A328A382559F4FFC018591949124
:101360009BA38AA3F894E98DFA8D8081988D892BAF
:10137000808378944FEF5FEF6FEF7FE04A835B836A
:101380006C837D830E94D303688B798B8A8B9B8BC4
:10139000DF91CF911F910F9108950F931F93FC013F
:1013A000F894A38DB48D9C91808D809589238C9326
:1013B000A68DB78D9C91858D809589238C93A2A154
:1013C000B3A19C91858D809589238C93A68DB78D33
:1013D0008C91958D892B8C93A68DB78D9C91858D45
:1013E000809589238C93A38DB48D8C91908D892BBE
:1013F0008C937894A0A1B1A1958D8C918923448977
:101400005589668977890085118522853385811103
:1014100006C0401751076207730708F440C004175D
:10142000150726073707C0F1F894A2A1B3A18C9144
:10143000958D892B8C93A68DB78D8C91958D892B4D
:101440008C93A68DB78D9C91858D809589238C93E7
:10145000A2A1B3A19C91858D809589238C93A38DA6
:10146000B48D9C91808D809589238C937894A0A1D4
:10147000B1A1958D8C918923448955896689778995
:101480000085118522853385882391F04017510707
:1014900062077307A8F00CC08EEF9FEF1AC04F5F72
:1014A0005F4F6F4F7F4F448B558B668B778BA5CFEC
:1014B000401751076207730778F781E090E009C091
:1014C0004F5F5F4F6F4F7F4F448B558B668B778B92
:1014D000D1CF1F910F910895CF92DF92EF92FF929B
:1014E0000F931F93CF93DF931F92CDB7DEB78C017D
:1014F000FC01148A158A168A178A662341F08081B6
:10150000918197FF08C06FEF7FEFCB0180C060E053
:1015100070E0CB017CC0F12CC80169830E94CD0929
:10152000698197FD5EC0F394F612F6CF0E94D30353
:10153000F801C088D188E288F3886C197D098E098A
:101540009F09C484D584E684F784C616D706E806C6
:10155000F90648F5C488D588E688F78862817381E2
:1015600084819581C616D706E806F90629F0C61AC1
:10157000D70AE80AF90A03C0C12CD12C76010E94CF
:101580006D0B2DEC3CEC4CEC5DE30E94FB0B0E94E0
:101590003C0BAB01662757FD6095762FC416D50628
:1015A000E606F70618F1F80184899589A689B789B6
:1015B000C280D380E480F5808C159D05AE05BF0503
:1015C00020F482839383A483B583F801C280D380FF
:1015D000E480F580BC01CD016C197D098E099F095D
:1015E00016C06EEF7FEF8FEF9FEF11C04FEF5FEFF1
:1015F0006FEF7FE0F80142835383648375830E9419
:10160000D303F801608B718B828B938BCCCF0F90BF
:10161000DF91CF911F910F91FF90EF90DF90CF90CE
:101620000895CF92DF92EF92FF920F931F93CF9383
:10163000DF936C017A01EB01E60EF71E00E010E08B
:10164000CE15DF0561F06991D601ED91FC91019015
:10165000F081E02DC6010995080F191FF1CFC801CF
:10166000DF91CF911F910F91FF90EF90DF90CF907E
:101670000895F8940C94FF0C04D06894B111B5C08F
:10168000089598D088F09F5790F0B92F9927B751B7
:10169000A0F0D1F0660F771F881F991F1AF0BA9536
:1016A000C9F712C0B13081F09FD0B1E008959CC05D
:1016B000672F782F8827B85F39F0B93FCCF386952C
:1016C00077956795B395D9F73EF490958095709589
:1016D00061957F4F8F4F9F4F0895E89409C097FB06
:1016E0003EF490958095709561957F4F8F4F9F4FF9
:1016F0009923A9F0F92F96E9BB279395F69587953D
:1017000077956795B795F111F8CFFAF4BB0F11F4FF
:1017100060FF1BC06F5F7F4F8F4F9F4F16C08823A6
:1017200011F096E911C0772321F09EE8872F762FDC
:1017300005C0662371F096E8862F70E060E02AF01D
:101740009A95660F771F881FDAF7880F9695879509
:1017500097F9089597F99F6780E870E060E0089531
:101760009FEF80EC089500240A94161617061806B9
:101770000906089500240A94121613061406050695
:101780000895092E0394000C11F4882352F0BB0F26
:1017900040F4BF2B11F460FF04C06F5F7F4F8F4F89
:1017A0009F4F089557FD9058440F551F59F05F3FC4
:1017B00071F04795880F97FB991F61F09F3F79F073
:1017C00087950895121613061406551FF2CF4695F5
:1017D000F1DF08C0161617061806991FF1CF869577
:1017E0007105610508940895E894BB27662777275B
:1017F000CB0197F908950BD0C4CFB5DF28F0BADF3D
:1018000018F0952309F0A6CFABCF1124EECFCADF95
:10181000A0F3959FD1F3950F50E0551F629FF00103
:10182000729FBB27F00DB11D639FAA27F00DB11D5C
:10183000AA1F649F6627B00DA11D661F829F2227E5
:10184000B00DA11D621F739FB00DA11D621F839F6C
:10185000A00D611D221F749F3327A00D611D231F42
:10186000849F600D211D822F762F6A2F11249F5790
:1018700050408AF0E1F088234AF0EE0FFF1FBB1FB3
:10188000661F771F881F91505040A9F79E3F510552
:1018900070F060CFAACF5F3FECF3983EDCF3869503
:1018A00077956795B795F795E7959F5FC1F7FE2BFD
:1018B000880F911D9695879597F90895DB018F9371
:1018C0009F930E94D20CBF91AF91A29F800D911D5A
:1018D000A39F900DB29F900D1124089597FB072EA2
:1018E00016F4009407D077FD09D00E94E50C07FCA0
:1018F00005D03EF4909581959F4F08957095619520
:101900007F4F0895A1E21A2EAA1BBB1BFD010DC03B
:10191000AA1FBB1FEE1FFF1FA217B307E407F5079F
:1019200020F0A21BB30BE40BF50B661F771F881F7B
:10193000991F1A9469F760957095809590959B0111
:10194000AC01BD01CF010895052E97FB1EF4009454
:101950000E94BB0C57FD07D00E94820C07FC03D0ED
:101960004EF40C94BB0C50954095309521953F4F0B
:101970004F4F5F4F089590958095709561957F4F7B
:101980008F4F9F4F0895A29FB001B39FC001A39FA7
:10199000700D811D1124911DB29F700D811D1124A8
:1019A000911D08950E94C30CA59F900DB49F900DAA
:1019B000A49F800D911D11240895B7FF0C94D20CA3
:1019C0000E94D20C821B930B0895AA1BBB1B51E1F2
:1019D00007C0AA1FBB1FA617B70710F0A61BB70B9F
:1019E000881F991F5A95A9F780959095BC01CD0144
:1019F0000895EE0FFF1F0590F491E02D0994F894DF
:021A0000FFCF16
:101A020001000000010600070008000C000D000E96
:101A1200000F001000000001000200030004000596
:101A220000130012001100012C0100000000000050
:101A32006A05110BEC040505F70448051F1C1F1E5F
:081A42001F1E1F1F1E1F1E1FA7
:00000001FF
