:100000000C9462000C947F000C947F000C947F0091
:100010000C947F000C947F000C947F000C94AF092B
:100020000C947F000C947F000C947F000C947F0054
:100030000C947F000C947F000C947F000C947F0044
:100040000C94A1060C947F000C947F000C947F000C
:100050000C947F000C947F000C947F000C947F0024
:100060000C947F000C947F00000000080002010047
:100070000003040700000000000000000102040863
:100080001020408001020408102001020408102002
:10009000040404040404040402020202020203032E
:1000A00003030303000000002300260029000000D2
:1000B0000000250028002B0000000000240027007D
:1000C0002A00020011241FBECFEFD8E0DEBFCDBF53
:1000D00011E0A0E0B1E0E8EAFBE102C005900D927A
:1000E000A03EB107D9F722E0A0EEB1E001C01D9219
:1000F000AF35B207E1F70E940C0A0C94340D0C9452
:1001000000004AEE51E067E020E030E0DA01A20FA3
:10011000B31FFC017081F901679FE00DF11D1124EF
:10012000EB5FFE4F70817C932F5F3F4F273031058F
:1001300069F70196485F5F4FF2E04A315F0721F7A8
:100140000895E1EFF1E0DC012D91CD012083389697
:10015000B2E0E132FB07B9F708950F931F93CF93F5
:10016000DF93CDB7DEB72C970FB6F894DEBF0FBE86
:10017000CDBF0E94E40C0A971CF485E18F8307C071
:100180000E94E40C6AE070E00E94470D6F830E94B9
:10019000E40C0AE010E0B8010E94470D88870E9435
:1001A000EC0CB8010E94470D69870E94EC0CB80165
:1001B0000E94470D8A870E94F40CB8010E94470DE7
:1001C0006B870E94F40CB8010E94470D8C87CE010A
:1001D00007960E94810086E0E7ECF1E0DE011196CF
:1001E00001900D928A95E1F7CE0101960E94A1003F
:1001F0002C960FB6F894DEBF0FBECDBFDF91CF9126
:100200001F910F9108950F931F93CF93DF93CDB755
:10021000DEB72C970FB6F894DEBF0FBECDBF0E949D
:10022000FC0C0A971CF485E18F8307C00E94FC0C2C
:100230006AE070E00E94470D6F830E94FC0C0AE0A8
:1002400010E0B8010E94470D88870E94040D0A97AC
:100250001CF485E1898706C00E94040DB8010E9444
:10026000470D69870E94040D0AE010E0B8010E9462
:10027000470D8A870E940C0DB8010E94470DCB01E3
:10028000B8010E94470D8B870E940C0DB8010E9497
:10029000470D8C87CE0107960E94810086E0EDEC29
:1002A000F1E0DE01119601900D928A95E1F7CE0101
:1002B00001960E94A1002C960FB6F894DEBF0FBEE7
:1002C000CDBFDF91CF911F910F9108950F931F9391
:1002D000CF93DF930E94F706009122021091230230
:1002E0002091240230912502601B710B820B930B2D
:1002F000653F71408105910508F48CC0E091E301F0
:10030000F0E0EE0FFF1FE155FE4F60E080810E949C
:1003100042068091E3018F5F863019F08093E301FC
:1003200002C01092E3010E94EB0600911E021091A0
:100330001F022091200230912102601B710B820B61
:10034000930B653F71408105910538F08091040160
:10035000882319F01092040152C00E94EB0600910C
:100360001E0210911F022091200230912102601B79
:10037000710B820B930B653671058105910520F099
:10038000809104018823C1F1CFE9D1E000E010E0C1
:10039000888122969091E301F80128E0929FE00D78
:1003A000F11D1124E651FE4F60810E9442060F5F4D
:1003B0001F4F0830110561F78091E30190E0FC01C7
:1003C000EC51FE4F2081880F991FFC01E155FE4F33
:1003D000222319F06091040101C061E080810E9434
:1003E00042060E94F70660932202709323028093D4
:1003F0002402909325020EC081E0809304010E94A4
:10040000EB0660931E0270931F028093200290936C
:100410002102BACFDF91CF911F910F9108958F9252
:100420009F92AF92BF92CF92DF92EF92FF92809114
:10043000BB010E947806892B29F50E94EB066B010F
:100440007C010E94EB064B015C010E9466018091D9
:10045000BB010E947806892B21F40E94EB066B01F8
:100460007C010E94EB066C197D098E099F096B3F88
:1004700071058105910548F30E94EB06CB018819AF
:10048000990902C080E090E0FF90EF90DF90CF905C
:10049000BF90AF909F908F9008952F923F924F9270
:1004A0005F926F927F928F929F92AF92BF92CF9204
:1004B000DF92EF92FF920F931F93CF93DF93CDB70D
:1004C000DEB72D970FB6F894DEBF0FBECDBF0E94EA
:1004D000EB062B013C018091BD010E9455071C01D8
:1004E000198210E00E94AD000E9466016981262FEA
:1004F00030E0220F331FA9014F5F5F4FE4EEF1E0C0
:1005000080E090E08217930719F08417950719F49B
:1005100061E0608301C010820196319686309105BA
:1005200089F78091BD010E94550791012B5F3F4FD4
:10053000281739070CF414C18091BD010E9455079A
:10054000910125503109821793070CF409C1112339
:1005500009F4BCC08981813009F47AC0F0F182309D
:1005600009F0B3C00E940C0D9D838C830E94040D82
:100570004C010E94FC0C9B838A838091BD010E94E8
:100580005507BC01882777FD8095982F1F921F92F1
:100590001F922BE32F93A12CB12C6501EE24EA943A
:1005A00013E0F12E00E010E020E030E0A9010E940D
:1005B0001B0AAB01BC01488759876A877B870E9469
:1005C000EC0C6C010E94E40CEC80FD8084012A811B
:1005D0003B8148855985B60172C00E940C0D9D87EC
:1005E0008C870E94040D4C010E94FC0C9B838A8323
:1005F0000E94F40C9D838C830E94EC0C9F838E835D
:100600008091BD010E945507BC01882777FD809528
:10061000982F1F921F921F92E7E1EF93A12CB12C0C
:100620006501EE24EA9413E0F12E00E010E020E0F2
:1006300030E0A9010E941B0ADC01CB01EC84FD849F
:1006400084012A813B814C815D816E817F8137C02D
:100650000E940C0D4C010E94040D9F838E830E940A
:10066000FC0C9B838A830E94F40C9D838C83809175
:10067000BD010E945507BC01882777FD8095982F02
:100680001F921F921F92FBE3FF93A12CB12C6501D7
:10069000EE24EA9413E0F12E00E010E020E030E0D8
:1006A000A9010E941B0A5B016C010E94E40C740109
:1006B0000E811F812A813B814C815D81B5010E94A1
:1006C000100D0F900F900F900F9011E00E94EB060D
:1006D0004B015C0184189508A608B7080E940F0218
:1006E000892BA9F169816F5F69838091BD010E94A7
:1006F00055071C010E94EB062B013C0189818330C8
:1007000029F51092E4011092E5011092E601109291
:10071000E7011092E8011092E9012D960FB6F894C6
:10072000DEBF0FBECDBFDF91CF911F910F91FF9024
:10073000EF90DF90CF90BF90AF909F908F907F9081
:100740006F905F904F903F902F90089510E0E1E1FF
:100750008E16E7E29E06A104B10408F4C3CED1CF01
:100760000E94EB062B013C01F5CE2F923F924F9257
:100770005F926F927F928F929F92AF92BF92CF9231
:10078000DF92EF92FF920F931F93CF93DF93CDB73A
:10079000DEB72B970FB6F894DEBF0FBECDBF0E9419
:1007A000EB062B013C018091BD010E9455071C0105
:1007B000198210E00E9403010E9466016981262FC0
:1007C00030E0220F331FA9014F5F5F4FE4EEF1E0ED
:1007D00080E090E08217930719F08417950719F4C9
:1007E00061E0608301C010820196319686309105E8
:1007F00089F78091BD010E94550791012B5F3F4F02
:10080000281739070CF410C18091BD010E945507CB
:10081000910125503109821793070CF405C111236A
:1008200009F4B8C08981813009F474C0D0F18230F4
:1008300009F0AFC08091BD010E945507BC01882717
:1008400077FD8095982F1F921F9228E02F93E0E26A
:10085000EF93BFEDAB2EB7E0BB2EC12CD12CEE2415
:10086000EA9413E0F12E00E010E020E030E0A9016E
:100870000E941B0A6B017C010E94040D8C010E94E6
:10088000FC0C4C010E94F40CAC01888759870E9433
:10089000EC0C5C010E94E40C7601940148855985BA
:1008A00071C00E940C0D4C010E94040D9B838A8331
:1008B0008091BD010E945507BC01882777FD809576
:1008C000982F1F921F921F92EFE1EF93A12CB12C52
:1008D0006501A394EE24EA9413E0F12E00E010E009
:1008E00020E030E0A9010E941B0A9B01AC016E834D
:1008F0003F83488759870E94F40C6C010E94EC0CDE
:100900005C010E94E40C74010A811B812E813F81ED
:10091000A60138C00E940C0D9B878A878091BD017B
:100920000E945507BC01882777FD8095982F1F925C
:100930001F921F92FCE0FF93A12CB12C6501A394A0
:10094000EE24EA9413E0F12E00E010E020E030E025
:10095000A9010E941B0A6A837B838C839D830E946A
:10096000FC0C5C010E94F40C6C010E94EC0C4C012C
:100970000E94E40CEA84FB840A811B819501A60194
:10098000B40101C0B5010E94100D0F900F900F909F
:100990000F9011E00E94EB064B015C018418950852
:1009A000A608B7080E940F02892BA9F1F981FF5F01
:1009B000F9838091BD010E9455071C010E94EB063E
:1009C0002B013C012981233029F51092E40110927A
:1009D000E5011092E6011092E7011092E8011092F1
:1009E000E9012B960FB6F894DEBF0FBECDBFDF91A5
:1009F000CF911F910F91FF90EF90DF90CF90BF901C
:100A0000AF909F908F907F906F905F904F903F90AE
:100A10002F90089510E061E1861667E29606A10422
:100A2000B10408F4C7CED1CF0E94EB062B013C01E4
:100A3000F9CEEF92FF920F931F93CF93DF9362E073
:100A40008091BB010E940906CFEAD1E08E0161E0EE
:100A500088810E940906229661E0F80180810E9447
:100A60004206F1E0CB3BDF0789F7CFE9D1E08E0109
:100A700061E088810E940906229660E0F801808189
:100A80000E944206F1E0CF3ADF0789F724EF31E018
:100A900040E050E06CED70E08091BF010E94720771
:100AA000AFEDEA2EA7E0FA2E01E010E020E030E002
:100AB00040E050E060E070E080E090E00E94100DC7
:100AC0000E944D020E94B5038CE38093E1011092D5
:100AD000E0011092E20160E08091BF01DF91CF91CF
:100AE0001F910F91FF90EF900C9409060F931F93A5
:100AF0000E9466018091E201882319F0813069F13A
:100B00005CC00091E10110E00E94F40C0817190785
:100B100031F00E94F40C8093E1010E94AD000E942C
:100B20000F028D3D954024F01F910F910C944D02C2
:100B30000E940F02892B09F440C081E08093E201FA
:100B40000E9403010E94EB0660931A0270931B023D
:100B500080931C0290931D0230C00091E00110E0D0
:100B60000E94FC0C0817190731F00E94FC0C8093BE
:100B7000E0010E9403010E940F028D3D954024F088
:100B80001F910F910C94B5030E940F02892B99F4C9
:100B90000E94EB0600911A0210911B0220911C0288
:100BA00030911D02601B710B820B930B61317742F8
:100BB0008105910510F01092E2011F910F910895A7
:100BC000833081F028F4813099F08230A1F00895CB
:100BD0008730A9F08830B9F08430D1F4809180005A
:100BE0008F7D03C0809180008F778093800008956F
:100BF00084B58F7702C084B58F7D84BD08958091C0
:100C0000B0008F7703C08091B0008F7D8093B000DB
:100C10000895CF93DF9390E0FC01E458FF4F2491B7
:100C2000FC01E057FF4F8491882349F190E0880F41
:100C3000991FFC01E854FF4FA591B49182559F4F35
:100C4000FC01C591D4919FB7611108C0F8948C91B3
:100C5000209582238C93888182230AC0623051F4CC
:100C6000F8948C91322F309583238C938881822B3A
:100C7000888304C0F8948C91822B8C939FBFDF9162
:100C8000CF9108950F931F93CF93DF931F92CDB70A
:100C9000DEB7282F30E0F901E859FF4F8491F901C0
:100CA000E458FF4F1491F901E057FF4F04910023DE
:100CB000C9F0882321F069830E94E0056981E02F53
:100CC000F0E0EE0FFF1FE255FF4FA591B4919FB7E3
:100CD000F8948C91611103C01095812301C0812B80
:100CE0008C939FBF0F90DF91CF911F910F9108952B
:100CF000CF93DF93282F30E0F901E859FF4F84911B
:100D0000F901E458FF4FD491F901E057FF4FC49126
:100D1000CC2391F081110E94E005EC2FF0E0EE0F62
:100D2000FF1FEC55FF4FA591B4912C912D2381E02D
:100D300090E021F480E002C080E090E0DF91CF916C
:100D400008951F920F920FB60F9211242F933F9385
:100D50008F939F93AF93BF93809127029091280226
:100D6000A0912902B0912A023091260223E0230F9C
:100D70002D3720F40196A11DB11D05C026E8230FD3
:100D80000296A11DB11D2093260280932702909305
:100D90002802A0932902B0932A0280912B029091FD
:100DA0002C02A0912D02B0912E020196A11DB11D21
:100DB00080932B0290932C02A0932D02B0932E02CD
:100DC000BF91AF919F918F913F912F910F900FBE47
:100DD0000F901F9018952FB7F8946091270270918B
:100DE00028028091290290912A022FBF08953FB7CF
:100DF000F89480912B0290912C02A0912D02B09139
:100E00002E0226B5A89B05C02F3F19F00196A11D03
:100E1000B11D3FBF6627782F892F9A2F620F711D52
:100E2000811D911D42E0660F771F881F991F4A950B
:100E3000D1F70895789484B5826084BD84B58160CB
:100E400084BD85B5826085BD85B5816085BDEEE6D2
:100E5000F0E0808181608083E1E8F0E010828081B1
:100E600082608083808181608083E0E8F0E080811F
:100E700081608083E1EBF0E0808184608083E0EB3F
:100E8000F0E0808181608083EAE7F0E08081846027
:100E90008083808182608083808181608083808183
:100EA000806880831092C10008958E3008F08E50C3
:100EB00087702091C10190E4299F90011124822B19
:100EC00080937C0080917A00806480937A00809186
:100ED0007A0086FDFCCF809178002091790090E027
:100EE000922B08953F924F925F926F927F928F92D2
:100EF0009F92AF92BF92CF92DF92EF92FF920F93A9
:100F00001F93CF93DF9300D000D0CDB7DEB78B0116
:100F100029013A019091C201981721F09F3F09F0F1
:100F2000D3C104C0E2ECF0E0349081C08093C201F0
:100F3000E2ECF0E0E491EF3F09F4C6C1E13031F1B9
:100F4000E23009F44BC0E11171C014BC15BC94B57A
:100F5000926094BD95B5916095BD282F30E0F90160
:100F6000E057FF4FE491F0E0EE0FFF1FE255FF4F17
:100F70004591549150933F0240933E02F901E45849
:100F8000FF4F249120933D02312C53C010928000DA
:100F900010928100909181009860909381009091CF
:100FA0008100916090938100282F30E0F901E05793
:100FB000FF4FE491F0E0EE0FFF1FE255FF4F459128
:100FC00054915093380240933702F901E458FF4F8F
:100FD000249120933602332433942BC01092B00016
:100FE0001092B1009091B00092609093B0009091F7
:100FF000B10091609093B100282F30E0F901E057E3
:10100000FF4FE491F0E0EE0FFF1FE255FF4F4591D7
:1010100054915093310240933002F901E458FF4F4C
:10102000249120932F0252E0352E03C03E2E37FC30
:101030004BC161E00E9409064801A12CB12C832D0F
:101040008D7F09F0C0C060E072E18AE790E0A50101
:1010500094010E947D0D29833A834B835C8369014F
:101060007A0181E0C81AD108E108F1089FEFC9169A
:10107000D104E104F10409F008F49AC060E472E4D8
:101080008FE090E0A50194010E947D0D69017A0135
:10109000E1E0CE1AD108E108F108F2E03F1219C0F0
:1010A0008FEFC816D104E104F10409F008F487C0F9
:1010B00060E970ED83E090E0A50194010E947D0D50
:1010C00069017A0191E0C91AD108E108F10883E0C9
:1010D00001C082E0EFEFCE16D104E104F10409F083
:1010E00008F467C068E478EE81E090E0A50194011F
:1010F0000E947D0D69017A01F1E0CF1AD108E10863
:10110000F1083320E1F082E038121BC09FEFC916CE
:10111000D104E104F10409F008F4D4C064E274EFEE
:1011200080E090E0A50194010E947D0D69017A01A3
:10113000E1E0CE1AD108E108F10885E003C083E0C0
:1011400001C084E0FFEFCF16D104E104F10489F17E
:1011500080F162E17AE780E090E0A50194010E94CD
:101160007D0D69017A0181E0C81AD108E108F10812
:10117000311002C084E001C086E09FEFC916D1049F
:10118000E104F104B1F0A8F0C980DA80EB80FC80C2
:101190009AE0F594E794D794C7949A95D1F7E1E053
:1011A000CE1AD108E108F108332031F087E008C0F9
:1011B00081E0332011F004C085E085BD34C082E0B9
:1011C0008093B10030C060E072E18AE790E0A50151
:1011D00094010E947D0D69017A01F1E0CF1AD108D6
:1011E000E108F108C114D10481E0E806F10488F0B7
:1011F00068E478EE81E090E0A50194010E947D0D05
:1012000069017A0191E0C91AD108E108F10893E077
:1012100001C091E0E1E03E1206C080918100887F2C
:10122000892B80938100411451046104710471F091
:10123000D801AA0FBB1FA30192010E94AB0D28EE9B
:1012400033E040E050E00E945B0D03C02FEF3FEF22
:10125000A901F1E03F16A1F082E0381619F1311032
:1012600033C0C7BC209340023093410240934202F6
:101270005093430280916E00826080936E0024C080
:10128000D0928900C09288002093390230933A02AC
:1012900040933B0250933C0280916F0082608093A8
:1012A0006F0012C0C092B300209332023093330219
:1012B0004093340250933502809170008260809395
:1012C000700002C084E07CCF0F900F900F900F90C1
:1012D000DF91CF911F910F91FF90EF90DF90CF9012
:1012E000BF90AF909F908F907F906F905F904F9046
:1012F0003F900895813039F018F0823051F0089510
:1013000010926E00089580916F008D7F80936F0022
:101310000895809170008D7F8093700081E08093AC
:10132000B0008091B100887F84608093B1001092FA
:10133000B3000895CF93C82F8091C2018C1307C0CA
:10134000E2ECF0E084919FEF9093C20101C08FEF37
:101350000E947A0960E08C2FCF910C9442061F9274
:101360000F920FB60F9211242F933F934F935F93D9
:101370006F937F938F939F93AF93BF93EF93FF935D
:101380008091320290913302A0913402B0913502E3
:10139000892B8A2B8B2B51F190912F02E0913002F7
:1013A000F09131028081892780838091320290916F
:1013B0003302A0913402B0913502181619061A06AC
:1013C0001B06C4F48091320290913302A091340242
:1013D000B09135020197A109B1098093320290932F
:1013E0003302A0933402B093350204C08091C2014D
:1013F0000E949A09FF91EF91BF91AF919F918F91B8
:101400007F916F915F914F913F912F910F900FBE00
:101410000F901F90189508950E941A070E940B0ABA
:101420000E941905C0E0D0E00E9476052097E1F304
:101430000E940000F9CF4F925F926F927F92AF921D
:10144000BF92CF92DF92EF92FF920F931F93CF93B1
:10145000DF93CDB7DEB729013A01621B730B840B12
:10146000950B29893A894B895C892A193B094C09D2
:101470005D09298B3A8B4B8B5C8B9B01AC01698995
:101480007A898B899C890E94370DE418F508060932
:101490001709A80197010E947D0D2A0D3B1D4C1DC7
:1014A0005D1DCA01B901DF91CF911F910F91FF908E
:1014B000EF90DF90CF90BF90AF907F906F905F9054
:1014C0004F9008956F927F928F929F92AF92BF92AA
:1014D000CF92DF92EF92FF920F931F93CF93DF9300
:1014E000EA012CE3C22ED12CE12CF12CA7019601AC
:1014F0000E945B0D6883CA01B901A70196010E9491
:101500005B0D6983CA01B90128E130E040E050E099
:101510000E945B0D49015A016A83CA01B9016C5FDF
:101520007F4F8F4F9F4F27E030E040E050E00E9418
:101530005B0D6F5F6B8300E010E0980140E054E6C4
:10154000652E712C60E9C62EDD24D394E42FF0E0E3
:10155000EE54F84F7F0183E0E822FF24E114F10408
:1015600089F4CF01B3010E94470D892B29F08EE643
:1015700091E0A0E0B0E00AC0CF01B6010E94470DA3
:10158000892BA9F38DE691E0A0E0B0E0080F191FC8
:101590002A1F3B1FD901C801AA27BB278816990615
:1015A000AA06BB0610F04F5FD1CF4E83E114F104C1
:1015B00099F4CF0164E670E00E94470D892B29F071
:1015C0008EE691E0A0E0B0E00BC0CF0160E971E0F1
:1015D0000E94470D892BA1F38DE691E0A0E0B0E0D9
:1015E000081B190B2A0B3B0B801A910AA20AB30A9B
:1015F000CF0164E670E00E94470D9C01CF0160E9D5
:1016000071E00E94470DE3EDF1E0A0E0A13059F454
:10161000E114F10451F42115310511F04DE106C03A
:101620000097E1F302C0408101C04CE150E060E06E
:1016300070E084169506A606B70640F0841A950A4F
:10164000A60AB70AAF5F3196AC3001F7AF5FAD8342
:1016500083948C82DF91CF911F910F91FF90EF9037
:10166000DF90CF90BF90AF909F908F907F906F90C2
:101670000895CF92DF92EF92FF926B017C018091EF
:10168000540290915502A0915602B0915702C8168B
:10169000D906EA06FB0671F048E552E0C701B6013B
:1016A0000E94620AC0925402D0925502E092560201
:1016B000F0925702FF90EF90DF90CF9008950E9434
:1016C000390B80915E0290E08E54984F08956F928E
:1016D0007F928F929F92AF92BF92CF92DF92EF92C2
:1016E000FF920F931F93CF93DF93FC01C680AC2D25
:1016F000B0E020E833E341EE51E00E94AB0D4B0136
:101700005C0122EB37E06D01C4E6D0E000E911E0B6
:10171000C901825B97408C159D05DCF4C90183707B
:101720009927892B99F4C901BE010E94470D892B85
:1017300031F4C901B8010E94470D892B39F480E8C2
:10174000880E81E5981E81E0A81EB11C2F5F3F4FD7
:10175000DFCF6580712C8EE4C81A88EFD80AC601E5
:1017600064E670E00E94470D8C01C60160E971E0FB
:101770000E94470D7C01C1E0D0E083E0C822DD2457
:10178000C615D7052CF5C230D10589F4C114D10492
:1017900071F40115110519F4E114F10441F480E824
:1017A000880E8BE3981E86E2A81EB11C0FC0DE01D6
:1017B000AE52BE4FAC91B0E020E831E541E050E0E0
:1017C0000E94AB0D860E971EA81EB91E2196D8CF7B
:1017D0004181228130E0A0E1BEE00E949C0D6B01BE
:1017E0007C01242F30E0ACE3B0E00E949C0DC60EDB
:1017F000D71EE81EF91E8081C80ED11CE11CF11C09
:10180000A481B0E0119720E831E541E050E00E946A
:10181000B60DC60ED71EE81EF91EC80CD91CEA1C50
:10182000FB1CC701B601DF91CF911F910F91FF9073
:10183000EF90DF90CF90BF90AF909F908F907F9070
:101840006F9008950F931F9360935002709351020D
:1018500080935202909353020091C3011091C401EE
:101860002091C5013091C601060F171F281F391F8F
:10187000009348021093490220934A0230934B028E
:1018800082E090E090934702809346020E94EB062C
:1018900060934C0270934D0280934E0290934F02DE
:1018A0001F910F910895CF92DF92EF92FF920F93C5
:1018B0001F930E94EB06C0904C02D0904D02E09026
:1018C0004E02F0904F026C197D098E099F0900911C
:1018D0005002109151022091520230915302683E01
:1018E000734081059105D8F00F5F1F4F2F4F3F4F79
:1018F00000935002109351022093520230935302EE
:1019000048EEC40E43E0D41EE11CF11CC0924C0210
:10191000D0924D02E0924E02F0924F02CACF8091D7
:10192000480290914902A0914A02B0914B020817D7
:1019300019072A073B07C8F1E0914402F0914502DC
:10194000309799F10995611571058105910519F097
:101950000E94220C2AC08091C3019091C401A091E1
:10196000C501B091C6014091500250915102609161
:10197000520270915302840F951FA61FB71F8093C8
:10198000480290934902A0934A02B0934B0281E02F
:1019900090E02091460230914702232B11F480E021
:1019A00090E09093470280934602609150027091BC
:1019B000510280915202909153021F910F91FF901A
:1019C000EF90DF90CF9008950E94530C0E94390B46
:1019D00080915A0290E008950E94530C0E94390BA6
:1019E0008091590290E008950E94530C0E94390B97
:1019F0008091580290E008950E94530C0E94390B88
:101A000080915C0290E008950E94530C0E94390B73
:101A100080915D0290E008950E94530C0C945F0B3E
:101A2000EF92FF920F9394E6E916F1042CF092EBFB
:101A3000E91A97E0F90A03C09EE1E90EF11CE09271
:101A40005E0200935D0220935C0280935A026093D1
:101A500059024093580288E592E00E94670B0F916B
:101A6000FF90EF900C94220CF8940C94D20DDB01B3
:101A70008F939F930E94AB0DBF91AF91A29F800D5A
:101A8000911DA39F900DB29F900D1124089597FB77
:101A9000072E16F4009407D077FD09D00E94BE0DE2
:101AA00007FC05D03EF4909581959F4F0895709561
:101AB00061957F4F0895A1E21A2EAA1BBB1BFD0161
:101AC0000DC0AA1FBB1FEE1FFF1FA217B307E4071D
:101AD000F50720F0A21BB30BE40BF50B661F771F75
:101AE000881F991F1A9469F7609570958095909555
:101AF0009B01AC01BD01CF010895052E97FB1EF49B
:101B000000940E94940D57FD07D00E945B0D07FCC6
:101B100003D04EF40C94940D50954095309521953A
:101B20003F4F4F4F5F4F0895909580957095619509
:101B30007F4F8F4F9F4F0895A29FB001B39FC00169
:101B4000A39F700D811D1124911DB29F700D811DE9
:101B50001124911D08950E949C0DA59F900DB49F86
:101B6000900DA49F800D911D11240895B7FF0C9432
:101B7000AB0D0E94AB0D821B930B0895AA1BBB1BE0
:101B800051E107C0AA1FBB1FA617B70710F0A61B7D
:101B9000B70B881F991F5A95A9F780959095BC019E
:081BA000CD010895F894FFCF78
:101BA8000100000001010101010101000001010023
:101BB8000000000101000101000101010101000014
:101BC8000100010100000101010001010001010102
:101BD80000010101010101010100000000010101F2
:101BE80001010101010101010001010101010001DF
:101BF80001010100000101010001000001010101D2
:101C080001000000010101000101000101000000C4
:101C180000000101000001010101000000000001B5
:101C280001010000000100010001010100000101A3
:101C3800010001010101010000000000000000078F
:101C48000008000B000C000D000E000F0010000132
:101C580000020003000400050006000A001100123B
:101C68000001FF2C0100000000000001010001003C
:101C78000100001F1C1F1E1F1E1F1F1E1F1E1F00EE
:00000001FF
