:100000000C945C000C9479000C9479000C947900A9
:100010000C9479000C9479000C9479000C9479007C
:100020000C9479000C9479000C9479000C9479006C
:100030000C9479000C9479000C9479000C9479005C
:100040000C943F010C9479000C9479000C94790085
:100050000C9479000C9479000C9479000C9479003C
:100060000C9479000C947900000000080002010053
:100070000003040700000000000000000102040863
:100080001020408001020408102001020408102002
:10009000040404040404040402020202020203032E
:1000A0000303030300000000250028002B000000CC
:1000B0000000240027002A0011241FBECFEFD8E043
:1000C000DEBFCDBF11E0A0E0B1E0E2EBF3E002C0A3
:1000D00005900D92AC31B107D9F721E0ACE1B1E068
:1000E00001C01D92A532B207E1F70E94C5010C9430
:1000F000D4010C9400000F931F93CF93DF93C0E1C2
:10010000D1E08E0161E088810E94D000229661E0FA
:10011000F80180810E940901F1E0CC31DF0789F705
:10012000C0E0D1E08E0161E088810E94D00022967B
:1001300060E0F80180810E940901F1E0C031DF0731
:1001400089F7DF91CF911F910F9108950895833022
:1001500081F028F4813099F08230A1F00895873041
:10016000A9F08830B9F08430D1F4809180008F7D7F
:1001700003C0809180008F7780938000089584B5BC
:100180008F7702C084B58F7D84BD08958091B000C3
:100190008F7703C08091B0008F7D8093B000089569
:1001A000CF93DF9390E0FC01E458FF4F2491FC01D2
:1001B000E057FF4F8491882349F190E0880F991F01
:1001C000FC01E255FF4FA591B4918C559F4FFC0166
:1001D000C591D4919FB7611108C0F8948C91209576
:1001E00082238C93888182230AC0623051F4F89470
:1001F0008C91322F309583238C938881822B888336
:1002000004C0F8948C91822B8C939FBFDF91CF9187
:1002100008950F931F93CF93DF931F92CDB7DEB74F
:10022000282F30E0F901E859FF4F8491F901E45893
:10023000FF4F1491F901E057FF4F04910023C9F0DB
:10024000882321F069830E94A7006981E02FF0E0F4
:10025000EE0FFF1FEC55FF4FA591B4919FB7F89497
:100260008C91611103C01095812301C0812B8C9367
:100270009FBF0F90DF91CF911F910F9108951F9213
:100280000F920FB60F9211242F933F938F939F934A
:10029000AF93BF9380911D0190911E01A0911F010A
:1002A000B091200130911C0123E0230F2D3720F461
:1002B0000196A11DB11D05C026E8230F0296A11DC0
:1002C000B11D20931C0180931D0190931E01A093EA
:1002D0001F01B09320018091210190912201A091F2
:1002E0002301B09124010196A11DB11D809321012C
:1002F00090932201A0932301B0932401BF91AF9169
:100300009F918F913F912F910F900FBE0F901F9053
:100310001895789484B5826084BD84B5816084BD6D
:1003200085B5826085BD85B5816085BDEEE6F0E06E
:10033000808181608083E1E8F0E0108280818260CA
:100340008083808181608083E0E8F0E0808181604B
:100350008083E1EBF0E0808184608083E0EBF0E07B
:10036000808181608083EAE7F0E08081846080831F
:1003700080818260808380818160808380818068C9
:1003800080831092C100089508950E9489010E94FF
:10039000C4010E947B00C0E0D0E00E94A60020972C
:1003A000E1F30E940000F9CFF8940C94D701F8947F
:0203B000FFCF7D
:1003B20006000700080009000A000B000C000D00EF
:0C03C20000000100020003000400050020
:00000001FF
