:100000000C9462000C948A000C948A000C948A0070
:100010000C948A000C948A000C948A000C948A0038
:100020000C948A000C948A000C948A000C948A0028
:100030000C948A000C948A000C948A000C948A0018
:100040000C9406040C948A000C944D020C947F02CC
:100050000C948A000C948A000C948A000C948A00F8
:100060000C948A000C948A0008000000BE92244977
:10007000123EABAAAA2ABECDCCCC4C3E00000080DA
:10008000BEABAAAAAA3E00000000BF000000803F4D
:100090000000000000084178D3BB4387D1133D190D
:1000A0000E3CC3BD4282AD2B3E68EC8276BED98F3A
:1000B000E1A93E4C80EFFFBE01C4FF7F3F0000007E
:1000C0000000AF0211241FBECFEFD8E0DEBFCDBFCE
:1000D00011E0A0E0B1E0EAE0FFE002C005900D927F
:1000E000A231B107D9F721E0A2E1B1E001C01D9230
:1000F000A83BB207E1F710E0C4ECD0E004C02297BF
:10010000FE010E947F07C23CD107C9F70E94F90097
:100110000C9483070C9400000895CF92DF92EF9225
:10012000FF92BC01882777FD8095982F0E94F405E7
:100130009B01AC0160E070E080E894E40E94590506
:1001400020E030E040E85FE30E94F40420E030E487
:100150004CE156E40E94C5060E9485066B017C01B5
:1001600029E537E44CEB53E30E94C506A70196014D
:100170000E94C50623E73FE745E759E30E94F504DF
:10018000A70196010E94C5062BEE3FEF43E95AE313
:100190000E94F5049B01AC0160E070E080E89FE301
:1001A0000E94590523E333E948E853E40E94F4042C
:1001B000FF90EF90DF90CF90089526E040E052EC62
:1001C00061E070E082E191E00C94EB0180E00E943C
:1001D000D6040E948D000E94C1054AE050E082E1F1
:1001E00091E00E94EE0364E670E080E090E00C9401
:1001F00073040E949B040E948C000E94DD00C5E3F2
:10020000D1E00E94E6002097E1F30E943501F9CF8A
:10021000FC01818D228D90E0805C9F4F821B9109B3
:100220008F7399270895FC01918D828D981731F075
:10023000828DE80FF11D858D90E008958FEF9FEF7F
:100240000895FC01918D828D981761F0828DDF01F8
:10025000A80FB11D5D968C91928D9F5F9F73928FB9
:1002600090E008958FEF9FEF089585EA92E0892B43
:1002700049F080E090E0892B29F00E94A5028111CD
:100280000C9400000895FC01848DDF01A80FB11DBE
:10029000A35ABF4F2C91848D90E001968F739927BC
:1002A000848FA689B7892C93A089B1898C918064A9
:1002B0008C93938D848D981306C00288F389E02D6A
:1002C00080818F7D80830895CF93DF93EC01888DAB
:1002D0008823C9F0EA89FB89808185FD05C0A8894A
:1002E000B9898C9186FD0FC00FB607FCF5CF8081D0
:1002F00085FFF2CFA889B9898C9185FFEDCFCE011A
:100300000E944301E7CFDF91CF910895CF92DF9212
:10031000FF920F931F93CF93DF931F92CDB7DEB75A
:100320006C01DC015B969C915B975C968C915C9771
:10033000981307C05096ED91FC915197808185FDEF
:1003400032C0F601038D10E00F5F1F4F0F731127AE
:10035000F02EF601848DF81211C00FB607FCF9CF0C
:10036000D6015096ED91FC915197808185FFF1CF98
:10037000C60169830E9443016981EBCF838DE80F39
:10038000F11DE35AFF4F6083D6015B960C935B9798
:100390005296ED91FC91539780818062808381E039
:1003A00058968C930DC0D6015696ED91FC915797B7
:1003B00060835096ED91FC91519780818064808399
:1003C00081E090E00F90DF91CF911F910F91FF900E
:1003D000DF90CF900895BF92CF92DF92EF92FF927D
:1003E000CF93DF93EC016A017B01B22EE889F98992
:1003F00082E08083411581EE580761057105A1F007
:1004000060E079E08DE390E0A70196010E945B0730
:10041000215031094109510956954795379527953E
:10042000211580E1380798F0E889F989108260E8A1
:1004300074E88EE190E0A70196010E945B072150CD
:100440003109410951095695479537952795EC850E
:10045000FD853083EE85FF852083188EEC89FD892C
:10046000B082EA89FB89808180618083EA89FB8987
:10047000808188608083EA89FB89808180688083AD
:10048000EA89FB8980818F7D8083DF91CF91FF9006
:10049000EF90DF90CF90BF9008951F920F920FB60C
:1004A0000F9211242F938F939F93EF93FF93E091DB
:1004B0002201F09123018081E0912801F09129012E
:1004C00082FD12C0908180912B018F5F8F732091EC
:1004D0002C01821751F0E0912B01F0E0EE5EFE4F0F
:1004E000958F80932B0101C08081FF91EF919F91A7
:1004F0008F912F910F900FBE0F901F9018951F9204
:100500000F920FB60F9211242F933F934F935F9347
:100510006F937F938F939F93AF93BF93EF93FF93CB
:1005200082E191E00E944301FF91EF91BF91AF9171
:100530009F918F917F916F915F914F913F912F91FB
:100540000F900FBE0F901F90189582E191E00E94CE
:10055000080121E0892B09F420E0822F08951092F0
:1005600015011092140188EE93E0A0E0B0E08093B2
:10057000160190931701A0931801B093190185E01B
:1005800091E0909313018093120185EC90E0909399
:100590001F0180931E0184EC90E0909321018093D1
:1005A000200180EC90E0909323018093220181EC64
:1005B00090E0909325018093240182EC90E0909349
:1005C00027018093260186EC90E090932901809387
:1005D000280110922B0110922C0110922D011092E3
:1005E0002E010895CF92DF92EF92FF920F931F9307
:1005F000CF93DF936C017A01EB01E60EF71E00E06A
:1006000010E0CE15DF0561F06991D601ED91FC9106
:100610000190F081E02DC6010995080F191FF1CF57
:10062000C801DF91CF911F910F91FF90EF90DF9064
:10063000CF9008956115710581F0DB010D900020C8
:10064000E9F7AD0141505109461B570BDC01ED9113
:10065000FC910280F381E02D099480E090E0089500
:10066000DC01ED91FC910190F081E02D09940F9354
:100670001F93CF93DF93EC016DE00E9430038C0158
:100680006AE0CE010E943003800F911FDF91CF916D
:100690001F910F9108958F929F92AF92BF92CF9228
:1006A000DF92EF92FF920F931F93CF93DF93CDB71B
:1006B000DEB7A1970FB6F894DEBF0FBECDBF7C01A9
:1006C000C42EE52FCB01D22E19A221E02D1510F05A
:1006D0002AE0D22E8E010F5D1F4F8D2C912CA12C64
:1006E000B12C6C2D7E2FA50194010E945B078C2DEF
:1006F000D29E80191124015011098A3014F4805DB2
:1007000001C0895CF801808321153105410551053F
:1007100021F0C22EE32FCA01E4CFB801C7010E9425
:100720001A03A1960FB6F894DEBF0FBECDBFDF91BE
:10073000CF911F910F91FF90EF90DF90CF90BF90DE
:10074000AF909F908F900895CF92DF92EF92FF929B
:100750000F931F93CF93DF93EC016A017B01211567
:10076000310579F4E881F9810190F081E02D642F61
:10077000DF91CF911F910F91FF90EF90DF90CF907D
:1007800009942A303105E9F477FF1AC06DE20E941E
:1007900030038C0144275527BA014C195D096E09B5
:1007A0007F092AE0CE010E944B03800F911FDF9149
:1007B000CF911F910F91FF90EF90DF90CF90089510
:1007C0002AE0B701A601CE01DF91CF911F910F91D1
:1007D000FF90EF90DF90CF900C944B030F931F93FB
:1007E000CF93DF93EC019A01AB01662757FD60952B
:1007F000762F0E94A4038C01CE010E943703800F44
:10080000911FDF91CF911F910F9108951F920F9229
:100810000FB60F9211242F933F938F939F93AF9313
:10082000BF938091B0019091B101A091B201B091BC
:10083000B3013091AF0123E0230F2D3720F401964F
:10084000A11DB11D05C026E8230F0296A11DB11DF3
:100850002093AF018093B0019093B101A093B201B6
:10086000B093B3018091B4019091B501A091B6010C
:10087000B091B7010196A11DB11D8093B401909371
:10088000B501A093B601B093B701BF91AF919F910D
:100890008F913F912F910F900FBE0F901F90189541
:1008A0003FB7F8948091B4019091B501A091B60141
:1008B000B091B70126B5A89B05C02F3F19F001964E
:1008C000A11DB11D3FBF6627782F892F9A2F620F78
:1008D000711D811D911D42E0660F771F881F991FB2
:1008E0004A95D1F70895CF92DF92EF92FF92CF937E
:1008F000DF936B017C010E945004EB01C114D10411
:10090000E104F10489F00E94F3040E9450046C1B7E
:100910007D0B683E734090F381E0C81AD108E1086E
:10092000F108C851DC4FEACFDF91CF91FF90EF90F3
:10093000DF90CF900895789484B5826084BD84B5AB
:10094000816084BD85B5826085BD85B5816085BDCA
:10095000EEE6F0E0808181608083E1E8F0E01082E3
:10096000808182608083808181608083E0E8F0E024
:10097000808181608083E1EBF0E08081846080830E
:10098000E0EBF0E0808181608083EAE7F0E0808145
:1009900084608083808182608083808181608083A5
:1009A0008081806880831092C10008958E3008F0A5
:1009B0008E5087702091000190E4299F90011124AE
:1009C000822B80937C0080917A00806480937A00EF
:1009D00080917A0086FDFCCF80917800209179008B
:1009E00090E0922B089508955058BB27AA270ED067
:1009F0004DC13ED130F043D120F031F49F3F11F48E
:100A00001EF433C10EF4E095E7FB29C1E92F4FD165
:100A100080F3BA17620773078407950718F071F41B
:100A20009EF567C10EF4E0950B2EBA2FA02D0B0199
:100A3000B90190010C01CA01A0011124FF27591B23
:100A400099F0593F50F4503E68F11A16F040A22F29
:100A5000232F342F4427585FF3CF4695379527959A
:100A6000A795F0405395C9F77EF41F16BA0B620B99
:100A7000730B840BBAF09150A1F0FF0FBB1F661FE0
:100A8000771F881FC2F70EC0BA0F621F731F841F23
:100A900048F4879577956795B795F7959E3F08F049
:100AA000B3CF9395880F08F09927EE0F9795879508
:100AB00008950CD0EBC0E3D040F0DAD030F021F450
:100AC0005F3F19F0CCC0511115C1CFC0F0D098F3E1
:100AD0009923C9F35523B1F3951B550BBB27AA27BF
:100AE00062177307840738F09F5F5F4F220F331F31
:100AF000441FAA1FA9F333D00E2E3AF0E0E830D0FD
:100B000091505040E695001CCAF729D0FE2F27D0FF
:100B1000660F771F881FBB1F261737074807AB07CD
:100B2000B0E809F0BB0B802DBF01FF2793585F4F42
:100B30002AF09E3F510568F092C0DCC05F3FECF3A5
:100B4000983EDCF3869577956795B795F7959F5F07
:100B5000C9F7880F911D9695879597F90895E1E05B
:100B6000660F771F881FBB1F621773078407BA07BA
:100B700020F0621B730B840BBA0BEE1F88F7E09515
:100B8000089504D06894B111B5C0089598D088F044
:100B90009F5790F0B92F9927B751A0F0D1F0660F69
:100BA000771F881F991F1AF0BA95C9F712C0B13084
:100BB00081F09FD0B1E008959CC0672F782F8827DF
:100BC000B85F39F0B93FCCF3869577956795B395C3
:100BD000D9F73EF490958095709561957F4F8F4F32
:100BE0009F4F0895E89409C097FB3EF49095809537
:100BF000709561957F4F8F4F9F4F9923A9F0F92FE3
:100C000096E9BB279395F695879577956795B79560
:100C1000F111F8CFFAF4BB0F11F460FF1BC06F5F46
:100C20007F4F8F4F9F4F16C0882311F096E911C058
:100C3000772321F09EE8872F762F05C0662371F079
:100C400096E8862F70E060E02AF09A95660F771F8D
:100C5000881FDAF7880F9695879597F9089597F981
:100C60009F6780E870E060E008959FEF80EC089552
:100C700000240A941616170618060906089500247B
:100C80000A9412161306140605060895092E0394F5
:100C9000000C11F4882352F0BB0F40F4BF2B11F469
:100CA00060FF04C06F5F7F4F8F4F9F4F089557FDC8
:100CB0009058440F551F59F05F3F71F04795880FCA
:100CC00097FB991F61F09F3F79F087950895121661
:100CD00013061406551FF2CF4695F1DF08C016160D
:100CE00017061806991FF1CF8695710561050894BE
:100CF0000895E894BB2766277727CB0197F90895D5
:100D00000EF0A6C0B2CF6894AACFD9DFC8F399235A
:100D1000D1F3C6F3DF93CF931F930F93FF92C92FA5
:100D2000DD2788232AF02197660F771F881FDAF7BF
:100D300020E030E040E85FEB9FE3883920F0803E20
:100D400030F021968F7751DEE8E6F0E003C04DDE0B
:100D5000E5E9F0E08BD08B01BE01EC01FB2E6F5773
:100D600071097595771F880B990B3EDF28E132E7F3
:100D700041E35FE316D0AF2D9801AE01FF900F91D4
:100D80001F91CF91DF9142DE81CF0BD07FCF70DFFB
:100D900028F075DF18F0952309F061CF66CF112494
:100DA000A9CF85DFA0F3959FD1F3950F50E0551F94
:100DB000629FF001729FBB27F00DB11D639FAA27B0
:100DC000F00DB11DAA1F649F6627B00DA11D661FFF
:100DD000829F2227B00DA11D621F739FB00DA11D20
:100DE000621F839FA00D611D221F749F3327A00DDA
:100DF000611D231F849F600D211D822F762F6A2F76
:100E000011249F5750408AF0E1F088234AF0EE0FFA
:100E1000FF1FBB1F661F771F881F91505040A9F707
:100E20009E3F510570F01BCF65CF5F3FECF3983EBE
:100E3000DCF3869577956795B795F795E7959F5F6E
:100E4000C1F7FE2B880F911D9695879597F9089508
:100E50009F3F31F0915020F4879577956795B7952E
:100E6000880F911D9695879597F90895DF93CF93F5
:100E70001F930F93FF92EF92DF927B018C01689496
:100E800005C0DA2EEF018DDFFE01E894A5912591D2
:100E9000359145915591AEF3EF01B8DDFE01970113
:100EA000A801DA9479F7DF90EF90FF900F911F91EE
:100EB000CF91DF910895A1E21A2EAA1BBB1BFD0161
:100EC0000DC0AA1FBB1FEE1FFF1FA217B307E40729
:100ED000F50720F0A21BB30BE40BF50B661F771F81
:100EE000881F991F1A9469F7609570958095909561
:100EF0009B01AC01BD01CF010895EE0FFF1F0590CE
:0A0F0000F491E02D0994F894FFCF5E
:100F0A0001000000008601F20208012101130164B8
:020F1A000100D4
:00000001FF
