:100000000C9462000C948A000C948A000C948A0070
:100010000C948A000C948A000C948A000C948A0038
:100020000C948A000C948A000C948A000C948A0028
:100030000C948A000C948A000C948A000C948A0018
:100040000C94B8030C948A000C9486030C946003FF
:100050000C948A000C948A000C948A000C948A00F8
:100060000C948A000C948A000000000024002700F1
:100070002A0000000000250028002B0000000008D6
:10008000000201000003040700000000000000005F
:1000900000000000230026002900040404040404D6
:1000A0000404020202020202030303030303010227
:1000B00004081020408001020408102001020408F6
:1000C0001020020411241FBECFEFD8E0DEBFCDBF49
:1000D00011E0A0E0B1E0E4E9FFE002C005900D927C
:1000E000A233B107D9F721E0A2E3B1E001C01D922C
:1000F000A63FB207E1F710E0C2E6D0E004C02197C6
:10010000FE010E94BD07C136D107C9F70E949004C5
:100110000C94C8070C940000CF92DF92EF92FF92EC
:100120000F931F93CF93DF936C017A018B01C0E093
:10013000D0E0CE15DF0581F0D8016D918D01D6019B
:10014000ED91FC910190F081E02DC6010995892B7C
:1001500011F02196EECF7E01C701DF91CF911F9163
:100160000F91FF90EF90DF90CF900895089580E079
:1001700090E00895FC01538D448D252F30E0842FAD
:1001800090E0821B930B541710F0CF9608950197BF
:100190000895FC01918D828D981761F0828DDF01A9
:1001A000A80FB11D5D968C91928D9F5F9F73928F6A
:1001B00090E008958FEF9FEF0895FC01918D828D5F
:1001C000981731F0828DE80FF11D858D90E008952C
:1001D0008FEF9FEF0895FC01918D228D892F90E084
:1001E000805C9F4F821B91098F739927089587E345
:1001F00091E00E94EB0021E0892B09F420E0822F9E
:100200000895FC01848DDF01A80FB11DA35ABF4FD3
:100210002C91848D90E001968F739927848FA68905
:10022000B7892C93A089B1898C91837080648C9359
:10023000938D848D981306C00288F389E02D808108
:100240008F7D80830895EF92FF920F931F93CF933A
:10025000DF93EC0181E0888F9B8D8C8D981305C016
:10026000E889F989808185FD26C0F62E0B8D10E086
:100270000F5F1F4F0F731127E02E8C8DE8120CC0FB
:100280000FB607FCFACFE889F989808185FFF5CFA1
:10029000CE010E940101F1CF8B8DFE01E80FF11D0F
:1002A000E35AFF4FF0829FB7F8940B8FEA89FB89DE
:1002B000808180620AC09FB7F894EE89FF896083CD
:1002C000E889F98980818370806480839FBF81E0A1
:1002D00090E0DF91CF911F910F91FF90EF900895E3
:1002E000CF93DF93EC01888D8823C9F0EA89FB89DD
:1002F000808185FD05C0A889B9898C9186FD0FC0D4
:100300000FB607FCF5CF808185FFF2CFA889B989A8
:100310008C9185FFEDCFCE010E940101E7CFDF91E7
:10032000CF91089580E090E0892B29F00E94F7009A
:1003300081110C940000089590E0FC01E458FF4FF7
:100340002491FC01E255FF4F3491FC01E656FF4F2A
:10035000E491EE2309F43CC0222339F1233091F0DB
:1003600038F42130A9F0223001F584B58F7D12C018
:10037000273091F02830A1F02430B9F4809180002A
:100380008F7D03C0809180008F77809380000DC0A7
:1003900084B58F7784BD09C08091B0008F7703C08A
:1003A0008091B0008F7D8093B000F0E0EE0FFF1FD2
:1003B000EE58FF4FA591B4919FB7F894611104C016
:1003C0008C913095382302C0EC913E2B3C939FBF1B
:1003D0000895CF93DF9390E0FC01E255FF4F249105
:1003E000FC01E656FF4F8491882361F190E0880F6D
:1003F000991FFC01E859FF4FC591D491FC01EE58BB
:10040000FF4FA591B491611109C09FB7F8948881FD
:10041000209582238883EC912E230BC0623061F4F7
:100420009FB7F8948881322F309583238883EC918D
:100430002E2B2C939FBF06C08FB7F894E8812E2BEC
:1004400028838FBFDF91CF9108951F93CF93DF93C0
:10045000182FEB0161E00E94E901209711F460E0A0
:1004600004C0CF3FD10539F461E0812FDF91CF91F6
:100470001F910C949C01E12FF0E0E458FF4FE491B0
:10048000E330F9F048F4E130B9F0E230A1F584B599
:10049000806284BDC8BD34C0E730E9F0E83019F1AE
:1004A000E43049F580918000806280938000D09391
:1004B0008B00C0938A0024C084B5806884BDC7BD0A
:1004C0001FC080918000806880938000D093890055
:1004D000C093880015C08091B00080688093B00000
:1004E000C093B3000DC08091B00080628093B000D3
:1004F000C093B40005C0C038D1050CF0B5CFAFCF64
:10050000DF91CF911F9108953FB7F8948091330107
:1005100090913401A0913501B091360126B5A89B88
:1005200005C02F3F19F00196A11DB11D3FBFBA2F85
:10053000A92F982F8827820F911DA11DB11DBC01E5
:10054000CD0142E0660F771F881F991F4A95D1F7AA
:1005500008958F929F92AF92BF92CF92DF92EF92C7
:10056000FF926B017C010E9484024B015C01C1146B
:10057000D104E104F104F1F00E948402DC01CB011A
:1005800088199909AA09BB09883E9340A105B105BC
:1005900070F321E0C21AD108E108F10888EE880E54
:1005A00083E0981EA11CB11CC114D104E104F10424
:1005B00019F7DDCFFF90EF90DF90CF90BF90AF9015
:1005C0009F908F900895CF92DF92EF92FF9288EEE6
:1005D000C82E83E0D82EE12CF12C61E08DE00E9442
:1005E0009C01C701B6010E94A90260E08DE00E9453
:1005F0009C01C701B6010E94A90284E6C81AD1086D
:10060000E108F10851F761E08DE0FF90EF90DF9095
:10061000CF900C949C01009769F0FC0101900020A0
:10062000E9F73197AF01481B590BBC0187E391E013
:100630000C948C0080E090E008958F929F92AF928E
:10064000BF920F931F93CF93DF93CDB7DEB7A197E0
:100650000FB6F894DEBF0FBECDBF19A2423008F42A
:100660004AE08E010F5D1F4F842E912CA12CB12CDE
:10067000A50194010E949B07E62FB901CA01015010
:100680001109EA3014F4E05D01C0E95CD801EC9393
:10069000232B242B252B61F7C8010E940B03A19665
:1006A0000FB6F894DEBF0FBECDBFDF91CF911F9183
:1006B0000F91BF90AF909F908F9008950E94C307B5
:1006C0001F920F920FB60F9211242F933F934F93C7
:1006D0005F936F937F938F939F93AF93BF93EF93AA
:1006E000FF9387E391E00E940101FF91EF91BF9199
:1006F000AF919F918F917F916F915F914F913F91BA
:100700002F910F900FBE0F901F9018951F920F9270
:100710000FB60F9211242F938F939F93EF93FF9314
:10072000E0914701F09148018081E0914D01F09105
:100730004E0182FD12C09081809150018F5F8F73B6
:1007400020915101821751F0E0915001F0E0E95CF5
:10075000FE4F958F8093500101C08081FF91EF91F2
:100760009F918F912F910F900FBE0F901F90189512
:100770001F920F920FB60F9211242F933F938F93D6
:100780009F93AF93BF938091D4019091D501A09195
:10079000D601B091D7013091320123E0230F2D37DC
:1007A00020F40196A11DB11D05C026E8230F029675
:1007B000A11DB11D209332018093D4019093D501E6
:1007C000A093D601B093D701809133019091340169
:1007D000A0913501B09136010196A11DB11D809304
:1007E000330190933401A0933501B0933601BF914A
:1007F000AF919F918F913F912F910F900FBE0F90CE
:100800001F901895CF93DF93E7E3F1E013821282F4
:1008100088EE93E0A0E0B0E084839583A683B7835D
:1008200084E091E09183808385EC90E095878487D4
:1008300084EC90E09787868780EC90E0918B808BAA
:1008400081EC90E0938B828B82EC90E0958B848B93
:1008500086EC90E0978B868B118E128E138E148E01
:10086000C8EDD1E081E090E09983888386E391E050
:100870009F838E8380EE95E7A9E0B0E08887998713
:10088000AA87BB8780E29EE4A0E0B0E08C879D87CA
:10089000AE87BF8761E084E00E94E90160E087E005
:1008A0000E94E90160E084E00E949C01E2EBF0E03C
:1008B000E491E88FEEE9F0E0E491F0E0EE0FFF1F45
:1008C000E057FF4F859194919A8F898FE5EBF0E087
:1008D000E491EB8FE1EAF0E0E491F0E0EE0FFF1F2E
:1008E000E057FF4F859194919D8F8C8F8FEF9FEFF5
:1008F000AFEFBFE08A839B83AC83BD832FB7F894AF
:100900008091D4019091D501A091D601B091D701E9
:100910002FBF888B998BAA8BBB8BDF91CF910895CA
:10092000789484B5826084BD84B5816084BD85B5CA
:10093000826085BD85B5816085BD80916E008160D6
:1009400080936E001092810080918100826080937C
:10095000810080918100816080938100809180007E
:100960008160809380008091B10084608093B100A9
:100970008091B00081608093B00080917A008460A3
:1009800080937A0080917A00826080937A008091CF
:100990007A00816080937A0080917A0080688093E9
:1009A0007A001092C100E0914701F091480182E085
:1009B0008083E0914301F09144011082E091450170
:1009C000F09146018FEC808310924F01E0914B0132
:1009D000F0914C0186E08083E0914901F0914A0159
:1009E000808180618083E0914901F0914A0180819A
:1009F00088608083E0914901F0914A01808180689C
:100A00008083E0914901F0914A0180818F7D80834C
:100A100061E08DE00E94E90161E082E00E94E9016D
:100A200061E083E00E94E90161E086E00E94E90163
:100A300061E089E00E94E9010E94E30261E082E056
:100A40000E949C0168E873E180E090E00E94A902A6
:100A500060E082E00E949C0124EFC22EDD24D3944A
:100A6000E12CF12C61E082E00E949C01C701B601FB
:100A70000E94A90260E082E00E949C0164EF71E0A4
:100A800080E090E00E94A90287E1C81AD108E1083D
:100A9000F10888E2C816D104E104F10419F761E015
:100AA00083E00E949C0164EF71E080E090E00E948E
:100AB000A90260E083E00E949C0161E086E00E9460
:100AC0009C0164EF71E080E090E00E94A90260E088
:100AD00086E00E949C0161E089E00E949C0164EF35
:100AE00071E080E090E00E94A90260E089E00E944D
:100AF0009C0164EF71E080E090E00E94A90261E057
:100B000083E00E949C0161E086E00E949C0161E01C
:100B100089E00E949C0168EE73E080E090E00E9412
:100B2000A90260E083E00E949C0164EF71E080E034
:100B300090E00E94A90261E083E00E949C0160E0D5
:100B400086E00E949C0164EF71E080E090E00E94EA
:100B5000A90261E086E00E949C0160E089E00E94B9
:100B60009C0164EF71E080E090E00E94A90260E0E7
:100B700083E00E949C0160E086E00E949C01C0E04E
:100B8000D0E0BE0183E00E9425026CE070E080E0CE
:100B900090E00E94A9022196C11581E0D80789F74B
:100BA00060E083E00E949C01C0E0D0E0BE0186E0EE
:100BB0000E9425026CE070E080E090E00E94A902B3
:100BC0002196C11581E0D80789F760E086E00E9490
:100BD0009C01C0E0D0E0BE0189E00E9425026CE0EB
:100BE00070E080E090E00E94A9022196C11581E0AA
:100BF000D80789F760E089E00E949C0161E082E00B
:100C00000E949C01C3EED2E061E08C2F0E949C0107
:100C100061E083E00E949C0161E086E00E949C010B
:100C200061E089E00E949C0160E177E280E090E071
:100C30000E94A90260E082E00E949C0160E08C2F8B
:100C40000E949C0160E083E00E949C0160E086E0DD
:100C50000E949C0160E089E00E949C0182E191E099
:100C60000E940B038EE191E00E940B0310E4C3E2AB
:100C7000D0E081E291E00E940B0310937C00809110
:100C80007A00806480937A0080917A0086FDFCCFA0
:100C9000809178002091790090E0922B6C01092ED0
:100CA000000CEE08FF0897FF0EC06DE287E391E0AD
:100CB0000E94230166277727CB016C197D098E09D5
:100CC0009F094AE003C04AE0C701B6010E941D0324
:100CD00080E391E00E940B0388E291E00E940B0305
:100CE0001092EC011092ED011092EE011092EF01C2
:100CF0008091D8019091D90197FD7FC024E6F894A6
:100D0000E091F101F091F20192818091F0018095E2
:100D100089238283E091F401F091F5019181809122
:100D2000F301809589238183E091F401F091F5012D
:100D300092818091F301809589238283E091F4016F
:100D4000F091F50191818091F301892B8183E091EC
:100D5000F401F091F50192818091F301809589234E
:100D60008283CE010197F1F7E091F401F091F50152
:100D700091818091F301809589238183E091F40131
:100D8000F091F50192818091F3018095892382830E
:100D9000E091F101F091F20192818091F001892BB3
:100DA00082837894E091F401F091F501F090F301E1
:100DB0004091E0015091E1016091E2017091E30105
:100DC00030813F218091EC019091ED01A091EE01E5
:100DD000B091EF0131112DC084179507A607B70711
:100DE00040F50196A11DB11D8093EC019093ED019A
:100DF000A093EE01B093EF01E3CFCC24CA94DC2C96
:100E000076016DE287E391E00E9423016627772750
:100E1000CB016C197D098E099F094AE00E941D03D0
:100E200080E391E00E940B038EE191E00E940B03AE
:100E300020CF481759076A077B0708F46DC0F8945C
:100E4000E091F401F091F50192818091F301892BF9
:100E50008283E091F401F091F50191818091F30199
:100E6000892B8183E091F401F091F50192818091C9
:100E7000F301892B8283E091F401F091F5019181D6
:100E80008091F301809589238183E091F401F091B1
:100E9000F50192818091F301809589238283E0910D
:100EA000F101F091F20192818091F0018095892306
:100EB00082837894E091F401F091F5014091F3017F
:100EC000C090E001D090E101E090E201F090E301F8
:100ED000308134236091EC017091ED018091EE013D
:100EE0009091EF01332399F06C157D058E059F05D8
:100EF00070F4DC01CB010196A11DB11D8093EC01C2
:100F00009093ED01A093EE01B093EF01E1CF6C154A
:100F10007D058E059F0538F08EEFC82EDD24DA940E
:100F2000ED2CFD2C6ECF215009F0E9CE6B017C0138
:100F300097FF73CF66CFA1E21A2EAA1BBB1BFD0140
:100F40000DC0AA1FBB1FEE1FFF1FA217B307E407A8
:100F5000F50720F0A21BB30BE40BF50B661F771F00
:100F6000881F991F1A9469F76095709580959095E0
:100F70009B01AC01BD01CF010895EE0FFF1F05904D
:100F8000F491E02D099481E090E0F8940C94C80766
:040F9000F894FFCF03
:100F94000000000023018C00BA007001EB00C900BE
:100FA400DD0053657269616C2074657374000D0A09
:100FB40000506F743A20090053656E736F723A20C3
:020FC400090022
:00000001FF
