:100000000C9463000C948B000C948B000C948B006C
:100010000C948B000C948B000C948B000C94C306F6
:100020000C948B000C948B000C948B000C948B0024
:100030000C948B000C948B000C948B000C948B0014
:100040000C94A9030C948B000C9435080C9467084D
:100050000C948B000C948B000C948B000C948B00F4
:100060000C948B000C948B0000000008000201002F
:100070000003040700000000000000000102040863
:100080001020408001020408102001020408102002
:10009000040404040404040402020202020203032E
:1000A00003030303000000002300260029000000D2
:1000B0000000250028002B0000000000240027007D
:1000C0002A000200970811241FBECFEFD8E0DEBF40
:1000D000CDBF11E0A0E0B1E0EEE2F6E102C0059094
:1000E0000D92A434B107D9F722E0A4E4B1E001C035
:1000F0001D92A03DB207E1F710E0C6ECD0E004C0CD
:100100002297FE010E94020BC43CD107C9F70E944E
:10011000DB080C94930A0C940000EF92FF920F936B
:100120001F93CF93DF9300D000D0CDB7DEB7CE01C1
:1001300001967C0100E010E00430110559F0B8018F
:100140008FEC92E00E942F0AF70181937F010F5FED
:100150001F4FF2CF69817A818B819C810F900F9024
:100160000F900F90DF91CF911F910F91FF90EF9023
:100170000C948A0AAF92BF92CF92DF92EF92FF92D5
:100180000F931F93CF93DF9300D000D0CDB7DEB78E
:100190000E94850A6B017C0169837A838B839C832F
:1001A0008E010F5F1F4F60E070E0F80141918F01F9
:1001B0005B01FFEFAF1ABF0A8FEC92E00E94320A98
:1001C00084E0A816B10411F0B501EFCFC701B60164
:1001D0000F900F900F900F90DF91CF911F910F9183
:1001E000FF90EF90DF90CF90BF90AF900895EF9287
:1001F000FF920F931F93CF93DF930E948D00CBE26A
:10020000D1E003E211E0E880229661E08E2D0E94A9
:100210001103F801F0800E5F1F4F60E08F2D0E94E8
:10022000110360E08E2D0E944A0361E08F2D0E9431
:100230004A03F1E0C333DF0731F761E08DE00E944C
:10024000110326E040E458E360E070E082E392E0CE
:100250000E94CD0969E071E082E392E00E94780794
:1002600062E370E080E090E0DF91CF911F910F9109
:10027000FF90EF900C942204CF93DF93C09148013C
:10028000D09149010E94BA00CC0FDD1FC65BDE4F42
:1002900024E030E040E050E00E94CE0A7983688399
:1002A0006091480170914901CB01019690934901F9
:1002B0008093480170934701609346014AE050E003
:1002C00082E392E00E942D0881E020914801309164
:1002D00049012336310509F480E0DF91CF9108957B
:1002E000EF92FF920F931F93CF93DF93CAE4D1E075
:1002F00000E010E08091480190914901081719072A
:10030000B4F57E01E881F981EE0FFF1FE55DFE4F38
:1003100061E080810E944A03E991F991EE0FFF1F8D
:10032000E55EFE4F6081718120E030E0A9018DE043
:100330000E94860464EF71E080E090E00E94220455
:10034000D701ED91FC91EE0FFF1FE55DFE4F60E0E0
:1003500080810E944A038DE00E94AE0664EF71E046
:1003600080E090E00E9422040F5F1F4FC3CFDF9117
:10037000CF911F910F91FF90EF900895DF92EF9230
:10038000FF920F931F93CF93DF9363E2E62E61E01A
:10039000F62E04E011E0C0E1D2E0DD24D394F701B1
:1003A0008081F2E0EF0EF11C0E948003482F552758
:1003B00047FD5095F801208130E04217530739F08E
:1003C000811103C0D882108203C0F801D082188244
:1003D0000F5F1F4F2196FBE2EF16F1E0FF06F9F6E3
:1003E000DF91CF911F910F91FF90EF90DF900895D3
:1003F000CF92DF92EF92FF92CF93DF93C82F0E94AC
:10040000F3036B017C01EC2FEE0FFF0BE65BFE4F5D
:10041000C0810E94F3036C197D098E099F09643C19
:10042000794081059105D0F50E94BE01E0E1F2E03E
:1004300080E090E02191222361F12C2F332727FDCA
:1004400030958217930771F5EC01CC0FDD1FFE018B
:10045000E55DFE4FF08061E08F2D0E944A03C55E8E
:10046000DE4F6881798120E030E0A9018DE00E94B3
:10047000860464EF71E080E090E00E94220460E076
:100480008F2D0E944A038DE00E94AE068FEF9FEFF2
:1004900009C001968430910569F6BBCF8C2F99274E
:1004A00087FD9095DF91CF91FF90EF90DF90CF90F7
:1004B0000895CF93DF93EC01CC0FDD1FC65BDE4FB9
:1004C000E881F981EE0FFF1FE55DFE4F61E080815D
:1004D0000E944A0320E030E0A9016EE670E08DE062
:1004E0000E9486046EEE72E080E090E00E9422049A
:1004F000E881F981EE0FFF1FE55DFE4F60E080812E
:100500000E944A038DE00E94AE0664EF71E080E035
:1005100090E0DF91CF910C9422048823B9F08AE017
:100520000E948003892B79F08BE00E948003892B45
:1005300051F081E10E948003892B29F082E10E9421
:100540008003892B61F70E947001E9CF0895CF9352
:10055000DF930E943C018823B9F168EE73E080E0EC
:1005600090E00E9422040E947001C0E0D0E08091DF
:10057000480190914901C817D907E4F48C2F0E94D3
:10058000F80190934501809344018F3F2FEF92072C
:1005900011F42196ECCF0E945902D0E0C1E064EF43
:1005A00071E080E090E00E942204C1110CC0DD23C4
:1005B000A1F2CFCF6FEA70E080E090E00E942204C9
:1005C000D1E0C0E0ECCF81E0DF91CF910C948D02BF
:1005D000833081F028F4813099F08230A1F00895C1
:1005E0008730A9F08830B9F08430D1F48091800050
:1005F0008F7D03C0809180008F7780938000089565
:1006000084B58F7702C084B58F7D84BD08958091B5
:10061000B0008F7703C08091B0008F7D8093B000D1
:100620000895CF93DF9390E0FC01E458FF4F2491AD
:10063000FC01E057FF4F8491882349F190E0880F37
:10064000991FFC01E854FF4FA591B49182559F4F2B
:10065000FC01C591D4919FB7611108C0F8948C91A9
:10066000209582238C93888182230AC0623051F4C2
:10067000F8948C91322F309583238C938881822B30
:10068000888304C0F8948C91822B8C939FBFDF9158
:10069000CF9108950F931F93CF93DF931F92CDB700
:1006A000DEB7282F30E0F901E859FF4F8491F901B6
:1006B000E458FF4F1491F901E057FF4F04910023D4
:1006C000C9F0882321F069830E94E8026981E02F44
:1006D000F0E0EE0FFF1FE255FF4FA591B4919FB7D9
:1006E000F8948C91611103C01095812301C0812B76
:1006F0008C939FBF0F90DF91CF911F910F91089521
:10070000CF93DF93282F30E0F901E859FF4F849110
:10071000F901E458FF4FD491F901E057FF4FC4911C
:10072000CC2391F081110E94E802EC2FF0E0EE0F53
:10073000FF1FEC55FF4FA591B4912C912D2381E023
:1007400090E021F480E002C080E090E0DF91CF9162
:1007500008951F920F920FB60F9211242F933F937B
:100760008F939F93AF93BF93809115029091160240
:10077000A0911702B09118023091140223E0230FC8
:100780002D3720F40196A11DB11D05C026E8230FC9
:100790000296A11DB11D209314028093150290931F
:1007A0001602A0931702B09318028091190290913B
:1007B0001A02A0911B02B0911C020196A11DB11D4D
:1007C0008093190290931A02A0931B02B0931C020B
:1007D000BF91AF919F918F913F912F910F900FBE3D
:1007E0000F901F9018952FB7F89460911502709193
:1007F000160280911702909118022FBF08953FB7FB
:10080000F8948091190290911A02A0911B02B09164
:100810001C0226B5A89B05C02F3F19F00196A11D0B
:10082000B11D3FBF6627782F892F9A2F620F711D48
:10083000811D911D42E0660F771F881F991F4A9501
:10084000D1F70895CF92DF92EF92FF92CF93DF938B
:100850006B017C010E94FF03EB01C114D104E10490
:10086000F10489F00E9485040E94FF036C1B7D0B3C
:10087000683E734090F381E0C81AD108E108F1089E
:10088000C851DC4FEACFDF91CF91FF90EF90DF901E
:10089000CF900895789484B5826084BD84B58160DA
:1008A00084BD85B5826085BD85B5816085BDEEE678
:1008B000F0E0808181608083E1E8F0E01082808157
:1008C00082608083808181608083E0E8F0E08081C5
:1008D00081608083E1EBF0E0808184608083E0EBE5
:1008E000F0E0808181608083EAE7F0E080818460CD
:1008F0008083808182608083808181608083808129
:10090000806880831092C100089508953F924F92AD
:100910005F926F927F928F929F92AF92BF92CF928F
:10092000DF92EF92FF920F931F93CF93DF9300D04C
:1009300000D0CDB7DEB78B0129013A0190910801B3
:10094000981721F09F3F09F0D3C104C0E2ECF0E01A
:10095000349081C080930801E2ECF0E0E491EF3F35
:1009600009F4C6C1E13031F1E23009F44BC0E111C4
:1009700071C014BC15BC94B5926094BD95B59160DE
:1009800095BD282F30E0F901E057FF4FE491F0E0EA
:10099000EE0FFF1FE255FF4F4591549150932D02EA
:1009A00040932C02F901E458FF4F249120932B022D
:1009B000312C53C0109280001092810090918100E0
:1009C0009860909381009091810091609093810054
:1009D000282F30E0F901E057FF4FE491F0E0EE0FEF
:1009E000FF1FE255FF4F45915491509326024093CB
:1009F0002502F901E458FF4F249120932402332467
:100A000033942BC01092B0001092B1009091B000BE
:100A100092609093B0009091B10091609093B1007A
:100A2000282F30E0F901E057FF4FE491F0E0EE0F9E
:100A3000FF1FE255FF4F4591549150931F02409381
:100A40001E02F901E458FF4F249120931D0252E049
:100A5000352E03C03E2E37FC4BC161E00E941103CE
:100A60004801A12CB12C832D8D7F09F0C0C060E01E
:100A700072E18AE790E0A50194010E94CE0A2983E1
:100A80003A834B835C8369017A0181E0C81AD108FB
:100A9000E108F1089FEFC916D104E104F10409F05F
:100AA00008F49AC060E472E48FE090E0A50194013C
:100AB0000E94CE0A69017A01E1E0CE1AD108E1086C
:100AC000F108F2E03F1219C08FEFC816D104E1041B
:100AD000F10409F008F487C060E970ED83E090E06C
:100AE000A50194010E94CE0A69017A0191E0C91A18
:100AF000D108E108F10883E001C082E0EFEFCE16F3
:100B0000D104E104F10409F008F467C068E478EE68
:100B100081E090E0A50194010E94CE0A69017A016A
:100B2000F1E0CF1AD108E108F1083320E1F082E0CA
:100B300038121BC09FEFC916D104E104F10409F07B
:100B400008F4D4C064E274EF80E090E0A501940161
:100B50000E94CE0A69017A01E1E0CE1AD108E108CB
:100B6000F10885E003C083E001C084E0FFEFCF1609
:100B7000D104E104F10489F180F162E17AE780E0D7
:100B800090E0A50194010E94CE0A69017A0181E0FA
:100B9000C81AD108E108F108311002C084E001C090
:100BA00086E09FEFC916D104E104F104B1F0A8F08A
:100BB000C980DA80EB80FC809AE0F594E794D794C2
:100BC000C7949A95D1F7E1E0CE1AD108E108F1086F
:100BD000332031F087E008C081E0332011F004C0F9
:100BE00085E085BD34C082E08093B10030C060E014
:100BF00072E18AE790E0A50194010E94CE0A6901A2
:100C00007A01F1E0CF1AD108E108F108C114D1044A
:100C100081E0E806F10488F068E478EE81E090E095
:100C2000A50194010E94CE0A69017A0191E0C91AD6
:100C3000D108E108F10893E001C091E0E1E03E1243
:100C400006C080918100887F892B809381004114A8
:100C500051046104710471F0D801AA0FBB1FA301F4
:100C600092010E94ED0A28EE33E040E050E00E943D
:100C7000AC0A03C02FEF3FEFA901F1E03F16A1F04E
:100C800082E0381619F1311033C0C7BC20932E0210
:100C900030932F02409330025093310280916E00C6
:100CA000826080936E0024C0D0928900C092880038
:100CB00020932702309328024093290250932A025E
:100CC00080916F00826080936F0012C0C092B30069
:100CD000209320023093210240932202509323025A
:100CE0008091700082608093700002C084E07CCFAD
:100CF0000F900F900F900F90DF91CF911F910F9158
:100D0000FF90EF90DF90CF90BF90AF909F908F902B
:100D10007F906F905F904F903F900895813039F0B1
:100D200018F0823051F0089510926E00089580916D
:100D30006F008D7F80936F000895809170008D7F8C
:100D40008093700081E08093B0008091B100887F33
:100D500084608093B1001092B3000895CF93C82FA0
:100D6000809108018C1307C0E2ECF0E084919FEFC2
:100D70009093080101C08FEF0E948E0660E08C2FD7
:100D8000CF910C944A031F920F920FB60F92112429
:100D90002F933F934F935F936F937F938F939F9383
:100DA000AF93BF93EF93FF93809120029091210224
:100DB000A0912202B0912302892B8A2B8B2B51F117
:100DC00090911D02E0911E02F0911F0280818927FF
:100DD00080838091200290912102A0912202B09103
:100DE0002302181619061A061B06C4F48091200265
:100DF00090912102A0912202B09123020197A109B2
:100E0000B1098093200290932102A0932202B09313
:100E1000230204C0809108010E94AE06FF91EF9169
:100E2000BF91AF919F918F917F916F915F914F9102
:100E30003F912F910F900FBE0F901F901895CF925A
:100E4000DF92EF92FF920F931F93CF93DF936C018A
:100E50007A01EB01E60EF71E00E010E0CE15DF058B
:100E600061F06991D601ED91FC910190F081E02D46
:100E7000C6010995080F191FF1CFC801DF91CF9165
:100E80001F910F91FF90EF90DF90CF900895611523
:100E9000710581F0DB010D900020E9F7AD014150B3
:100EA0005109461B570BDC01ED91FC910280F38147
:100EB000E02D099480E090E00895DC01ED91FC9133
:100EC0000190F081E02D09940F931F93CF93DF934E
:100ED000EC016DE00E945D078C016AE0CE010E948A
:100EE0005D07800F911FDF91CF911F910F910895A2
:100EF0000F931F93CF93DF93EC010E9447078C0160
:100F0000CE010E946407800F911FDF91CF911F9146
:100F10000F9108958F929F92AF92BF92CF92DF92DE
:100F2000EF92FF920F931F93CF93DF93CDB7DEB76E
:100F3000A1970FB6F894DEBF0FBECDBF7C01C42EC3
:100F4000E52FCB01D22E19A221E02D1510F02AE0B9
:100F5000D22E8E010F5D1F4F8D2C912CA12CB12C08
:100F60006C2D7E2FA50194010E94AC0A8C2DD29E7F
:100F700080191124015011098A3014F4805D01C0D8
:100F8000895CF8018083211531054105510521F067
:100F9000C22EE32FCA01E4CFB801C7010E94470760
:100FA000A1960FB6F894DEBF0FBECDBFDF91CF91F3
:100FB0001F910F91FF90EF90DF90CF90BF90AF9077
:100FC0009F908F900895CF92DF92EF92FF920F93B0
:100FD0001F93CF93DF93EC016A017B01211531054B
:100FE00079F4E881F9810190F081E02D642FDF919F
:100FF000CF911F910F91FF90EF90DF90CF900994C8
:101000002A303105E9F477FF1AC06DE20E945D07CE
:101010008C0144275527BA014C195D096E097F09D7
:101020002AE0CE010E948A07800F911FDF91CF91A5
:101030001F910F91FF90EF90DF90CF9008952AE0DD
:10104000B701A601CE01DF91CF911F910F91FF90C3
:10105000EF90DF90CF900C948A079A01AB0166273E
:1010600057FD6095762F0C94E3071F920F920FB6F1
:101070000F9211242F938F939F93EF93FF93E091FF
:101080004202F09143028081E0914802F0914902CE
:1010900082FD12C0908180914B028F5F8F732091EF
:1010A0004C02821751F0E0914B02F0E0EE5CFD4FF4
:1010B000958F80934B0201C08081FF91EF919F91AA
:1010C0008F912F910F900FBE0F901F9018951F9228
:1010D0000F920FB60F9211242F933F934F935F936C
:1010E0006F937F938F939F93AF93BF93EF93FF93F0
:1010F00082E392E00E942509FF91EF91BF91AF91A9
:101100009F918F917F916F915F914F913F912F911F
:101110000F900FBE0F901F90189582E392E00E94EF
:10112000EA0821E0892B09F420E0822F089510922B
:1011300035021092340288EE93E0A0E0B0E0809394
:10114000360290933702A0933802B093390287E3B6
:1011500091E0909333028093320285EC90E090937B
:101160003F0280933E0284EC90E090934102809392
:10117000400280EC90E0909343028093420281EC25
:1011800090E0909345028093440282EC90E090932B
:1011900047028093460286EC90E090934902809348
:1011A000480210924B0210924C0210924D02109283
:1011B0004E02089508950E944A040E94DA080E948F
:1011C000F700C7E1D9E00E94A7022097E1F30E944F
:1011D0001709F9CFFC01818D228D90E0805C9F4F33
:1011E000821B91098F7399270895FC01918D828D3F
:1011F000981731F0828DE80FF11D858D90E00895EC
:101200008FEF9FEF0895FC01918D828D981761F00B
:10121000828DDF01A80FB11D5D968C91928D9F5F2D
:101220009F73928F90E008958FEF9FEF08958DE860
:1012300098E0892B49F080E090E0892B29F00E940A
:101240008D0881110C9400000895FC01848DDF014C
:10125000A80FB11DA35ABF4F2C91848D90E0019629
:101260008F739927848FA689B7892C93A089B18918
:101270008C9180648C93938D848D981306C0028822
:10128000F389E02D80818F7D80830895CF93DF9354
:10129000EC01888D8823C9F0EA89FB89808185FD6E
:1012A00005C0A889B9898C9186FD0FC00FB607FCCF
:1012B000F5CF808185FFF2CFA889B9898C9185FF10
:1012C000EDCFCE010E942509E7CFDF91CF910895A0
:1012D000CF92DF92FF920F931F93CF93DF931F92D2
:1012E000CDB7DEB76C01DC015B969C915B975C9699
:1012F0008C915C97981307C05096ED91FC91519793
:10130000808185FD32C0F601038D10E00F5F1F4F15
:101310000F731127F02EF601848DF81211C00FB64D
:1013200007FCF9CFD6015096ED91FC915197808141
:1013300085FFF1CFC60169830E9425096981EBCF42
:10134000838DE80FF11DE35AFF4F6083D6015B9652
:101350000C935B975296ED91FC915397808180623C
:10136000808381E058968C930DC0D6015696ED91FE
:10137000FC91579760835096ED91FC915197808135
:101380008064808381E090E00F90DF91CF911F9186
:101390000F91FF90DF90CF900895BF92CF92DF9290
:1013A000EF92FF92CF93DF93EC016A017B01B22EA3
:1013B000E889F98982E08083411581EE580761054B
:1013C0007105A1F060E079E08DE390E0A70196015E
:1013D0000E94AC0A2150310941095109569547959F
:1013E00037952795211580E1380798F0E889F98924
:1013F000108260E874E88EE190E0A70196010E94F7
:10140000AC0A215031094109510956954795379544
:101410002795EC85FD853083EE85FF852083188E2A
:10142000EC89FD89B082EA89FB89808180618083B3
:10143000EA89FB89808188608083EA89FB898081D1
:1014400080688083EA89FB8980818F7D8083DF913A
:10145000CF91FF90EF90DF90CF90BF900895CB0198
:101460000C94960ACB01642F0C949E0A8F929F9243
:10147000AF92BF92CF92DF92EF92FF92CF93DF9322
:10148000EC01688179818A819B81611571058105F3
:10149000910521F464E279ED8BE597E02DE133EFDE
:1014A00041E050E00E94CE0A49015A019B01AC0183
:1014B000A7EAB1E40E94ED0A6B017C01ACEEB4EF47
:1014C000A50194010E94FB0AC60ED71EE81EF91E54
:1014D000F7FE06C081E0C81AD108E10880E8F80AE2
:1014E000C882D982EA82FB82C701B6019F77DF9169
:1014F000CF91FF90EF90DF90CF90BF90AF909F90F3
:101500008F9008950E94360A089580E091E00E942D
:10151000360A0895609300017093010180930201DF
:10152000909303010895F8940C94150BF999FECF4C
:1015300092BD81BDF89A992780B50895262FF99913
:10154000FECF1FBA92BD81BD20BD0FB6F894FA9AA6
:10155000F99A0FBE01960895A1E21A2EAA1BBB1B91
:10156000FD010DC0AA1FBB1FEE1FFF1FA217B3076F
:10157000E407F50720F0A21BB30BE40BF50B661F85
:10158000771F881F991F1A9469F760957095809549
:1015900090959B01AC01BD01CF010895052E97FBED
:1015A0001EF400940E94E50A57FD07D00E94AC0A81
:1015B00007FC03D04EF40C94E50A50954095309505
:1015C00021953F4F4F4F5F4F0895909580957095AF
:1015D00061957F4F8F4F9F4F08950E94060BA59FE7
:1015E000900DB49F900DA49F800D911D112408951E
:1015F000B7FF0C94ED0A0E94ED0A821B930B08952D
:10160000EE0FFF1F0590F491E02D0994A29FB00109
:10161000B39FC001A39F700D811D1124911DB29F26
:0E162000700D811D1124911D0895F894FFCFC7
:10162E000100000001010101FF496E697469616CDE
:10163E0069736174696F6E2E2E2E004A011501B802
:10164E0001A5000A000B001100120009000C001089
:10165E000013000000000068091F07EA080309F5DF
:04166E000846090021
:00000001FF
