:100000000C9462000C947F000C947F000C947F0091
:100010000C947F000C947F000C947F000C94F107EB
:100020000C947F000C947F000C947F000C947F0054
:100030000C947F000C947F000C947F000C947F0044
:100040000C9423050C947F000C947F000C947F008B
:100050000C947F000C947F000C947F000C947F0024
:100060000C947F000C947F00000000080002010047
:100070000003040700000000000000000102040863
:100080001020408001020408102001020408102002
:10009000040404040404040402020202020203032E
:1000A00003030303000000002300260029000000D2
:1000B0000000250028002B0000000000240027007D
:1000C0002A00020011241FBECFEFD8E0DEBFCDBF53
:1000D00011E0A0E0B1E0EEECF2E102C005900D927B
:1000E000AC3BB107D9F722E0ACEBB1E001C01D9207
:1000F000A23DB207E1F70E944E080C94C1080C948F
:100100000000EF92FF920F931F93CF93DF9300D0E5
:1001100000D0CDB7DEB7CE0101967C0100E010E043
:100120000430110559F0B80181ED92E00E945D089C
:10013000F70181937F010F5F1F4FF2CF69817A81B1
:100140008B819C810F900F900F900F90DF91CF913A
:100150001F910F91FF90EF900C94B808AF92BF924F
:10016000CF92DF92EF92FF920F931F93CF93DF9383
:1001700000D000D0CDB7DEB70E94B3086B017C0180
:1001800069837A838B839C838E010F5F1F4F60E0AE
:1001900070E0F80141918F015B01FFEFAF1ABF0AD8
:1001A00081ED92E00E94600884E0A816B10411F08D
:1001B000B501EFCFC701B6010F900F900F900F90D0
:1001C000DF91CF911F910F91FF90EF90DF90CF9033
:1001D000BF90AF900895FF920F931F93CF93DF933B
:1001E0000E946D050091CB011091CC012091CD01B1
:1001F0003091CE01601B710B820B930B6B3071053C
:100200008105910508F443C0E091BC01F0E0EE0FD8
:10021000FF1FE155FD4F60E080810E94C404809182
:10022000BC018F5F823019F08093BC0102C0109234
:10023000BC01C1EAD2E000E010E097E0F92E88812D
:1002400022969091BC01F801F99EE00DF11D112458
:10025000E354FE4F60810E94C4040F5F1F4F0730BC
:10026000110569F7E091BC01F0E0EE0FFF1FE155C9
:10027000FD4F61E080810E94C4040E946D0560937F
:10028000CB017093CC018093CD019093CE01DF918F
:10029000CF911F910F91FF9008958F929F92AF92EF
:1002A000BF92CF92DF92EF92FF926C010E946D0598
:1002B0004B015C01E12CF12C0E946D056819790954
:1002C0008A099B096C157D058E059F0518F40E940F
:1002D000EB00F2CFFF90EF90DF90CF90BF90AF9008
:1002E0009F908F900895ADEBB1E020E030E057E0B3
:1002F000FC014081F901549FE00DF11D1124EC5FD8
:10030000FE4F40814D932F5F3F4F2730310581F7DE
:10031000A4ECB1E020E030E057E0FC014181F901BC
:10032000549FE00DF11D1124EC5FFE4F40814D9371
:100330002F5F3F4F2730310581F708950F931F93AB
:10034000CF93DF9300D0CDB7DEB70091D5011091E8
:10035000D6010E94AE00000F111F09521E4F24E06B
:1003600030E040E050E00E941009F80171836083A2
:100370002091D5013091D601C90101969093D60103
:100380008093D5013093D4012093D3012A303105D5
:100390001CF485E1898306C0C9016AE070E00E940F
:1003A000DA086983C9016AE070E00E94DA088A838A
:1003B000CE0101960E94730181E02091D501309118
:1003C000D6012336310509F480E00F900F90DF91BC
:1003D000CF911F910F910895BF92CF92DF92EF922C
:1003E000FF920F931F93CF93DF93B82EE090D50128
:1003F000F090D601882319F041E0E41AF108C7ED26
:10040000D1E000E010E00E151F050CF063C06E0196
:10041000E881F981EE0FFF1FED54FE4F61E080810E
:100420000E94C404E881F981EE0FFF1FED55FE4FD5
:100430006081718120E030E0A9018DE00E94B40567
:100440008AEF90E00E944D012091D3013091D401B8
:10045000293131055CF4B1100BC046EF4203C001F5
:10046000439F900D112486509F4F04C0BB2021F064
:1004700086E990E00E944D012296D601ED91FC9113
:10048000EE0FFF1FED54FE4F60E080810E94C40418
:100490008DE00E94DC078AEF90E00E944D012091E0
:1004A000D3013091D401293131055CF4B1100BC076
:1004B00046EF4203C001439F900D112486509F4F89
:1004C00004C0BB2021F086E990E00E944D010F5F3F
:1004D0001F4F99CFDF91CF911F910F91FF90EF9018
:1004E000DF90CF90BF900895DF92EF92FF920F932D
:1004F0001F93CF93DF937BEAE72E71E0F72E0EE98F
:1005000011E0CDE9D2E0DD24D394F7018081F2E05F
:10051000EF0EF11C0E94FA04482F552747FD509515
:10052000F801208130E04217530739F0811103C0F0
:10053000D882108203C0F801D08218820F5F1F4F4B
:100540002196F3EBEF16F1E0FF06F9F6DF91CF917C
:100550001F910F91FF90EF90DF900895CF92DF925F
:10056000EF92FF92CF93DF93C82F0E946D056B012E
:100570007C01EC2FEE0FFF0BE952FE4FC0810E9471
:100580006D056C197D098E099F09643C79408105D0
:100590009105D0F50E94EB000E947402EDE9F2E0B3
:1005A00080E090E02191222351F12C2F332727FD69
:1005B00030958217930761F5EC01CC0FDD1FFE012A
:1005C000ED54FE4FF08061E08F2D0E94C404CD55A4
:1005D000DE4F6881798120E030E0A9018DE00E9442
:1005E000B40584EF91E00E944D0160E08F2D0E94E0
:1005F000C4048DE00E94DC078FEF9FEF09C00196D5
:100600008430910579F6BBCF8C2F992787FD909583
:10061000DF91CF91FF90EF90DF90CF900895CF932F
:10062000DF93EC01CC0FDD1FC952DE4FE881F98169
:10063000EE0FFF1FED54FE4F61E080810E94C40465
:1006400020E030E0A9016EE670E08DE00E94B40584
:100650008EEE92E00E944D01E881F981EE0FFF1FBE
:10066000ED54FE4F60E080810E94C4048DE00E9442
:10067000DC0784EF91E0DF91CF910C944D010F9353
:100680001F93CF93DF938C01EB014881BC0181ED77
:1006900092E00E946008B8016F5F7F4F498181ED51
:1006A00092E00E94600882E090E0DF91CF911F917C
:1006B0000F910895882359F12091D3013091D401ED
:1006C0008091D1019091D2018217930734F463EDA8
:1006D00071E085E090E00E943F030E94EB008AE019
:1006E0000E94FA04892B79F08BE00E94FA04892B8E
:1006F00051F081E10E94FA04892B29F082E10E94E5
:10070000FA04892B51F781E00E94EC01E6CF0895AD
:10071000CF93DF930E949E01882391F188EE93E0AE
:100720000E944D0180E00E94EC01C0E0D0E0809189
:10073000D5019091D601C817D907D4F48C2F0E9407
:10074000AE029093D0018093CF018F3F2FEF92079D
:1007500011F42196ECCF0E940F03D0E0C1E084EFAA
:1007600091E00E944D01C1110AC0DD23B9F2D2CF40
:100770008FEA90E00E944D01D1E0C0E0F0CF81E02F
:10078000DF91CF910C945A03CF92DF92EF92FF92B8
:100790000F931F93CF93DF9300D000D0CDB7DEB778
:1007A00068E070E081ED92E00E945D088B8369E073
:1007B00070E081ED92E00E945D088C838B819C81CA
:1007C00081309140D9F01A821982BE016F5F7F4F4C
:1007D00085E090E00E943F0381E091E09C838B8361
:1007E00041E068E070E081ED92E00E94600841E045
:1007F00069E070E081ED92E00E9460080E94810053
:1008000065E070E081ED92E00E945D088093D10187
:1008100066E070E081ED92E00E945D088093D20175
:1008200003EB11E08BEAE82E81E0F82EF801C0809E
:100830000E5F1F4F61E08C2D0E948B04F701D0806A
:10084000F2E0EF0EF11C60E08D2D0E948B0460E061
:100850008C2D0E94C40461E08D2D0E94C40421E00F
:100860000B3B120719F761E08DE00E948B04209189
:10087000D1013091D2012A3031051CF485E1898300
:1008800006C0C9016AE070E00E94DA086983C90104
:100890006AE070E00E94DA088A83CE0101960E9425
:1008A00073018CED95E00E944D010F900F900F9019
:1008B0000F90DF91CF911F910F91FF90EF90DF90FC
:1008C000CF900895833081F028F4813099F0823000
:1008D000A1F008958730A9F08830B9F08430D1F4C0
:1008E000809180008F7D03C0809180008F778093FE
:1008F0008000089584B58F7702C084B58F7D84BD54
:1009000008958091B0008F7703C08091B0008F7DF3
:100910008093B0000895CF93DF9390E0FC01E458FA
:10092000FF4F2491FC01E057FF4F8491882349F148
:1009300090E0880F991FFC01E854FF4FA591B491F6
:1009400082559F4FFC01C591D4919FB7611108C09A
:10095000F8948C91209582238C93888182230AC0FD
:10096000623051F4F8948C91322F309583238C931C
:100970008881822B888304C0F8948C91822B8C937D
:100980009FBFDF91CF9108950F931F93CF93DF9374
:100990001F92CDB7DEB7282F30E0F901E859FF4F9D
:1009A0008491F901E458FF4F1491F901E057FF4F8A
:1009B00004910023C9F0882321F069830E94620416
:1009C0006981E02FF0E0EE0FFF1FE255FF4FA59188
:1009D000B4919FB7F8948C91611103C01095812355
:1009E00001C0812B8C939FBF0F90DF91CF911F91FE
:1009F0000F910895CF93DF93282F30E0F901E85944
:100A0000FF4F8491F901E458FF4FD491F901E05769
:100A1000FF4FC491CC2391F081110E946204EC2F0E
:100A2000F0E0EE0FFF1FEC55FF4FA591B4912C9114
:100A30002D2381E090E021F480E002C080E090E08E
:100A4000DF91CF9108951F920F920FB60F9211244C
:100A50002F933F938F939F93AF93BF938091B40253
:100A60009091B502A091B602B091B7023091B30255
:100A700023E0230F2D3720F40196A11DB11D05C0E1
:100A800026E8230F0296A11DB11D2093B302809387
:100A9000B4029093B502A093B602B093B7028091CE
:100AA000B8029091B902A091BA02B091BB0201962E
:100AB000A11DB11D8093B8029093B902A093BA0210
:100AC000B093BB02BF91AF919F918F913F912F91B6
:100AD0000F900FBE0F901F9018952FB7F89460914C
:100AE000B4027091B5028091B6029091B7022FBF07
:100AF0000895789484B5826084BD84B5816084BD96
:100B000085B5826085BD85B5816085BDEEE6F0E086
:100B1000808181608083E1E8F0E0108280818260E2
:100B20008083808181608083E0E8F0E08081816063
:100B30008083E1EBF0E0808184608083E0EBF0E093
:100B4000808181608083EAE7F0E080818460808337
:100B500080818260808380818160808380818068E1
:100B600080831092C10008953F924F925F926F92DE
:100B70007F928F929F92AF92BF92CF92DF92EF922D
:100B8000FF920F931F93CF93DF9300D000D0CDB788
:100B9000DEB78B0129013A019091A201981721F04B
:100BA0009F3F09F0D3C104C0E2ECF0E0349081C073
:100BB0008093A201E2ECF0E0E491EF3F09F4C6C1BA
:100BC000E13031F1E23009F44BC0E11171C014BCE5
:100BD00015BC94B5926094BD95B5916095BD282FD4
:100BE00030E0F901E057FF4FE491F0E0EE0FFF1F16
:100BF000E255FF4F459154915093CC024093CB0264
:100C0000F901E458FF4F24912093CA02312C53C0BC
:100C100010928000109281009091810098609093D2
:100C2000810090918100916090938100282F30E0A5
:100C3000F901E057FF4FE491F0E0EE0FFF1FE2559E
:100C4000FF4F459154915093C5024093C402F9015E
:100C5000E458FF4F24912093C302332433942BC0D4
:100C60001092B0001092B1009091B00092609093F9
:100C7000B0009091B10091609093B100282F30E0C6
:100C8000F901E057FF4FE491F0E0EE0FFF1FE2554E
:100C9000FF4F459154915093BE024093BD02F9011C
:100CA000E458FF4F24912093BC0252E0352E03C03C
:100CB0003E2E37FC4BC161E00E948B044801A12C01
:100CC000B12C832D8D7F09F0C0C060E072E18AE70E
:100CD00090E0A50194010E94100929833A834B8377
:100CE0005C8369017A0181E0C81AD108E108F10842
:100CF0009FEFC916D104E104F10409F008F49AC089
:100D000060E472E48FE090E0A50194010E94100974
:100D100069017A01E1E0CE1AD108E108F108F2E0B8
:100D20003F1219C08FEFC816D104E104F10409F095
:100D300008F487C060E970ED83E090E0A5019401BC
:100D40000E94100969017A0191E0C91AD108E108ED
:100D5000F10883E001C082E0EFEFCE16D104E10498
:100D6000F10409F008F467C068E478EE81E090E0EF
:100D7000A50194010E94100969017A01F1E0CF1ADE
:100D8000D108E108F1083320E1F082E038121BC0FD
:100D90009FEFC916D104E104F10409F008F4D4C0AE
:100DA00064E274EF80E090E0A50194010E941009D4
:100DB00069017A01E1E0CE1AD108E108F10885E085
:100DC00003C083E001C084E0FFEFCF16D104E1044B
:100DD000F10489F180F162E17AE780E090E0A50119
:100DE00094010E94100969017A0181E0C81AD108B2
:100DF000E108F108311002C084E001C086E09FEFF5
:100E0000C916D104E104F104B1F0A8F0C980DA8078
:100E1000EB80FC809AE0F594E794D794C7949A9578
:100E2000D1F7E1E0CE1AD108E108F108332031F022
:100E300087E008C081E0332011F004C085E085BD63
:100E400034C082E08093B10030C060E072E18AE794
:100E500090E0A50194010E94100969017A01F1E076
:100E6000CF1AD108E108F108C114D10481E0E806E5
:100E7000F10488F068E478EE81E090E0A501940147
:100E80000E94100969017A0191E0C91AD108E108AC
:100E9000F10893E001C091E0E1E03E1206C08091CC
:100EA0008100887F892B8093810041145104610463
:100EB000710471F0D801AA0FBB1FA30192010E9417
:100EC0002F0928EE33E040E050E00E94EE0803C016
:100ED0002FEF3FEFA901F1E03F16A1F082E03816B5
:100EE00019F1311033C0C7BC2093CD023093CE022C
:100EF0004093CF025093D00280916E008260809325
:100F00006E0024C0D0928900C09288002093C6024F
:100F10003093C7024093C8025093C90280916F007A
:100F2000826080936F0012C0C092B3002093BF0212
:100F30003093C0024093C1025093C202809170006E
:100F400082608093700002C084E07CCF0F900F908D
:100F50000F900F90DF91CF911F910F91FF90EF9025
:100F6000DF90CF90BF90AF909F908F907F906F90C9
:100F70005F904F903F900895813039F018F08230A3
:100F800051F0089510926E00089580916F008D7F4A
:100F900080936F000895809170008D7F8093700022
:100FA00081E08093B0008091B100887F846080935D
:100FB000B1001092B3000895CF93C82F8091A20181
:100FC0008C1307C0E2ECF0E084919FEF9093A201B4
:100FD00001C08FEF0E94BC0760E08C2FCF910C9472
:100FE000C4041F920F920FB60F9211242F933F93B8
:100FF0004F935F936F937F938F939F93AF93BF9321
:10100000EF93FF938091BF029091C002A091C10223
:10101000B091C202892B8A2B8B2B51F19091BC028B
:10102000E091BD02F091BE0280818927808380918A
:10103000BF029091C002A091C102B091C2021816E5
:1010400019061A061B06C4F48091BF029091C002D3
:10105000A091C102B091C2020197A109B109809388
:10106000BF029093C002A093C102B093C20204C019
:101070008091A2010E94DC07FF91EF91BF91AF9197
:101080009F918F917F916F915F914F913F912F91A0
:101090000F900FBE0F901F90189508950E9479052C
:1010A0000E944D080E94C403C0E0D0E00E94880363
:1010B0002097E1F30E940000F9CFCB010C94C40803
:1010C000CB01642F0C94CC088F929F92AF92BF9269
:1010D000CF92DF92EF92FF92CF93DF93EC01688182
:1010E00079818A819B81611571058105910521F4C2
:1010F00064E279ED8BE597E02DE133EF41E050E0DC
:101100000E94100949015A019B01AC01A7EAB1E410
:101110000E942F096B017C01ACEEB4EFA501940194
:101120000E943D09C60ED71EE81EF91EF7FE06C036
:1011300081E0C81AD108E10880E8F80AC882D9829B
:10114000EA82FB82C701B6019F77DF91CF91FF90C2
:10115000EF90DF90CF90BF90AF909F908F900895C9
:101160000E946408089580E091E00E946408089558
:101170006093000170930101809302019093030139
:101180000895F8940C946509F999FECF92BD81BD3C
:10119000F89A992780B50895262FF999FECF1FBA9E
:1011A00092BD81BD20BD0FB6F894FA9AF99A0FBE90
:1011B0000196089597FB072E16F4009407D077FD4B
:1011C00009D00E94420907FC05D03EF49095819514
:1011D0009F4F0895709561957F4F0895A1E21A2E53
:1011E000AA1BBB1BFD010DC0AA1FBB1FEE1FFF1FCB
:1011F000A217B307E407F50720F0A21BB30BE40B1B
:10120000F50B661F771F881F991F1A9469F7609561
:101210007095809590959B01AC01BD01CF0108951B
:10122000052E97FB1EF400940E94270957FD07D056
:101230000E94EE0807FC03D04EF40C942709509549
:101240004095309521953F4F4F4F5F4F08959095B2
:101250008095709561957F4F8F4F9F4F08950E94A5
:101260005609A59F900DB49F900DA49F800D911DD0
:1012700011240895B7FF0C942F090E942F09821B97
:10128000930B0895AA1BBB1B51E107C0AA1FBB1FEC
:10129000A617B70710F0A61BB70B881F991F5A9502
:1012A000A9F780959095BC01CD010895A29FB0014A
:1012B000B39FC001A39F700D811D1124911DB29F8A
:0E12C000700D811D1124911D0895F894FFCF2B
:1012CE000100000001010101010100000101000007
:1012DE0000000101000101000101010101000001F6
:1012EE0000010100000101010001010001010100E6
:1012FE0001010101010101010000000001010101D4
:10130E0001010101010101000101010101000101C1
:10131E0001010000010101000100000101010101B4
:10132E0000000001010100010100010100000000A8
:10133E000001010000010101010000000000010197
:10134E000100000001000100010101000001010186
:10135E000001010101010000000000000000010178
:10136E000101FF4A011501B801A5000A000B001189
:0C137E0000120009000C00100013000019
:00000001FF
