:100000000C9464000C948C000C948C000C948C0068
:100010000C948C000C948C000C948C000C948C0030
:100020000C948C000C948C000C948C000C9418088C
:100030000C948C000C948C000C948C000C948C0010
:100040000C94F8050C948C000C9478010C94CA0163
:100050000C948C000C948C000C948C000C948C00F0
:100060000C948C000C948C000000000024002700ED
:100070002A0000000000250028002B0000000000DE
:1000800023002600290004040404040404040202DA
:100090000202020203030303030301020408102007
:1000A0004080010204081020010204081020000012
:1000B0000007000201000003040600000000000029
:1000C0000000FC003903F50011241FBECFEFD8E07B
:1000D000DEBFCDBF11E0A0E0B1E0E4EDF8E102C089
:1000E00005900D92AE33B107D9F712E0AEE3B1E05F
:1000F00001C01D92A632B107E1F710E0C6ECD0E0D6
:1001000004C02297FE010E94590CC23CD107C9F7D6
:100110000E94E7050C945D0C0C9400001F93FC01F9
:1001200099278827BC01E89411911032E9F319301E
:1001300010F01E30C8F31B3251F01D3249F46894A0
:1001400006C00E94C500610F711D811D911D119196
:1001500010531A30B0F33EF49095809570956195E8
:100160007F4F8F4F9F4F1F910895FB01DC0102C00D
:1001700001900D9241505040D8F70895FB01DC01E9
:1001800001900D920020E1F70895592F482F372F45
:10019000262F660F771F881F991F660F771F881FEE
:1001A000991F620F731F841F951F660F771F881F8B
:1001B000991F08958130910571F46F5F7F4FA1F40D
:1001C0008EE391E00E94D40683E491E060E071E068
:1001D0000E94AE050895892B39F46F5F7F4F21F49B
:1001E00083E491E00E94E005089580E090E06FEFE5
:1001F0007FEF0E94DA00089581E090E06FEF7FEFDB
:100200000E94DA000895CF93DF9338C081ED91E02A
:100210000E94C002EC01C0970A9728F483E491E0A1
:100220006C2F0E9468052A9749F581ED91E062E004
:1002300071E00E94DE0483E491E00E94F4049B01DB
:10024000AC01709342016093410181ED91E0B901ED
:100250004AE050E00E94BF0481ED91E06AE071E065
:100260000E94DE0481ED91E063E471E00E94EB0303
:1002700083E491E060E071E00E94C70581ED91E0C8
:100280000E948C02181619060CF4C0CFDF91CF9192
:10029000089560914101709142016739710570F4D0
:1002A0008EE391E00E942A0760912501709126015A
:1002B000882777FD8095982F0E94400608950F9318
:1002C0001F9301ED11E0C80140E855E260E070E0E5
:1002D0000E940502C80163E171E00E94E1048EE31F
:1002E00091E069E070E00E9411081F910F9108955C
:1002F0001F920F920FB60F9211242F933F934F939B
:100300008F939F93EF93FF938091C00082FD1DC058
:100310004091C6002091890130918A012F5F3F4FA3
:100320002F73307080918B0190918C0128173907C1
:1003300071F0E0918901F0918A01E75BFE4F408303
:1003400030938A012093890102C08091C600FF91F9
:10035000EF919F918F914F913F912F910F900FBEF1
:100360000F901F901895E091DD01F091DE01E05CA7
:10037000FF4F8191919120813181805C9F4F821B41
:10038000930B60E470E00E94F30B892B11F00E9444
:10039000030108951F920F920FB60F9211242F930D
:1003A0003F938F939F93EF93FF932091CD013091D3
:1003B000CE018091CF019091D0012817390731F4F7
:1003C0008091C1008F7D8093C10014C0E091CF0166
:1003D000F091D001E357FE4F20818091CF019091A1
:1003E000D00101968F7390709093D0018093CF01CC
:1003F0002093C600FF91EF919F918F913F912F9194
:100400000F900FBE0F901F901895AF92BF92DF9282
:10041000EF92FF920F931F93CF93DF93EC017A013A
:100420008B01DD24403081EE580780E0680780E0D2
:10043000780711F0DD24D39491E0A92EB12CEC893A
:10044000FD89DD2069F0C50108A002C0880F991F51
:100450000A94E2F7808360E079E08DE390E005C0E4
:10046000108260E874E88EE190E0A80197010E9494
:10047000060C2150304040405040569547953795E6
:10048000279580E12030380720F0DD2011F0DD24B1
:10049000D6CFE889F9893083EA89FB89208319A2BC
:1004A000EE89FF89408121E030E0C9010C8C02C057
:1004B000880F991F0A94E2F7482B4083EE89FF8941
:1004C0004081C9010D8C02C0880F991F0A94E2F780
:1004D000482B4083EE89FF894081C9010E8C02C000
:1004E000880F991F0A94E2F7482B4083EE89FF8911
:1004F00080810F8C02C0220F331F0A94E2F72095EF
:1005000028232083DF91CF911F910F91FF90EF90CF
:10051000DF90BF90AF900895DC011C96ED91FC91A7
:100520001D97E05CFF4F8191919120813181805C2A
:100530009F4F821B930B60E470E00E94F30B0895C1
:10054000DC011C96ED91FC911D97E05CFF4F208132
:100550003181E054F040DF01AE5BBF4F8D919C9143
:1005600011972817390719F42FEF3FEF07C08D9126
:100570009C91E80FF91F8081282F30E0C901089570
:10058000DC011C96ED91FC911D97E05CFF4F2081F2
:100590003181E054F040DF01AE5BBF4F8D919C9103
:1005A00011972817390719F42FEF3FEF10C08D91DD
:1005B0009C911197E80FF91F20818D919C911197C3
:1005C00001968F73907011969C938E9330E0C901C1
:1005D0000895DC0191968C919197882339F0549677
:1005E000ED91FC915597808186FFF9CF91961C92F1
:1005F0000895CF93DF93EC01EE85FF85E05CFF4F1C
:1006000020813181E054F0402F5F3F4F2F733070D5
:10061000DF01AE5BBF4F8D919C9111972817390771
:10062000D1F3E05CFF4F80819181E054F040E80F0E
:10063000F91F6083EE85FF85E05CFF4F31832083E7
:10064000EE89FF89208181E090E00F8C02C0880F45
:10065000991F0A94E2F7282B208381E089A3EC8973
:10066000FD8980818064808381E090E0DF91CF917B
:1006700008951092D4011092D30188EE93E0A0E087
:10068000B0E08093D5019093D601A093D701B093A9
:10069000D80181E391E09093D2018093D10189E464
:1006A00091E09093DE018093DD018DE891E09093DD
:1006B000E0018093DF0185EC90E09093E20180936C
:1006C000E10184EC90E09093E4018093E30180ECFD
:1006D00090E09093E6018093E50181EC90E09093A7
:1006E000E8018093E70182EC90E09093EA01809327
:1006F000E90186EC90E09093EC018093EB0184E0BB
:100700008093ED0183E08093EE0187E08093EF0119
:1007100085E08093F00181E08093F1010895CF920C
:10072000DF92EF92FF920F931F93CF93DF937C01A1
:100730006B018A01C0E0D0E00FC0D6016D916D0160
:10074000D701ED91FC910190F081E02DC701099551
:10075000C80FD91F015010400115110571F7CE01C6
:10076000DF91CF911F910F91FF90EF90DF90CF908D
:100770000895CF93DF93FB01EC01A881B9816081DB
:100780007181448155811296ED91FC9113970995E1
:10079000DF91CF910895EF92FF920F931F938C01F9
:1007A000DC01ED91FC910190F081E02D6DE0099567
:1007B0007C01D801ED91FC910190F081E02DC80100
:1007C0006AE009959C012E0D3F1DC9011F910F91F3
:1007D000FF90EF900895EF92FF920F931F937C018B
:1007E0000E94B9038C01C7010E94CB039C01200F1A
:1007F000311FC9011F910F91FF90EF900895CF9382
:10080000DF93EC016115710519F420E030E00FC0B1
:10081000DB010D900020E9F71197A61BB70BE881CB
:10082000F9810280F381E02DAD0109959C01C90198
:10083000DF91CF9108954F925F927F928F929F9216
:10084000AF92BF92CF92DF92EF92FF920F931F93DE
:10085000DF93CF93CDB7DEB7A1970FB6F894DEBF85
:100860000FBECDBF2C01742ECB01223008F42AE03C
:1008700019A231E2C32ED12CCC0EDD1E822E99247A
:10088000AA24BB24672D752FA50194010E94060C94
:1008900079018A01C801B701A50194010E94C80B22
:1008A000472D461B0894C108D1084A3014F4405D16
:1008B00001C0495CF6014083E114F1040105110512
:1008C00021F07E2C5F2DC801DDCFC201B6010E9450
:1008D000FF03A1960FB6F894DEBF0FBECDBFCF9138
:1008E000DF911F910F91FF90EF90DF90CF90BF901D
:1008F000AF909F908F907F905F904F900895CF9290
:10090000DF92EF92FF920F931F93CF93DF93EC014F
:100910006A017B012115310541F4E881F9810190DB
:10092000F081E02D642F09951FC02A303105D1F4E4
:1009300077FF17C0E881F9810190F081E02D6DE229
:1009400009958C0144275527BA014C195D096E0998
:100950007F09CE012AE00E941B049801280F391F4D
:1009600004C02AE00E941B049C01C901DF91CF91C1
:100970001F910F91FF90EF90DF90CF900895CF924D
:10098000DF92EF92FF920F931F936C017B019A010C
:100990000027F7FC0095102FB801A7010E947F04E3
:1009A0008C01C6010E94CB03080F191FC8011F91BB
:1009B0000F91FF90EF90DF90CF9008950E94FF037A
:1009C0000895EF92FF920F931F937C010E94FF0303
:1009D0008C01C7010E94CB03080F191FC8011F918A
:1009E0000F91FF90EF900895FC0180819181009715
:1009F00029F420E030E040E050E004C00E948E0086
:100A00009B01AC01B901CA0108950F931F93CF93C5
:100A1000DF93EC018B016F5F7F4F888199810E948A
:100A20000B0A009711F480E005C0998388831B832B
:100A30000A8381E0DF91CF911F910F910895CF93A9
:100A4000DF93EC0188819981892B29F08A819B8130
:100A50008617970760F4CE010E940505882341F0B0
:100A60008C819D81892B19F4E881F981108281E0C4
:100A7000DF91CF910895EF92FF920F931F93CF9341
:100A8000DF93EC017B016C817D81E114F104C1F005
:100A90004115510599F08A01060F171FB8010E94F0
:100AA0001F05882369F0888199812C813D81820FFF
:100AB000931FB7010E94BE001D830C8381E001C01B
:100AC00080E0DF91CF911F910F91FF90EF900895FB
:100AD000DF93CF9300D0CDB7DEB769831A82BE0112
:100AE0006F5F7F4F41E050E00E943B050F900F90F9
:100AF000CF91DF910895CF93DF93EC0188819981A5
:100B0000009711F00E947309198218821D821C82BD
:100B10001B821A82DF91CF910895EF92FF920F937B
:100B20001F93CF93DF93EC017B018A01BA010E94EE
:100B30001F05882321F4CE010E947B0507C01D8379
:100B40000C8388819981B7010E94BE00CE01DF919C
:100B5000CF911F910F91FF90EF900895CF93DF9366
:100B6000EC01198218821B821A821D821C82611577
:100B7000710551F0DB010D900020E9F71197A61BDC
:100B8000B70BAD010E948D05DF91CF9108950F93B2
:100B90001F93182F092F6115710559F0DB010D9076
:100BA0000020E9F71197A61BB70BAD010E948D0538
:100BB00002C00E947B05812F902F1F910F910895F5
:100BC000FC01808191810E94730908950895CF935B
:100BD000DF930E9499060E94E6050E945F01C3EB25
:100BE000D1E00E9449012097E1F30E94B301F9CFBF
:100BF0001F920F920FB60F9211242F933F938F9352
:100C00009F93AF93BF938091F7019091F801A091CA
:100C1000F901B091FA013091FB010196A11DB11DBE
:100C2000232F2D5F2D3720F02D570196A11DB11DCB
:100C30002093FB018093F7019093F801A093F901B1
:100C4000B093FA018091F3019091F401A091F50124
:100C5000B091F6010196A11DB11D8093F30190930F
:100C6000F401A093F501B093F601BF91AF919F916C
:100C70008F913F912F910F900FBE0F901F9018955D
:100C80009B01AC017FB7F8948091F3019091F4013E
:100C9000A091F501B091F60166B5A89B05C06F3F24
:100CA00019F00196A11DB11D7FBFBA2FA92F982F52
:100CB0008827860F911DA11DB11D62E0880F991F25
:100CC000AA1FBB1F6A95D1F7BC012DC0FFB7F894CE
:100CD0008091F3019091F401A091F501B091F6019A
:100CE000E6B5A89B05C0EF3F19F00196A11DB11D07
:100CF000FFBFBA2FA92F982F88278E0F911DA11DF6
:100D0000B11DE2E0880F991FAA1FBB1FEA95D1F71A
:100D1000861B970B885E9340C8F2215030404040BC
:100D2000504068517C4F211531054105510571F640
:100D30000895789484B5826084BD84B5816084BD53
:100D400085B5826085BD85B5816085BDEEE6F0E044
:100D5000808181608083E1E8F0E0108280818260A0
:100D60008083808181608083E0E8F0E08081816021
:100D70008083E1EBF0E0808184608083E0EBF0E051
:100D8000808181608083EAE7F0E0808184608083F5
:100D9000808182608083808181608083808180689F
:100DA00080831092C1000895FC018091FC018C3079
:100DB00090F480838F5F8093FC01815090E0FC0170
:100DC000EE0FFF1FE80FF91FE350FE4F88EB9BE08B
:100DD0009283818308958FEF80830895FC012081A1
:100DE0002C30B8F58181992787FD909548E850E02F
:100DF000481B590B440F551F440F551F64177507A7
:100E000084F08281992787FD909548E552E0481B40
:100E1000590B440F551F440F551F641775070CF4E9
:100E2000AB0142505040CA01AA2797FDA095BA2FA6
:100E3000880F991FAA1FBB1F4FB7F89430E0F90124
:100E4000EE0FFF1FE20FF31FE350FE4F92838183EB
:100E50004FBF0895AF92BF92CF92DF92EF92FF9271
:100E60000F931F93CF93DF93EC019B0182E06032DD
:100E700078070CF048C077FF03C020E030E005C0E1
:100E8000653B710514F024EB30E000D000D0B901CF
:100E9000882777FD8095982F2981332727FD309566
:100EA000E8E8AE2EB12CA21AB30AAA0CBB1CAA0CFD
:100EB000BB1CCC24B7FCC094DC2CEA81FF27E7FDE7
:100EC000F09528E532E02E1B3F0B220F331F220F37
:100ED000331F442737FD4095542FEDB7FEB72183CC
:100EE00032834383548320E030E040E050E004EB61
:100EF000E02EF12C012D112D0E94EC0A9B010F9088
:100F00000F900F900F90CE01B9010E94EE06DF9175
:100F1000CF911F910F91FF90EF90DF90CF90BF90F6
:100F2000AF900895CF92DF92EF92FF921F93CF93ED
:100F3000DF93EC01162F7A01690188818C3008F06B
:100F400064C0862F61E00E94350B888190E0FC012F
:100F5000EE0FFF1FE80FF91FE350FE4F1F73808154
:100F6000807C812B808380E292E08E199F0964E06F
:100F700070E00E94F30B698380E699E08C199D096B
:100F800064E070E00E94F30B6A83A8818A2F6CE012
:100F90000E94E70B682F70E0AB01440F551F460F0E
:100FA000571F440F551F440F551F20E030E0C90163
:100FB000840F951FFC01EE0FFF1FE80FF91FE35090
:100FC000FE4F808186FD15C02F5F3F4F2C303105CD
:100FD00071F724C01092800082E08093810010920B
:100FE000850010928400B19A80916F008260809396
:100FF0006F008A2F90E0FC01EE0FFF1FE80FF91F32
:10100000E350FE4F8081806480838881DF91CF919F
:101010001F91FF90EF90DF90CF900895672BD1F252
:10102000E8CF40E252E020E639E00E9492070895BE
:101030001F920F920FB60F9211242F933F934F934D
:101040005F936F937F938F939F93AF93BF93EF9330
:10105000FF938091210287FF05C0109285001092B6
:1010600084002BC020912102332727FD30958091E9
:10107000FC0190E02817390704F580912102992797
:1010800087FD9095FC01EE0FFF1FE80FF91FE3505D
:10109000FE4F808186FF11C080912102992787FD34
:1010A0009095FC01EE0FFF1FE80FF91FE350FE4F74
:1010B00080818F7360E00E94740B809121028F5FAA
:1010C0008093210220912102332727FD30958091C2
:1010D000FC0190E0281739070CF04EC080912102E6
:1010E0008C300CF049C020918400309185008091B3
:1010F0002102992787FD9095FC01EE0FFF1FE80F55
:10110000F91FE350FE4F81819281280F391F3093E0
:1011100089002093880080912102992787FD90956E
:10112000FC01EE0FFF1FE80FF91FE350FE4F808117
:1011300086FF2BC080912102992787FD9095FC01A5
:10114000EE0FFF1FE80FF91FE350FE4F80818F73F2
:1011500061E00E94740B19C080E49CE905C0809195
:101160008400909185000496909389008093880074
:101170008FEF8093210209C08091840090918500B7
:10118000049680549C4940F3EACFFF91EF91BF91C0
:10119000AF919F918F917F916F915F914F913F910F
:1011A0002F910F900FBE0F901F9018950F931F93C4
:1011B000CF93DF93BC018230910510F462E070E0C0
:1011C000E0912402F0912502A0E0B0E040E050E080
:1011D00024C08081918186179707D0F086179707E2
:1011E00071F482819381109729F013969C938E93CA
:1011F00012972CC0909325028093240227C041159A
:10120000510519F08417950718F4EF018D01AC0111
:10121000DF01828193819C01F9013097D1F641155C
:101220005105F9F0CA01861B970B8430910580F4B3
:101230008A819B810115110521F0F8019383828336
:1012400004C09093250280932402FE01329645C08B
:10125000FE01E80FF91F61937193029799838883C8
:101260003CC08091220290912302892B41F480910D
:10127000290190912A0190932302809322024091A8
:101280002B0150912C014115510541F44DB75EB72A
:101290008091270190912801481B590B209122022F
:1012A0003091230224173507B0F4CA01821B930B37
:1012B0008617970780F0AB014E5F5F4F8417950745
:1012C00050F0420F531F5093230240932202F90122
:1012D0006193719302C0E0E0F0E0CF01DF91CF9124
:1012E0001F910F910895CF93DF939C01009709F40C
:1012F0008FC0EC0122971B821A82609124027091A8
:1013000025026115710581F488819981820F931FEF
:1013100020912202309123022817390739F5D09302
:101320002302C093220274C0DB0140E050E0AC17FE
:10133000BD0708F1BB83AA83FE0121913191E20F21
:10134000F31FAE17BF0779F48D919C911197280F69
:10135000391F2E5F3F4F3983288312968D919C91C0
:1013600013979B838A834115510571F4D09325020D
:10137000C09324024DC012968D919C911397AD019C
:10138000009711F0DC01D3CFDA011396DC93CE93F2
:101390001297FA0121913191E20FF31FCE17DF0767
:1013A00069F488819981280F391F2E5F3F4FFA0118
:1013B000318320838A819B8193838283E0E0F0E004
:1013C000DB0112968D919C911397009719F0BC0147
:1013D000FD01F6CFAB014E5F5F4FDB018D919C911C
:1013E000840F951F2091220230912302281739077C
:1013F00079F4309729F4109225021092240202C049
:101400001382128242505040509323024093220292
:10141000DF91CF9108956F927F928F929F92AF92BA
:10142000BF92CF92DF92EF92FF920F931F93CF93D1
:10143000DF938C01009729F4CB010E94D6088C0120
:10144000BBC08EEFE82E8FEFF82EE00EF11E4801A4
:10145000860E971E8E149F0408F4ACC0D7014D91E0
:101460005C91119746175707B8F04530510508F4BD
:10147000A3C0CA0104978617970708F49DC042507D
:101480005040461B570BF401419351936D937C934D
:10149000CF010E94730990C05B01A41AB50A3801FC
:1014A000640E751EA0912402B0912502CC24DD2487
:1014B000E0E0F0E047C0A615B705A9F5CD91DC91B5
:1014C0001197CE0102968A159B0568F1CE018A1903
:1014D0009B09029612962C91129713963C910597B0
:1014E00058F0F40122833383CA19DB09D183C08306
:1014F000D7016D937C9309C04E5F5F4F4C0F5D1F0A
:10150000F70151834083C901FC01C114D10431F0BA
:10151000D6011396FC93EE9312974EC0F0932502DA
:10152000E093240249C08D919C911197E817F90727
:1015300008F4FC016D0112968C91129713969C9100
:101540009C01D901109709F0B6CF809122029091A9
:10155000230286159705E9F4E617F707D0F42091E2
:101560002B0130912C012115310541F42DB73EB7E7
:101570008091270190912801281B390B8216930630
:10158000C8F49092230280922202F7017183608353
:1015900013C0CB010E94D608EC01009759F0D70187
:1015A0004D915C91B8010E94B500C8010E94730979
:1015B0008E0102C000E010E0C801DF91CF911F91C1
:1015C0000F91FF90EF90DF90CF90BF90AF909F90E2
:1015D0008F907F906F9008952F923F924F925F92DD
:1015E0006F927F928F929F92AF92BF92CF92DF9233
:1015F000EF92FF920F931F93DF93CF93CDB7DEB798
:101600003B014C0119012A016D897E898F89988DD2
:101610006A197B098C099D09621A730A840A950A62
:10162000A40193010E94C80BE218F30804091509EC
:10163000A80197010E94280C2A0D3B1D4C1D5D1D21
:10164000B901CA01CF91DF911F910F91FF90EF90E7
:10165000DF90CF90BF90AF909F908F907F906F90D2
:101660005F904F903F902F900895CF93DF93482F36
:1016700050E0CA0186569F4FFC0134914A575F4F94
:10168000FA018491882369F190E0880F991FFC0189
:10169000E859FF4FA591B491FC01EE58FF4FC59159
:1016A000D491662351F42FB7F8948C91932F909591
:1016B00089238C93888189230BC0623061F42FB712
:1016C000F8948C91932F909589238C938881832B08
:1016D00088832FBF06C09FB7F8948C91832B8C937F
:1016E0009FBFDF91CF910895482F50E0CA018255E6
:1016F0009F4FFC012491CA0186569F4FFC01949193
:101700004A575F4FFA013491332309F440C0222332
:1017100051F1233071F0243028F42130A1F022302F
:1017200011F514C02630B1F02730C1F02430D9F4BF
:1017300004C0809180008F7703C0809180008F7DEE
:101740008093800010C084B58F7702C084B58F7DF0
:1017500084BD09C08091B0008F7703C08091B00034
:101760008F7D8093B000E32FF0E0EE0FFF1FEE5867
:10177000FF4FA591B4912FB7F894662321F48C9173
:101780009095892302C08C91892B8C932FBF08954B
:10179000629FD001739FF001829FE00DF11D649F55
:1017A000E00DF11D929FF00D839FF00D749FF00DE1
:1017B000659FF00D9927729FB00DE11DF91F639F82
:1017C000B00DE11DF91FBD01CF0111240895991B32
:1017D00079E004C0991F961708F0961B881F7A9528
:1017E000C9F78095089597FB092E07260AD077FD43
:1017F00004D049D006D000201AF4709561957F4F2F
:101800000895F6F7909581959F4F0895A1E21A2EBD
:10181000AA1BBB1BFD010DC0AA1FBB1FEE1FFF1F94
:10182000A217B307E407F50720F0A21BB30BE40BE4
:10183000F50B661F771F881F991F1A9469F760952B
:101840007095809590959B01AC01BD01CF010895E5
:1018500097FB092E05260ED057FD04D0D7DF0AD0FE
:10186000001C38F450954095309521953F4F4F4FCF
:101870005F4F0895F6F790958095709561957F4F2D
:101880008F4F9F4F0895AA1BBB1B51E107C0AA1F92
:10189000BB1FA617B70710F0A61BB70B881F991F11
:1018A0005A95A9F780959095BC01CD010895EE0F4A
:1018B000FF1F0590F491E02D099410E0C6ECD0E0F4
:1018C00004C0FE010E94590C2296C83CD107C9F7FA
:0418D000F894FFCFBA
:1018D400200056616C75653A2000537472696E6716
:1018E4003A2000496E697469616C69736174696F47
:1018F4006E2E2E2E000A008000260200000000003A
:0E19040000F9028F038C02C002A002E902006B
:00000001FF
