:100000000C9459000C9481000C9481000C94810094
:100010000C9481000C9481000C9481000C9481005C
:100020000C9481000C9481000C9481000C9481004C
:100030000C9481000C9481000C9481000C9481003C
:100040000C94A5000C9481000C9490020C94C202B4
:100050000C9481000C9481000C9481000C9481001C
:100060000C9481000C94810001020408102040804F
:1000700001020408102001020408102004040404F2
:100080000404040402020202020203030303030342
:1000900000000000230026002900000000002500C9
:1000A00028002B0000000000240027002A009F00E9
:1000B000F20211241FBECFEFD8E0DEBFCDBF11E0AA
:1000C000A0E0B1E0E0E4FFE002C005900D92A031B5
:1000D000B107D9F721E0A0E1B1E001C01D92AA3D2E
:1000E000B207E1F710E0C2EBD0E004C02297FE01B6
:1000F0000E949A07CE3AD107C9F70E9436030C94A2
:1001000051060C94000026E040E855E260E070E003
:100110008DE391E00C94280465E080E191E00E9479
:10012000AC05AB01BC012AE030E08DE391E00E9418
:100130007E026AE070E080E090E00C941E0143E1F2
:1001400062E180E191E00C948A041F920F920FB655
:100150000F9211242F933F938F939F93AF93BF934D
:100160008091350190913601A0913701B09138010D
:100170003091340123E0230F2D3720F40196A11D87
:10018000B11D05C026E8230F0296A11DB11D2093C5
:1001900034018093350190933601A0933701B093D9
:1001A00038018091390190913A01A0913B01B091C1
:1001B0003C010196A11DB11D8093390190933A0134
:1001C000A0933B01B0933C01BF91AF919F918F9160
:1001D0003F912F910F900FBE0F901F9018952FB742
:1001E000F8946091350170913601809137019091BA
:1001F00038012FBF08953FB7F8948091390190914D
:100200003A01A0913B01B0913C0126B5A89B05C0E5
:100210002F3F19F00196A11DB11D3FBF6627782F12
:10022000892F9A2F620F711D811D911D42E0660F6B
:10023000771F881F991F4A95D1F70895CF92DF92B3
:10024000EF92FF92CF93DF936B017C010E94FB0042
:10025000EB01C114D104E104F10489F00E94810191
:100260000E94FB006C1B7D0B683E734090F381E0A5
:10027000C81AD108E108F108C851DC4FEACFDF9174
:10028000CF91FF90EF90DF90CF900895789484B550
:10029000826084BD84B5816084BD85B5826085BD82
:1002A00085B5816085BDEEE6F0E080818160808368
:1002B000E1E8F0E01082808182608083808181604B
:1002C0008083E0E8F0E0808181608083E1EBF0E012
:1002D000808184608083E0EBF0E0808181608083B6
:1002E000EAE7F0E08081846080838081826080839F
:1002F0008081816080838081806880831092C100CA
:1003000008950895CF92DF92EF92FF920F931F937B
:10031000CF93DF936C017A01EB01E60EF71E00E04C
:1003200010E0CE15DF0561F06991D601ED91FC91E9
:100330000190F081E02DC6010995080F191FF1CF3A
:10034000C801DF91CF911F910F91FF90EF90DF9047
:10035000CF9008956115710581F0DB010D900020AB
:10036000E9F7AD0141505109461B570BDC01ED91F6
:10037000FC910280F381E02D099480E090E00895E3
:10038000DC01ED91FC910190F081E02D09940F9337
:100390001F93CF93DF93EC016DE00E94C0018C01AD
:1003A0006AE0CE010E94C001800F911FDF91CF91C2
:1003B0001F910F9108958F929F92AF92BF92CF920B
:1003C000DF92EF92FF920F931F93CF93DF93CDB7FE
:1003D000DEB7A1970FB6F894DEBF0FBECDBF7C018C
:1003E000C42EE52FCB01D22E19A221E02D1510F03D
:1003F0002AE0D22E8E010F5D1F4F8D2C912CA12C47
:10040000B12C6C2D7E2FA50194010E9476078C2DB6
:10041000D29E80191124015011098A3014F4805D94
:1004200001C0895CF8018083211531054105510522
:1004300021F0C22EE32FCA01E4CFB801C7010E9408
:10044000AA01A1960FB6F894DEBF0FBECDBFDF9113
:10045000CF911F910F91FF90EF90DF90CF90BF90C1
:10046000AF909F908F900895CF92DF92EF92FF927E
:100470000F931F93CF93DF93EC016A017B0121154A
:10048000310579F4E881F9810190F081E02D642F44
:10049000DF91CF911F910F91FF90EF90DF90CF9060
:1004A00009942A303105E9F477FF1AC06DE20E9401
:1004B000C0018C0144275527BA014C195D096E090A
:1004C0007F092AE0CE010E94DB01800F911FDF919E
:1004D000CF911F910F91FF90EF90DF90CF900895F3
:1004E0002AE0B701A601CE01DF91CF911F910F91B4
:1004F000FF90EF90DF90CF900C94DB010F931F9350
:10050000CF93DF93EC010E9434028C01CE010E9454
:10051000C701800F911FDF91CF911F910F91089517
:100520001F920F920FB60F9211242F938F939F93C8
:10053000EF93FF93E0914D01F0914E018081E091A6
:100540005301F091540182FD12C0908180915601B7
:100550008F5F8F7320915701821751F0E091560100
:10056000F0E0E35CFE4F958F8093560101C08081DF
:10057000FF91EF919F918F912F910F900FBE0F9050
:100580001F9018951F920F920FB60F9211242F9360
:100590003F934F935F936F937F938F939F93AF930B
:1005A000BF93EF93FF938DE391E00E948003FF914F
:1005B000EF91BF91AF919F918F917F916F915F91DB
:1005C0004F913F912F910F900FBE0F901F90189554
:1005D0008DE391E00E94450321E0892B09F420E09E
:1005E000822F08951092400110923F0188EE93E00F
:1005F000A0E0B0E08093410190934201A0934301B9
:10060000B093440184E091E090933E0180933D01DA
:1006100085EC90E090934A018093490184EC90E04E
:1006200090934C0180934B0180EC90E090934E01AD
:1006300080934D0181EC90E09093500180934F01A5
:1006400082EC90E0909352018093510186EC90E00F
:1006500090935401809353011092560110925701C8
:100660001092580110925901089508950E94460170
:100670000E9435030E948300C2E7D3E00E948C00F1
:100680002097E1F30E947203F9CFFC01818D228D46
:1006900090E0805C9F4F821B91098F73992708958A
:1006A000FC01918D828D981731F0828DE80FF11D3C
:1006B000858D90E008958FEF9FEF0895FC01918D57
:1006C000828D981761F0828DDF01A80FB11D5D96B4
:1006D0008C91928D9F5F9F73928F90E008958FEF22
:1006E0009FEF089588EE92E0892B49F080E090E03A
:1006F000892B29F00E94E80281110C9400000895D2
:10070000FC01848DDF01A80FB11DA35ABF4F2C91AE
:10071000848D90E001968F739927848FA689B7897D
:100720002C93A089B1898C9180648C93938D848D56
:10073000981306C00288F389E02D80818F7D808325
:100740000895CF93DF93EC01888D8823C9F0EA895F
:10075000FB89808185FD05C0A889B9898C9186FDBA
:100760000FC00FB607FCF5CF808185FFF2CFA889B7
:10077000B9898C9185FFEDCFCE010E948003E7CF30
:10078000DF91CF910895CF92DF92FF920F931F9345
:10079000CF93DF931F92CDB7DEB76C01DC015B9680
:1007A0009C915B975C968C915C97981307C05096D0
:1007B000ED91FC915197808185FD32C0F601038D4A
:1007C00010E00F5F1F4F0F731127F02EF601848D7D
:1007D000F81211C00FB607FCF9CFD6015096ED9173
:1007E000FC915197808185FFF1CFC60169830E94FA
:1007F00080036981EBCF838DE80FF11DE35AFF4F32
:100800006083D6015B960C935B975296ED91FC91B9
:10081000539780818062808381E058968C930DC0CD
:10082000D6015696ED91FC91579760835096ED91C5
:10083000FC91519780818064808381E090E00F90EB
:10084000DF91CF911F910F91FF90DF90CF9008958E
:10085000BF92CF92DF92EF92FF92CF93DF93EC01A2
:100860006A017B01B22EE889F98982E08083411513
:1008700081EE580761057105A1F060E079E08DE334
:1008800090E0A70196010E947607215031094109A5
:1008900051095695479537952795211580E13807D9
:1008A00098F0E889F989108260E874E88EE190E0B8
:1008B000A70196010E94760721503109410951098B
:1008C0005695479537952795EC85FD853083EE85C0
:1008D000FF852083188EEC89FD89B082EA89FB8927
:1008E000808180618083EA89FB8980818860808340
:1008F000EA89FB89808180688083EA89FB8980811D
:100900008F7D8083DF91CF91FF90EF90DF90CF902C
:10091000BF9008950F931F93CF93DF93EC0181E075
:1009200090E09983888386E391E09F838E8300EE35
:1009300015E729E030E0088719872A873B8700E21E
:100940001EE420E030E00C871D872E873F8764314E
:1009500020F08FEF9FEF99838883443120F08FEF51
:100960009FEF99838883262F30E0F901E859FF4FE4
:10097000E491E88FF901E458FF4F249130E0220F11
:10098000331FF901EC55FF4F659174917A8F698F90
:1009900026563F4FF901259134913C8F2B8F842FA0
:1009A00090E0FC01E859FF4FE491ED8FFC01E45821
:1009B000FF4F849190E0880F991FFC01EC55FF4F89
:1009C000259134913F8F2E8FFC01E057FF4F2591E9
:1009D000349139A328A386569F4FFC0185919491A9
:1009E0009BA38AA3F894E98DFA8D8081988D892B39
:1009F000808378944FEF5FEF6FEF7FE04A835B83F4
:100A00006C837D830E94EF00688B798B8A8B9B8B34
:100A1000DF91CF911F910F9108950F931F93FC01C8
:100A2000F894A38DB48D9C91808D809589238C93AF
:100A3000A68DB78D9C91858D809589238C93A2A1DD
:100A4000B3A19C91858D809589238C93A68DB78DBC
:100A50008C91958D892B8C93A68DB78D9C91858DCE
:100A6000809589238C93A38DB48D8C91908D892B47
:100A70008C937894A0A1B1A1958D8C918923448900
:100A8000558966897789008511852285338581118D
:100A900006C0401751076207730708F440C00417E7
:100AA000150726073707C0F1F894A2A1B3A18C91CE
:100AB000958D892B8C93A68DB78D8C91958D892BD7
:100AC0008C93A68DB78D9C91858D809589238C9371
:100AD000A2A1B3A19C91858D809589238C93A38D30
:100AE000B48D9C91808D809589238C937894A0A15E
:100AF000B1A1958D8C91892344895589668977891F
:100B00000085118522853385882391F04017510790
:100B100062077307A8F00CC08EEF9FEF1AC04F5FFB
:100B20005F4F6F4F7F4F448B558B668B778BA5CF75
:100B3000401751076207730778F781E090E009C01A
:100B40004F5F5F4F6F4F7F4F448B558B668B778B1B
:100B5000D1CF1F910F910895CF92DF92EF92FF9224
:100B60000F931F93CF93DF931F92CDB7DEB78C0106
:100B7000FC01148A158A168A178A662341F080813F
:100B8000918197FF08C06FEF7FEFCB0180C060E0DD
:100B900070E0CB017CC0F12CC80169830E940D0577
:100BA000698197FD5EC0F394F612F6CF0E94EF00C4
:100BB000F801C088D188E288F3886C197D098E0914
:100BC0009F09C484D584E684F784C616D706E80650
:100BD000F90648F5C488D588E688F788628173816C
:100BE00084819581C616D706E806F90629F0C61A4B
:100BF000D70AE80AF90A03C0C12CD12C76010E9459
:100C000085062DEC3CEC4CEC5DE30E9413070E9442
:100C10005406AB01662757FD6095762FC416D5069E
:100C2000E606F70618F1F80184899589A689B7893F
:100C3000C280D380E480F5808C159D05AE05BF058C
:100C400020F482839383A483B583F801C280D38088
:100C5000E480F580BC01CD016C197D098E099F09E6
:100C600016C06EEF7FEF8FEF9FEF11C04FEF5FEF7A
:100C70006FEF7FE0F80142835383648375830E94A2
:100C8000EF00F801608B718B828B938BCCCF0F9030
:100C9000DF91CF911F910F91FF90EF90DF90CF9058
:100CA0000895F8940C949E0704D06894B111B5C0CF
:100CB000089598D088F09F5790F0B92F9927B75191
:100CC000A0F0D1F0660F771F881F991F1AF0BA9510
:100CD000C9F712C0B13081F09FD0B1E008959CC037
:100CE000672F782F8827B85F39F0B93FCCF3869506
:100CF00077956795B395D9F73EF490958095709563
:100D000061957F4F8F4F9F4F0895E89409C097FBDF
:100D10003EF490958095709561957F4F8F4F9F4FD2
:100D20009923A9F0F92F96E9BB279395F695879516
:100D300077956795B795F111F8CFFAF4BB0F11F4D9
:100D400060FF1BC06F5F7F4F8F4F9F4F16C0882380
:100D500011F096E911C0772321F09EE8872F762FB6
:100D600005C0662371F096E8862F70E060E02AF0F7
:100D70009A95660F771F881FDAF7880F96958795E3
:100D800097F9089597F99F6780E870E060E008950B
:100D90009FEF80EC089500240A9416161706180693
:100DA0000906089500240A9412161306140605066F
:100DB0000895092E0394000C11F4882352F0BB0F00
:100DC00040F4BF2B11F460FF04C06F5F7F4F8F4F63
:100DD0009F4F089557FD9058440F551F59F05F3F9E
:100DE00071F04795880F97FB991F61F09F3F79F04D
:100DF00087950895121613061406551FF2CF4695CF
:100E0000F1DF08C0161617061806991FF1CF869550
:100E10007105610508940895E894BB276627772734
:100E2000CB0197F908950BD0C4CFB5DF28F0BADF16
:100E300018F0952309F0A6CFABCF1124EECFCADF6F
:100E4000A0F3959FD1F3950F50E0551F629FF001DD
:100E5000729FBB27F00DB11D639FAA27F00DB11D36
:100E6000AA1F649F6627B00DA11D661F829F2227BF
:100E7000B00DA11D621F739FB00DA11D621F839F46
:100E8000A00D611D221F749F3327A00D611D231F1C
:100E9000849F600D211D822F762F6A2F11249F576A
:100EA00050408AF0E1F088234AF0EE0FFF1FBB1F8D
:100EB000661F771F881F91505040A9F79E3F51052C
:100EC00070F060CFAACF5F3FECF3983EDCF38695DD
:100ED00077956795B795F795E7959F5FC1F7FE2BD7
:100EE000880F911D9695879597F90895A1E21A2E7E
:100EF000AA1BBB1BFD010DC0AA1FBB1FEE1FFF1FBE
:100F0000A217B307E407F50720F0A21BB30BE40B0D
:100F1000F50B661F771F881F991F1A9469F7609554
:100F20007095809590959B01AC01BD01CF0108950E
:100F3000EE0FFF1F0590F491E02D0994F894FFCF78
:100F400000000000C303820145035E035003A103B8
:00000001FF
