:100000000C9462000C947F000C947F000C947F0091
:100010000C947F000C947F000C947F000C942705B7
:100020000C947F000C947F000C947F000C947F0054
:100030000C947F000C947F000C947F000C947F0044
:100040000C9483050C947F000C947F000C947F002B
:100050000C947F000C947F000C947F000C947F0024
:100060000C947F000C947F00000000002400270007
:100070002A000000000023002600290000000008DC
:10008000000201000003040700000000000000005F
:10009000010204081020408001020408102001021F
:1000A0000408102000000000250028002B00040494
:1000B0000404040404040202020202020303030310
:1000C0000303020011241FBECFEFD8E0DEBFCDBF77
:1000D00012E0A0E0B1E0E0E4F7E102C005900D928B
:1000E000AC35B107D9F723E0ACE5B2E001C01D9211
:1000F000A737B207E1F70E94CD050C949E0B0C9434
:100100000000833081F028F4813099F08230A9F02A
:1001100008958730A9F08830C9F08430B1F4809117
:1001200080008F7D03C0809180008F778093800056
:10013000089584B58F7784BD089584B58F7DFBCFF6
:100140008091B0008F778093B00008958091B000C7
:100150008F7DF9CFCF93DF93282F30E0F901E4585A
:10016000FF4F8491F901E057FF4FD491F901E25517
:10017000FF4FC491CC23A1F081110E948100EC2F8C
:10018000F0E0EE0FFF1FEE58FF4FA591B491EC91F8
:10019000ED2381E090E009F480E0DF91CF910895B4
:1001A00080E090E0FACF1F93CF93DF93282F30E0C9
:1001B000F901E458FF4F8491F901E057FF4FD491C2
:1001C000F901E255FF4FC491CC23A9F0162F8111FC
:1001D0000E948100EC2FF0E0EE0FFF1FEC55FF4F67
:1001E000A591B4918FB7F894EC91111108C0D095F6
:1001F000DE23DC938FBFDF91CF911F910895DE2B1B
:10020000F8CF9091040189130BC0E2ECF0E0E49187
:100210009FEF90930401E13049F028F0E23061F063
:1002200060E00C94D30010926E00FACF90916F00B2
:100230009D7F90936F00F4CF909170009D7F90937D
:10024000700091E09093B0009091B100987F94601D
:100250009093B1001092B300E3CFCF93DF9390E07F
:10026000FC01E057FF4F249182559F4FFC01849180
:100270008823D1F090E0880F991FFC01E859FF4FC7
:10028000A591B491FC01EC55FF4FC591D49161113A
:100290000EC09FB7F8948C91E22FE0958E238C933B
:1002A0002881E223E8839FBFDF91CF9108958FB724
:1002B000F894EC91E22BEC938FBFF6CF8F929F9244
:1002C000AF92BF92CF92DF92EF92FF92CF936C01E9
:1002D000809104018D3069F08F3F09F470C0CF9197
:1002E000FF90EF90DF90CF90BF90AF909F908F9056
:1002F0000895E2ECF0E0C491C7FDF1CF61E08DE03C
:100300000E942D01CC2319F0C23009F022C1F12C3A
:10031000E12C60E072E18AE790E0A70196010E947B
:10032000130B49015A01DA01C9010197A109B10969
:100330008F3F9105A105B10509F00CF4EEC060E412
:1003400072E48FE090E0A70196010E94130B215008
:10035000310941095109C23009F0A0C082E02F3FA4
:1003600031054105510509F00CF488C160E970EDD3
:1003700083E090E0A70196010E94130B2150310900
:100380004109510983E02F3F31054105510509F02D
:100390000CF474C168E478EE81E090E0A701960166
:1003A0000E94130B21503109410951092F3F31059A
:1003B0004105510511F00CF08FC084E05FC18DE064
:1003C00080930401E2ECF0E0C491CF3F09F487CFC1
:1003D000C13021F150F0C23009F43EC0C7FD7FCFDB
:1003E00061E08DE00E942D018FCF14BC15BC84B557
:1003F000826084BD85B5816085BDEBEBF0E0E49162
:10040000F0E0EE0FFF1FEC55FF4F85919491EDE961
:10041000F0E0E491E0936A03C0E070CF10928000B6
:10042000109281008091810088608093810080918A
:100430008100816080938100EBEBF0E0E491F0E0DB
:10044000EE0FFF1FEC55FF4F85919491EDE9F0E021
:10045000E491E093690352CF1092B0001092B10082
:100460008091B00082608093B0008091B100816083
:100470008093B100EBEBF0E0E491F0E0EE0FFF1FB2
:10048000EC55FF4F85919491909368038093670397
:10049000EDE9F0E0E491E093660330CF2F3F3105C2
:1004A0004105510509F00CF452C068E478EE81E092
:1004B00090E0A70196010E94130B215031094109D8
:1004C0005109CC2309F4AFC02F3F31054105510537
:1004D00011F00CF0B0C071CF64E274EF80E090E0F6
:1004E000A70196010E94130B2150310941095109BE
:1004F00085E02F3F31054105510509F008F4BEC0E4
:1005000062E17AE780E090E0A70196010E94130B78
:1005100021503109410951099CC09C0181E0C11160
:10052000ADC095B5987F892B85BD27BD8FEF9FEF17
:10053000DC018093730390937403A0937503B093CD
:10054000760380916E00826080936E00C8CE82E058
:10055000E6CFF12CE12C60E072E18AE790E0A701A0
:1005600096010E94130B215031094109510991E074
:100570002115310581E0480751056CF068E478EEFB
:1005800081E090E0A70196010E94130B21503109F0
:100590004109510993E0C13009F076C08091810092
:1005A000887F892B80938100309389002093880075
:1005B0008FEF9FEFDC0180936F0390937003A09304
:1005C0007103B093720380916F00826080936F001B
:1005D00086CE2093B3008FEF9FEFDC0180936B03F7
:1005E00090936C03A0936D03B0936E0380917000A1
:1005F00082608093700073CE84E02F3F3105410507
:10060000510509F008F48DCF9AE0B594A79497941A
:1006100087949A95D1F7A501940121503109410998
:10062000510985E07ECF83E02F3F3105410551051B
:1006300009F00CF476CF62E17AE780E090E0A70160
:1006400096010E94130B2150310941095109CC2315
:1006500099F286E02F3F31054105510579F070F0A0
:100660008AE0B594A794979487948A95D1F7A501C9
:100670009401215031094109510987E09091B1005D
:10068000987F892B8093B100C13009F48DCFC2309F
:1006900009F49FCFC11123CE48CF2FB7F8946091B2
:1006A00074027091750280917602909177022FBF4B
:1006B00008958F929F92AF92BF92CF92DF92EF9266
:1006C000FF920F931F93CF93DF9300E112E088E72F
:1006D000E82E82E0F82ED0E0C0E0DD24D394F801CB
:1006E00080810E5F1F4F0E94AA00C82E0E944D03FA
:1006F000F70181909190A190B1907F0168197909DB
:100700008A099B096531710581059105D0F00E9428
:100710004D03F70134976083718382839383DE01F5
:10072000A050BF4F2C91FE01E057FD4F8C2D0C2C9B
:10073000000C990B28171906B1F0C11013C0D08214
:100740001C922196C430D10551F6DF91CF911F91B3
:100750000F91FF90EF90DF90CF90BF90AF909F9060
:100760008F900895DC921082ECCFA1E6B2E0FC01FC
:100770004081F7E04F9FA001112430E020E0F90113
:10078000E40FF51FE75FFE4F60816D932F5F3F4FD2
:1007900027303105A1F7A8E6B2E0FC012181F7E09E
:1007A0002F9F9001112490E080E0FC01E20FF31FE5
:1007B000E75FFE4F40814D93019687309105A9F781
:1007C0000895DF92EF92FF920F931F93CF93DF93E1
:1007D0000E944D0300915D0210915E0220915F0224
:1007E00030916002601B710B820B930B64307105BA
:1007F0008105910508F444C0C0915C02EC2FF0E043
:10080000EE0FFF1FE45FFD4F60E080810E94D30088
:10081000CF5FC230E9F1C0935C029EEFE92E91E018
:10082000F92E10E000E027E0D22EC0915C02D0E06B
:10083000F7018081F2E0EF0EF11CDC9EF001DD9EFD
:10084000F00D1124EF59FD4FE00FF11F60810E9460
:10085000D3000F5F1F4F0730110539F7CC0FDD1F95
:10086000C45FDD4F61E088810E94D3000E944D0388
:1008700060935D0270935E0280935F0290936002CA
:10088000DF91CF911F910F91FF90EF90DF9008952E
:1008900010925C02C2CF8F929F92AF92BF92CF9282
:1008A000DF92EF92FF926C010E944D034B015C01BD
:1008B000F12CE12C0E944D03681979098A099B09E2
:1008C0006C157D058E059F0518F40E94E103F2CF9B
:1008D000FF90EF90DF90CF90BF90AF909F908F9060
:1008E00008958F929F92AF92BF92CF92DF92EF9234
:1008F000FF920F931F93CF93DF93982EE0906403A2
:10090000F0906503882319F041E0E41AF1089CE9AE
:10091000C92E92E0D92E10E000E023E0A22EB12CE7
:100920000E151F050CF05AC0F601C191D1916F014F
:10093000CC0FDD1FFE01EC5AFD4F808061E0882D59
:100940000E94D300C45BDD4F888199810E945E01C3
:1009500088EC90E00E944B0420918E0230918F022F
:100960002A3031058CF5911031C042EE4203C001AE
:10097000439F900D1124845D9E4F0E944B0460E0C4
:10098000882D0E94D3008DE00E94010182E490E056
:100990000E944B0420918E0230918F022A30310543
:1009A000C4F4911018C042EE4203C001439F900D61
:1009B0001124845D9E4FB5010E94760BCB010E94ED
:1009C0004B040F5F1F4FACCF9920C9F288EC90E029
:1009D000D4CF9920B1F384E690E0F1CFDF91CF91AD
:1009E0001F910F91FF90EF90DF90CF90BF90AF904D
:1009F0009F908F9008950F931F93CF93DF93EC01F7
:100A00008B01FB0160810E94050BF8016181CE0121
:100A100001960E94050B82E090E0DF91CF911F913B
:100A20000F9108950F931F93CF93DF938C01EB01E8
:100A30000E94FD0A8883C80101960E94FD0A8983ED
:100A400082E090E0DF91CF911F910F9108951F9266
:100A50000F920FB60F9211242F933F934F935F93F2
:100A60006F937F938F939F93AF93BF93EF93FF9376
:100A700080916B0390916C03A0916D03B0916E0314
:100A8000892B8A2B8B2BD1F190916603E091670320
:100A9000F091680380818927808380916B03909116
:100AA0006C03A0916D03B0916E03181619061A0617
:100AB0001B069CF480916B0390916C03A0916D03D5
:100AC000B0916E030197A109B10980936B039093D4
:100AD0006C03A0936D03B0936E03FF91EF91BF91F0
:100AE000AF919F918F917F916F915F914F913F91C6
:100AF0002F910F900FBE0F901F90189580910401B9
:100B00000E940101EACF1F920F920FB60F9211249B
:100B10002F933F938F939F93AF93BF9380917402D2
:100B200090917502A0917602B09177023091730294
:100B300023E0230F2D3758F50196A11DB11D2093F9
:100B400073028093740290937502A0937602B0931F
:100B5000770280916F0290917002A0917102B09122
:100B600072020196A11DB11D80936F0290937002D5
:100B7000A0937102B0937202BF91AF919F918F9138
:100B80003F912F910F900FBE0F901F90189526E860
:100B9000230F0296A11DB11DD2CFCF93DF9300D0BA
:100BA00000D000D01F92CDB7DEB7789484B58260B4
:100BB00084BD84B5816084BD85B5826085BD85B501
:100BC000816085BD80916E00816080936E0010927F
:100BD00081008091810082608093810080918100FA
:100BE000816080938100809180008160809380008B
:100BF0008091B10084608093B1008091B0008160E9
:100C00008093B00080917A00846080937A00809114
:100C10007A00826080937A0080917A00816080936C
:100C20007A0080917A00806880937A001092C100E7
:100C300082E090E09A838983BE016F5F7F4F90E0EE
:100C400080E00E94FB0485E090E09A838983BE01E6
:100C50006F5F7F4F82E090E00E94FB04BE016B5FFC
:100C60007F4F84E090E00E9412058D819E81409725
:100C700051F11A821982BE016F5F7F4F8AE090E0C6
:100C80000E94FB0480E190E09E838D83BE016B5F38
:100C90007F4F84E090E00E94FB0483E190E09A8320
:100CA0008983BE016F5F7F4F8CE090E00E94FB0460
:100CB0008DE090E09A838983BE016F5F7F4F8EE065
:100CC00090E00E94FB0486E090E00E94FD0A898388
:100CD00087E090E00E94FD0A8A8388E090E00E940D
:100CE000FD0A8B8389E090E00E94FD0A8C83698174
:100CF0007A818B819C810E94F40A6CE872E08AE020
:100D000090E00E9412056AE872E08CE090E00E9498
:100D1000120568E872E08EE090E00E94120504E59A
:100D200012E050E1E52E52E0F52E68E7C62E62E0B3
:100D3000D62E7CE5872E72E0972ED801AC900E5F00
:100D40001F4F61E08A2D0E942D01F701B080F2E073
:100D5000EF0EF11C60E08B2D0E942D0160E08A2DCA
:100D60000E94D30061E08B2D0E94D3000E944D03AE
:100D7000D6016D937D938D939D936D0180169106A1
:100D8000E1F661E080E00E942D0161E081E00E94D7
:100D90002D010EEF11E04CE0E42E42E0F42EF801BC
:100DA00080810E5F1F4F61E00E942D01E016F10669
:100DB000B1F761E081E00E942D0161E081E00E94D5
:100DC000D30061E08DE00E942D018AE00E94AA001C
:100DD000892B29F581E10E94AA00892B01F5109247
:100DE0008D0210928C026CE872E08AE090E00E9422
:100DF000FB0483E190E09A838983BE016F5F7F4F9C
:100E00008CE090E00E94FB048DE090E09A8389835F
:100E1000BE016F5F7F4F8EE090E00E94FB048CE08C
:100E20000E94AA00892B11F515E019831A82CE01C0
:100E300001960E94B50384EF91E00E944B048DE07F
:100E400089838DE18A83CE0101960E94B50384EFE8
:100E500091E00E944B0482E089831A83CE010196BF
:100E60000E94B5038CED95E00E944B0480918A02AC
:100E70008983809188028A83CE0101960E94B503FE
:100E800088EE93E00E944B0420918C0230918D02F9
:100E90002A3031050CF070C085E18983C9016AE010
:100EA00070E00E94760B8A83CE0101960E94B50302
:100EB00080ED97E00E944B0434E0432E512C612CCE
:100EC000712C0E94A50AD62EA72EB82EC92E698392
:100ED0007A838B839C8386E090E00E94050B6A8175
:100EE00087E090E00E94050B6B8188E090E00E9413
:100EF000050B6C8189E090E00E94050B0091640372
:100F000010916503C801880F991F9C0124563D4F1D
:100F100079016D2D7A2D8B2D9C2DA30192010E94BC
:100F2000130BD7016D937C937801BFEFEB1AFB0A8B
:100F3000F0926503E092640310938F0200938E0297
:100F40000A30110504F5E5E1E983C8016AE070E0C3
:100F50000E94760B8A83CE0101960E94B503F3E6C8
:100F6000EF16F10409F098C080E090E0892B09F4B5
:100F7000A8CF0E940000A5CFC9016AE070E00E94DE
:100F8000760B69838BCFC8016AE070E00E94760B14
:100F90006983DBCF80919102882381F1A02FB0E09B
:100FA000CD01880F991FE1E0F0E0EC0FFD1FE80F85
:100FB000F91F208131812F5F3F4F318320832A31F8
:100FC000310514F01182108225E030E02C0F3D1F16
:100FD000A20FB31FE1E0F0E0EC0FFD1F8E0F9F1F8B
:100FE000FC0180819181FC01EE0FFF1FE85EFD4F47
:100FF00080818C93C9010E94B50398C1D090920260
:10100000DD2039F1E5E0F0E0EC0FFD1FE00FF11D10
:10101000C0820B25802F90E0A5E0B0E0AC0FBD1F93
:10102000A80FB91F880F991FE1E0F0E0EC0FFD1F3A
:10103000E80FF91F0190F081E02DEE0FFF1FE85E31
:10104000FD4F80818C93CE0105960E94B503AD2C97
:101050006DC110919302112309F468C11A2D66C164
:10106000C9016AE070E00E94760B6D8393C18CE049
:101070000E94AA00892B09F49FC18FE00E94AA0058
:10108000892B09F499C181E10E94AA00892B09F4F6
:1010900093C18AC1011115CF88EE93E00E944B04E1
:1010A00080E00E947104F12CE12C209064033090C8
:1010B0006503E214F3040CF0F5C10E944D034B01EB
:1010C0005C01CE2C0E2C000CDD08F601EE0FFF1F8C
:1010D000E456FD4F20812F830E944D03AB01BC01DC
:1010E000481959096A097B098091980290919902DF
:1010F000A0919A02B0919B028C53964FAF4FBF4F75
:10110000481759076A077B0708F0C1C10E94E1032D
:101110000E9459030E944D03009194021091950280
:101120002091960230919702601B710B820B930BFA
:10113000653F71408105910598F08DE00E940101A5
:1011400060E089E00E94D30060E08BE00E94D30061
:1011500060E08EE00E94D30060E080E10E94D30056
:10116000E0E9F2E010E000E08191882309F488C111
:10117000AF818A2FAA0F990B8017910709F420C11C
:101180008DE00E94010160E089E00E94D30060E0F0
:101190008BE00E94D30060E08EE00E94D30060E00C
:1011A00080E10E94D300EEEFFFEFF0936303E09342
:1011B000620300916203109163030E3FFFEF1F076C
:1011C00089F0F801EE0FFF1FEC5AFD4F61E08081BE
:1011D0000E94D30087E390E00E945E0184EF91E0DB
:1011E0000E944B0461E089E00E94D30061E08BE043
:1011F0000E94D30061E08EE00E94D30061E080E1B4
:101200000E94D30087E390E00E945E018EEE92E0A0
:101210000E3F1F4F11F08AEF90E00E944B048DE0CB
:101220000E94010160E089E00E94D30060E08BE051
:101230000E94D30060E08EE00E94D30060E080E175
:101240000E94D30084EF91E00E944B0400E011E083
:1012500084EF91E00E944B04113009F01BCF2091E4
:101260008E0230918F0280918C0290918D028217B4
:1012700093070CF099C06EE872E08AE090E00E945B
:10128000FB0480918E0290918F0290938D02809347
:101290008C028AE08D8385E18E83CE0105960E94C3
:1012A000B5031A8219821C821B82A12C00E015E171
:1012B000C12EBB24B39489E1E82EF12C0E94E103F6
:1012C0000E94590310919002112309F463CE402F1C
:1012D00050E0CA01880F991FE1E0F0E0EC0FFD1F1C
:1012E000E80FF91F2081318121503109318320839A
:1012F00037FF02C0F182E08225E030E02C0F3D1F75
:10130000420F531FA1E0B0E0AC0FBD1F8A0F9B1F1F
:10131000DC01ED91FC91EE0FFF1FE85EFD4F808137
:10132000FA018083C9010E94B50310E08EE190E0CC
:101330000E944B04112311F2E981FA81EE0FFF1F85
:10134000E85EFD4F8081918190938B0280938A02A9
:10135000EB81FC81EE0FFF1FE85EFD4F80819181E4
:1013600090938902809388026AE872E08CE090E0B2
:101370000E94FB0468E872E08EE090E00E94FB04AB
:1013800020918C0230918D022A3031050CF068CE0C
:1013900085E18D83C9016AE070E00E94760B8E833F
:1013A000CE0105960E94B5030E94E1038AE00E94E7
:1013B000AA00892B09F05BCE81E00E947104F4CF72
:1013C0008DE00E94010160E089E00E94D30060E0AE
:1013D0008BE00E94D30060E08EE00E94D30060E0CA
:1013E00080E10E94D3008AE090E00E944B04000F4D
:1013F000111FF801EC5AFD4FB08061E08B2D0E9467
:10140000D300045B1D4FD8018D919C910E945E0119
:101410000E944D036093940270939502809396020C
:101420009093970288EC90E00E944B04B1E02B1A55
:101430003108C214D30451F0EFEFFFEFF0936303D0
:10144000E0936203BFEFEB1AFB0A2FCE84EF91E02B
:101450000E944B0460E08B2D0E94D3008DE00E941F
:101460000101109298021092990210929A02109221
:101470009B022FEF3FEF3093630320936203E2CF91
:101480000F5F1F4F0430110509F06ECE25CE3F814E
:10149000832F330F990B909363038093620301961C
:1014A00089F287CE8FEA90E00E944B0401E010E0C1
:1014B000CFCE8F929F92AF92BF92CF92DF92EF9258
:1014C000FF92CF93DF93EC01688179818A819B81C0
:1014D000611571058105910521F464E279ED8BE5D3
:1014E00097E02DE133EF41E050E00E94130B4901FA
:1014F0005A019B01AC01A7EAB1E40E94320B6B01D7
:101500007C01ACEEB4EFA50194010E94400BC60E25
:10151000D71EE81EF91EF7FE06C081E0C81AD108E2
:10152000E10880E8F80AC882D982EA82FB82C70112
:10153000B6019F77DF91CF91FF90EF90DF90CF9032
:10154000BF90AF909F908F9008958F929F92AF928F
:10155000BF92CF92DF92EF92FF926091050170915E
:1015600006018091070190910801611571058105BF
:10157000910521F464E279ED8BE597E02DE133EFFD
:1015800041E050E00E94130B49015A019B01AC015C
:10159000A7EAB1E40E94320B6B017C01ACEEB4EF20
:1015A000A50194010E94400BC60ED71EE81EF91E2D
:1015B000F7FE06C081E0C81AD108E10880E8F80A01
:1015C000C0920501D0920601E0920701F092080155
:1015D000C701B6019F77FF90EF90DF90CF90BF904B
:1015E000AF909F908F9008956093050170930601CE
:1015F00080930701909308010895F999FECF92BD59
:1016000081BDF89A992780B50895262FF999FECFC4
:101610001FBA92BD81BD20BD0FB6F894FA9AF99A0F
:101620000FBE01960895052E97FB1EF400940E94AC
:101630002A0B57FD07D00E94450B07FC03D04EF440
:101640000C942A0B50954095309521953F4F4F4F64
:101650005F4F089590958095709561957F4F8F4F5E
:101660009F4F08950E94670BA59F900DB49F900D0A
:10167000A49F800D911D11240895B7FF0C94320B87
:101680000E94320B821B930B0895A1E21A2EAA1B13
:10169000BB1BFD010DC0AA1FBB1FEE1FFF1FA21722
:1016A000B307E407F50720F0A21BB30BE40BF50B1F
:1016B000661F771F881F991F1A9469F760957095A8
:1016C000809590959B01AC01BD01CF010895A29F2B
:1016D000B001B39FC001A39F700D811D1124911D06
:1016E000B29F700D811D1124911D089597FB072E47
:1016F00016F4009407D077FD09D00E948A0B07FCEE
:1017000005D03EF4909581959F4F08957095619511
:101710007F4F0895AA1BBB1B51E107C0AA1FBB1F27
:10172000A617B70710F0A61BB70B881F991F5A956D
:10173000A9F780959095BC01CD010895F894FFCF4D
:1017400001010101FF01000000010101010101008F
:101750000001010000000001010001010001010180
:10176000010100000100010100000101010001016F
:10177000000101010001010101010101010000005E
:10178000000101010101010101010101000101014B
:10179000010100010101010000010101000100003F
:1017A000010101010100000001010100010100012E
:1017B0000101000000000101000001010101000021
:1017C0000000000101010000000100010001010111
:1017D0000000010101000101010101000000000001
:1017E00000000000010101010001000001010101F0
:1017F00001010001010101000100010001010101DD
:1018000001000100010001010100000101000000D0
:1018100000010001000000010101010001000100C0
:1018200001000001010101010101000001000001AE
:101830000001010100010101010001010001050099
:101840000200060003000700040008000000010079
:101850000A000C000F0011000A0017000B00160010
:101860000C000D0018000E000F00100019001100F0
:101870001A001200000013001B001C0005001D00D0
:1018800014001E001F002000210022004A01150143
:0C189000B801A50009000B000E001000BC
:00000001FF
